:040000000DEF00F010
:04000800DDEF0DF02B
:10001800FF003AEF17F085500F0B080AD8A417EF26
:1000280000F019EF00F080EF02F01A6A6F0018FE76
:1000380019F05EEF02F01BAA24EF00F026EF00F0A3
:1000480080EF02F01BAC2BEF00F02DEF00F080EFFB
:1000580002F01B501918536E53A835EF00F037EF14
:1000680000F03DEF00F01B6A010E1A6E238080EF4E
:1000780002F02FEE87F3280E3524E16E010E3620AC
:10008800E26E060E6F006FFFE3FFE806FBE2193031
:10009800070BFF0A536E070E531653503526000EF2
:1000A800362235503B5C36503C58D8B05EEF00F0F5
:1000B80060EF00F065EF00F01B6A0E0E1A6E3AEF63
:1000C80000F01BB86AEF00F06DEF00F0010E6EEF64
:1000D80000F0000EFF0A536E533A1B505318EF0BF3
:1000E80053181B6E19502009F00B0001DE6F19A080
:1000F80080EF00F082EF00F03AEF00F0280E316E4A
:10010800010E326E310E0C6E28EC11F01B6A0EC017
:100118001AF03AEF00F01B9A6F001CFE37F037C058
:10012800DFF06F0020FE38F038C0E0F06F0024FEEA
:1001380039F039C0E1F00001E26BE36BE46BE56B89
:10014800310E0C6E4EEC04F00E50D8A4AEEF00F059
:10015800B0EF00F02CEF01F03AA2B5EF00F0B7EFE6
:1001680000F028EF01F019A2BCEF00F0BEEF00F09C
:10017800F2EF00F019A0C3EF00F0C5EF00F0D4EFE4
:1001880000F01930E832030BFF0A536E030E5316C2
:10019800010E5324336E346A000E3422D8EF00F077
:1001A8003BC033F03CC034F03B50331807E13C50BF
:1001B8003418D8A4E2EF00F0E4EF00F061EF00F0AB
:1001C8001B6A8A0E316E3F0E326E310E0C6E28ECB1
:1001D80011F0600E0001DE6F8BEF00F019A0F7EF51
:1001E80000F0F9EF00F015EF01F08C508D100009C8
:1001F800D8B401EF01F003EF01F005EF01F061EF72
:1002080000F02FEE8AF3DE503B1809E1DE503C186F
:10021800D8B411EF01F013EF01F015EF01F061EF21
:1002280000F03BC033F03CC034F01B8A1B8C1B9899
:10023800366A000E356E010E0001CC6FF40ECB6FDE
:10024800600EDE6F3AEF00F0070E1A6E3AEF00F01C
:100258000EC01AF0238080EF02F01B9A6F001CFE7C
:1002680037F037C0DFF06F0020FE38F038C0E0F01C
:100278006F0024FE39F039C0E1F00001E26BE36B56
:10028800E46BE56B310E0C6E4EEC04F00E50D8A406
:1002980050EF01F052EF01F02CEF01F03AA057EFC8
:1002A80001F059EF01F0ADEF01F0366A000E356E3E
:1002B8001B6A3C5009E1050E3B5CD8A066EF01F0D3
:1002C80068EF01F08DEF01F0010E0001CC6FF40E24
:1002D800CB6F1B8AE20E316E326A3BC0E2F03CC043
:1002E800E3F0410EDE6F3AEF00F04F0E0001DE6FD3
:1002F800A0EF01F04B0E0001DE6FA0EF01F0470EFA
:100308000001DE6FA0EF01F0430E0001DE6FA0EFE9
:1003180001F03B50010AD8B479EF01F0030AD8B4D0
:100328007EEF01F0010AD8B483EF01F0070AD8B4D0
:1003380088EF01F0A0EF01F03BC033F03CC034F08F
:10034800E20E316E326A310E0C6EFDEC0CF08BEF62
:1003580000F0060E1A6E3AEF00F01BAAB6EF01F095
:10036800B8EF01F080EF02F01BBCBDEF01F0BFEF6A
:1003780001F080EF02F01B501918536E53A8C7EF15
:1003880001F0C9EF01F0CBEF01F037EF00F0DF0E1D
:10039800316E326A35503B5C0001C96F36503C58AB
:1003A800CA6FCA5109E1080EC95DD8A0DEEF01F095
:1003B800E0EF01F0E6EF01F0DE6B346A070E336E12
:1003C80039EF02F01B6A1AEF02F00D0EDE6F346A85
:1003D800010E336E39EF02F00B0EDE6F346A020E37
:1003E800336E39EF02F0090EDE6F346A030E336E96
:1003F80039EF02F0070EDE6F346A040E336E39EF00
:1004080002F0050EDE6F346A050E336E39EF02F026
:10041800030EDE6F346A060E336E39EF02F0010EFA
:10042800DE6F346A070E336E39EF02F0C951010AE4
:10043800D8B4E9EF01F0030AD8B4F0EF01F0010AEB
:10044800D8B4F7EF01F0070AD8B4FEEF01F0010ABB
:10045800D8B405EF02F0030AD8B40CEF02F0010A91
:10046800D8B413EF02F039EF02F0DE99310E0C6EBA
:10047800FDEC0CF020EE33F0DE503526DD50362250
:100488001BB849EF02F04CEF02F0010E4DEF02F0FD
:10049800000EFF0A536E533A1B505318EF0B5318B4
:1004A8001B6E8BEF00F01B6A80EF02F0030E1A6ED2
:1004B8003AEF00F01950E00B536E546A5450000A9A
:1004C800D8B469EF02F05AEF02F05350000AD8B4DA
:1004D8001FEF00F0200AD8B48FEF00F0600AD8B4FC
:1004E80031EF01F0200AD8B4B1EF01F0E00AD8B436
:1004F80057EF02F05AEF02F01200600067F281FF36
:1005080060006BF282FF60006FF283FF600073F29D
:1005180084FF080E856E1A50D8A495EF02F097EF65
:1005280002F0A3EF02F020EEDEF01FEE86F3070ED6
:100538006F006FFFE3FFE806FBE24DEF04F0800E6B
:10054800866E6000DFF087FF6000E3F088FF6000E0
:10055800E7F089FFDCEF03F02FEE8AF3000EDE6E82
:10056800000EDE6E030EDE6E050EDD6E4DEF04F03E
:100578002FEE8AF3000EDE6E000EDE6E040EDE6EC7
:10058800050EDD6E4DEF04F02FEE8AF3010EDE6EE0
:10059800000EDE6E040EDE6E050EDD6E4DEF04F00D
:1005A8002FEE8AF3050EDE6E000EDE6E040EDE6E92
:1005B800050EDD6E4DEF04F02FEE8AF3000EDE6EB1
:1005C800000EDE6E010EDE6E060EDD6E4DEF04F0DF
:1005D8002FEE8AF3010EDE6E000EDE6E010EDE6E69
:1005E800060EDD6E4DEF04F02FEE8AF3020EDE6E7E
:1005F800000EDE6E010EDE6E060EDD6E4DEF04F0AF
:100608002FEE8AF3000EDE6E000EDE6E020EDE6E38
:10061800060EDD6E4DEF04F02FEE8AF3410EDE6E0E
:10062800000EDE6E040EDE6E060EDD6E4DEF04F07B
:100638002FEE8AF3420EDE6E000EDE6E040EDE6EC4
:10064800060EDD6E4DEF04F02FEE8AF3430EDE6EDC
:10065800000EDE6E040EDE6E060EDD6E4DEF04F04B
:100668002FEE8AF3470EDE6E000EDE6E040EDE6E8F
:10067800060EDD6E4DEF04F02FEE8AF3000EDE6EEF
:10068800000EDE6E060EDE6E060EDD6E4DEF04F019
:100698002FEE8AF3100EDE6E000EDE6E070EDE6E93
:1006A800060EDD6E4DEF04F02FEE8AF3120EDE6EAD
:1006B800000EDE6E070EDE6E060EDD6E4DEF04F0E8
:1006C8002FEE8AF3130EDE6E000EDE6E070EDE6E60
:1006D800060EDD6E4DEF04F02FEE8AF3110EDE6E7E
:1006E800000EDE6E090EDE6E060EDD6E4DEF04F0B6
:1006F8002FEE8AF3300EDE6E000EDE6E090EDE6E11
:10070800060EDD6E4DEF04F02FEE8AF3310EDE6E2D
:10071800000EDE6E090EDE6E060EDD6E4DEF04F085
:100728002FEE8AF3320EDE6E000EDE6E090EDE6EDE
:10073800060EDD6E4DEF04F02FEE8AF3360EDE6EF8
:10074800000EDE6E090EDE6E060EDD6E4DEF04F055
:100758002FEE8AF3000EDE6E000EDE6E000EDE6EE9
:10076800080EDD6E4DEF04F02FEE8AF3200EDE6EDC
:10077800000EDE6E000EDE6E080EDD6E4DEF04F02C
:100788002FEE8AF3210EDE6E000EDE6E000EDE6E98
:10079800080EDD6E4DEF04F02FEE8AF3220EDE6EAA
:1007A800000EDE6E000EDE6E080EDD6E4DEF04F0FC
:1007B8001A50466E476A4750000AD8B4E6EF03F06D
:1007C8004DEF04F04650010AD8B4B0EF02F0030A26
:1007D800D8B4BCEF02F0010AD8B4C8EF02F0070A97
:1007E800D8B4D4EF02F0010AD8B4E0EF02F0030A5B
:1007F800D8B4ECEF02F0010AD8B4F8EF02F00F0A0F
:10080800D8B404EF03F0010AD8B410EF03F0030AD8
:10081800D8B41CEF03F0010AD8B428EF03F0070A94
:10082800D8B434EF03F0010AD8B440EF03F0030A58
:10083800D8B44CEF03F0010AD8B458EF03F01F0AFC
:10084800D8B464EF03F0010AD8B470EF03F0030AD8
:10085800D8B47CEF03F0010AD8B488EF03F0070A94
:10086800D8B494EF03F0010AD8B4A0EF03F0030A58
:10087800D8B4ACEF03F0010AD8B4B8EF03F00F0A0C
:10088800D8B4C4EF03F0010AD8B4D0EF03F04DEFA9
:1008980004F0120037C009F038C00AF039C00BF074
:1008A80015EF05F0CB0E0001CD6FFE0ECE6F070ED3
:1008B800D56F4BEF05F0AC0E0001CD6FFF0ECE6F7C
:1008C800020ED56F4BEF05F09C0E0001CD6FFF0EA9
:1008D800CE6F64EF04F08C0E0001CD6FFF0ECE6F6B
:1008E80064EF04F07C0E0001CD6FFF0ECE6F64EF55
:1008F80004F0CB0E0001CD6FFD0ECE6F0E0ED56F3E
:100908004BEF05F06C0E0001CD6FFF0ECE6F64EF5C
:1009180004F05C0E0001CD6FFF0ECE6F64EF04F0A3
:100928004C0E0001CD6FFF0ECE6F64EF04F0530E36
:100938000001CD6FFD0ECE6F0F0ED56F4BEF05F09A
:10094800340E0001CD6FFF0ECE6F030ED56F4BEF47
:1009580005F00950D8A4B3EF04F0B5EF04F0BCEFEC
:1009680004F0BC0E0001CD6FFF0ECE6F64EF04F0F3
:10097800080E0E6EE1EF05F00950D8A4C6EF04F09A
:10098800C8EF04F0BCEF04F0830E0001CD6FFE0E3B
:10099800CE6F090ED56F4BEF05F00950D8A4D7EFED
:1009A80004F0D9EF04F0BCEF04F01C0E0001CD6F89
:1009B800FF0ECE6FA9EF04F00950D8A4E6EF04F0BB
:1009C800E8EF04F0BCEF04F03B0E0001CD6FFE0E23
:1009D800CE6FCDEF04F00A500F0B516E526A525091
:1009E800000AD8B4FAEF04F0BCEF04F05150000A42
:1009F800D8B49BEF04F0020AD8B4A4EF04F0060AB6
:100A0800D8B4ADEF04F0020AD8B4C0EF04F00E0A6F
:100A1800D8B4D1EF04F0020AD8B4E0EF04F0BCEF88
:100A280004F00A50F00B516E526A5250000AD8B4C2
:100A380020EF05F0BCEF04F05150000AD8B456EF8F
:100A480004F0100AD8B4EFEF04F0300AD8B45FEF1E
:100A580004F0100AD8B468EF04F0700AD8B46FEF45
:100A680004F0100AD8B476EF04F0300AD8B47DEF59
:100A780004F0100AD8B486EF04F0F00AD8B48DEF69
:100A880004F0100AD8B494EF04F0BCEF04F0080E98
:100A98000E6E600037F3F6FF60003BF3F7FFF86A6D
:100AA80009006F00D4FFB1F009006F00D4FFB2F065
:100AB80009006F00D4FFB3F00A006F00D4FFB4F050
:100AC800D9EF05F0B2510A18D8A46DEF05F06FEF11
:100AD80005F0BDEF05F0B1510918D8A476EF05F07F
:100AE80078EF05F0BDEF05F0110E0E6EB3510B183F
:100AF800D8B481EF05F083EF05F08AEF05F0B4ADC7
:100B080088EF05F08AEF05F0BDEF05F0600037F3D8
:100B1800F6FF60003BF3F7FFF86A20EE37F0070EA8
:100B280009006F00D7FFDEFFE806FAE2B4AD9FEFD9
:100B380005F0A1EF05F0A3EF05F00BC039F0B4A95B
:100B4800A8EF05F0AAEF05F0BAEF05F00E6A0D6AF6
:100B580002D8B8EF05F00500FA6E3D50FD6E3E5024
:100B6800FE6EFF6AFA501200E1EF05F00E6AE1EF3F
:100B780005F0080ECD27000ECE23D507600037F309
:100B8800F6FF60003BF3F7FFF86A09006F00D4FF37
:100B9800B1F009006F00D4FFB2F009006F00D4FF74
:100BA800B3F00A006F00D4FFB4F0D551D8A4DFEF3A
:100BB80005F0E1EF05F066EF05F012002D50D8B40E
:100BC800E8EF05F0EAEF05F0EFEF06F0E4EF06F0E6
:100BD8008EAEF1EF05F0F3EF05F0D1EF06F000016E
:100BE8008D51D8B4FAEF05F0FCEF05F00CEF06F0E4
:100BF800600003F4A0F7600007F4A1F760000BF4AD
:100C0800A2F760000FF4A3F7370106810EEF06F094
:100C18003701069100018E51D8B415EF06F017EF91
:100C280006F027EF06F0600013F4A4F7600017F44D
:100C3800A5F760001BF4A6F760001FF4A7F73701BB
:100C4800068329EF06F03701069300018F51D8B4C7
:100C580030EF06F032EF06F042EF06F0600023F4C2
:100C6800A8F7600027F4A9F760002BF4AAF7600042
:100C78002FF4ABF73701068544EF06F037010695E8
:100C880000019051D8B44BEF06F04DEF06F05DEF40
:100C980006F0600033F4ACF7600037F4ADF760009D
:100CA8003BF4AEF760003FF4AFF7370106875FEF1C
:100CB80006F03701069700019151D8B466EF06F0A7
:100CC80068EF06F078EF06F0600043F4B0F76000D4
:100CD80047F4B1F760004BF4B2F760004FF4B3F794
:100CE800370106897AEF06F037010699000192511B
:100CF800D8B481EF06F083EF06F093EF06F06000BA
:100D080053F4B4F7600057F4B5F760005BF4B6F736
:100D180060005FF4B7F73701068B95EF06F03701EF
:100D2800069B00019351D8B49CEF06F09EEF06F0A5
:100D3800AEEF06F0600063F408F7600067F409F7A7
:100D480060006BF40AF760006FF40BF73701068D4B
:100D5800B0EF06F03701069D00019451D8B4B7EF03
:100D680006F0B9EF06F0C9EF06F0600073F40CF76F
:100D7800600077F40DF760007BF40EF760007FF4F5
:100D88000FF73701068FCBEF06F03701069F2D6A64
:100D98006000B3F08FFFEFEF06F0800E8F6EEFEF7D
:100DA80006F08FAEDAEF06F0DCEF06F0D1EF06F0D2
:100DB800E8EC12F02D6A6000B3F08FFFEFEF06F059
:100DC8002D50010AD8B4ECEF05F0030AD8B4D5EFDA
:100DD80006F0EFEF06F0120011EC12F029A0F7EF81
:100DE80006F0F9EF06F0BEEF07F02E50D8B4FFEF8B
:100DF80006F001EF07F0BEEF07F0A1EF07F028A01B
:100E080008EF07F00AEF07F0BBEF07F0C7EC11F0A7
:100E1800BBEF07F028A213EF07F015EF07F0BBEFC1
:100E280007F029B41AEF07F01CEF07F0BBEF07F043
:100E380044EC18F0BBEF07F028A625EF07F027EFE2
:100E480007F0BBEF07F0CAEC15F0BBEF07F02E5028
:100E58003F0B556E566A5650000AD8B436EF07F065
:100E6800BBEF07F05550010AD8B403EF07F0030AA7
:100E7800D8B40EEF07F0060AD8B420EF07F0BBEF9E
:100E880007F029B44AEF07F04CEF07F0BBEF07F083
:100E980059EF07F027A053EF07F055EF07F0BBEF26
:100EA80007F00FEC00F0BBEF07F02E503F0B556E2C
:100EB800566A5650000AD8B464EF07F0BBEF07F043
:100EC8005550000AD8B44EEF07F0BBEF07F029B42D
:100ED80070EF07F072EF07F0BBEF07F029A277EF8A
:100EE80007F079EF07F0BBEF07F08FEF07F026A0C8
:100EF80080EF07F082EF07F0BBEF07F00001D6B1F3
:100F080088EF07F08AEF07F0BBEF07F0D68115EC02
:100F180018F0BBEF07F02E503F0B556E566A56502F
:100F2800000AD8B49AEF07F0BBEF07F05550000A53
:100F3800D8B47BEF07F0BBEF07F02E50C00B556E0F
:100F4800566A5650000AD8B4ACEF07F0BBEF07F06A
:100F58005550000AD8B42BEF07F0400AD8B445EF33
:100F680007F0C00AD8B46BEF07F0BBEF07F0809E1C
:100F78003901A593120072EF08F0A9C005F0AAC0C4
:100F880006F0ABC007F0ACC008F0C4EC0FF00C5092
:100F9800D96EDA6A6F0078FF49F06F0074FF4AF083
:100FA800600027F1D9FF60002BF1DAFF600007F03D
:100FB800DEFF60000BF0DEFF60000FF0DEFF600078
:100FC80013F0DEFF8BEF08F00C50D96EDA6A6F0071
:100FD80078FF49F06F0074FF4AF0600027F1D9FFED
:100FE80060002BF1DAFF6F0078FF05F06F0078FFE3
:100FF80006F06F0078FF07F06F0078FF08F078ECD4
:1010080010F002A80AEF08F00CEF08F041EF08F022
:101018000001A9510118496EAA5102184A6EAB5134
:1010280003184B6EAC5104184C6EFF0E49144D6EEC
:10103800EF0E4A144E6EFF0E4B144F6EFF0E4C14FB
:10104800506E4D504E104F105010D8A42EEF08F08F
:1010580030EF08F03DEF08F026A035EF08F037EF45
:1010680008F039EF08F07DEC18F00001AA898BEF41
:1010780008F0120E0E6E8BEF08F00001A95101184E
:10108800496EAA5102184A6EAB5103184B6EAC5107
:1010980004184C6EFF0E49144D6EEF0E4A144E6E36
:1010A800FF0E4B144F6EFF0E4C14506E4D504E10E9
:1010B8004F105010D8A463EF08F065EF08F03DEF2B
:1010C80008F026B06AEF08F06CEF08F06EEF08F051
:1010D80055EC17F00001AA998BEF08F00D50496EF6
:1010E8004A6A4A50000AD8B47CEF08F08BEF08F03F
:1010F8004950000AD8B48BEF08F0010AD8B4C1EF00
:1011080007F0030AD8B4E8EF07F08BEF08F01200F5
:101118003BEF09F0A5C005F0A6C006F0A7C007F090
:10112800A8C008F0C4EC0FF00C50D96EDA6A6F0052
:1011380078FF49F06F0074FF4AF0600027F1D9FF8B
:1011480060002BF1DAFF600007F0DEFF60000BF0B3
:10115800DEFF60000FF0DEFF600013F0DEFF54EFEB
:1011680009F00C50D96EDA6A6F0078FF49F06F0009
:1011780074FF4AF0600027F1D9FF60002BF1DAFF15
:101188006F0078FF05F06F0078FF06F06F0078FFBA
:1011980007F06F0078FF08F078EC10F002A8D7EF9E
:1011A80008F0D9EF08F00CEF09F00001A55101187B
:1011B800496EA65102184A6EA75103184B6EA851E2
:1011C80004184C6EFF0E49144D6EEF0E4A144E6E05
:1011D800FF0E4B144F6EFF0E4C14506E4D504E10B8
:1011E8004F105010D8A4FBEF08F0FDEF08F008EFFF
:1011F80009F025A002EF09F004EF09F005EF09F066
:101208002590A68954EF09F0120E0E6E54EF09F0DE
:101218000001A5510118496EA65102184A6EA7513E
:1012280003184B6EA85104184C6EFF0E49144D6EEE
:10123800EF0E4A144E6EFF0E4B144F6EFF0E4C14F9
:10124800506E4D504E104F105010D8A42EEF09F08C
:1012580030EF09F008EF09F025B035EF09F037EF66
:1012680009F038EF09F02580A69954EF09F00D50E0
:10127800496E4A6A4A50000AD8B445EF09F054EF5B
:1012880009F04950000AD8B454EF09F0010AD8B45B
:101298008EEF08F0030AD8B4B5EF08F054EF09F060
:1012A8001200F4EF09F04B5007E1040E4A5CD8B085
:1012B80060EF09F062EF09F07AEF09F060001BF1C6
:1012C800D9FF60001FF1DAFF600023F1E1FF600041
:1012D80027F1E2FF6F007FFFE7FF484A492A464AA5
:1012E800472A4A06D8A04B06F4EF09F04B5007E10D
:1012F800080E4A5CD8B083EF09F085EF09F0ABEF30
:1013080009F060001BF1D9FF60001FF1DAFF6000EF
:1013180023F1E1FF600027F1E2FF6F007BFFE6FFAA
:101328006F007BFFE6FF6F007BFFE6FF6F007BFF30
:10133800E6FF040E4826000E4922040E4626000E3B
:101348004722040E4A5E000E4B5AF4EF09F04B5048
:1013580007E1100E4A5CD8B0B4EF09F0B6EF09F017
:10136800D6EF09F060001BF1D9FF60001FF1DAFF2A
:10137800600023F1E1FF600027F1E2FF070E6F0034
:101388006FFFE3FFE806FBE2080E4826000E49223D
:10139800080E4626000E4722080E4A5E000E4B5ADB
:1013A800F4EF09F060001BF1D9FF60001FF1DAFFCC
:1013B800600023F1E1FF600027F1E2FF0F0E6F00EC
:1013C8006FFFE3FFE806FBE2100E4826000E4922F5
:1013D800100E4626000E4722100E4A5E000E4B5A8B
:1013E8004A504B10D8A4FBEF09F0FDEF09F057EF76
:1013F80009F01200010E306E3EEC15F029A007EF3F
:101408000AF009EF0AF08DEF0AF02E50D8B40FEF6A
:101418000AF011EF0AF08DEF0AF02450D8B417EF54
:101428000AF019EF0AF034EF0AF024A61EEF0AF0CA
:1014380020EF0AF031EF0AF028A625EF0AF027EF8F
:101448000AF02EEF0AF0040E306E3EEC15F0AFEC09
:101458000EF0808624968DEF0AF0246A8DEF0AF04C
:101468002350D8B43AEF0AF03CEF0AF05EEF0AF0E6
:1014780029B441EF0AF043EF0AF08DEF0AF023A0F8
:1014880048EF0AF04AEF0AF05BEF0AF027A04FEFA7
:101498000AF051EF0AF058EF0AF0400E306E3EECB9
:1014A80015F081EC02F0808623908DEF0AF0236A14
:1014B8008DEF0AF02250D8B464EF0AF066EF0AF014
:1014C8008DEF0AF029A26BEF0AF06DEF0AF08DEFAD
:1014D8000AF029B472EF0AF074EF0AF08DEF0AF0FF
:1014E80022A079EF0AF07BEF0AF08CEF0AF025A032
:1014F80080EF0AF082EF0AF089EF0AF0800E306E72
:101508003EEC15F002EC17F0808622908DEF0AF081
:10151800226A1200F7EF0AF00C50D96EDA6A6F00EF
:1015280078FF46F06F0074FF47F060001BF1D9FFA9
:1015380060001FF1DAFF600047F0DEFF60004BF04B
:10154800DDFF10EF0BF00C50D96EDA6A6F0078FFF0
:1015580046F06F0074FF47F060001BF1D9FF600090
:101568001FF1DAFF6F0078FF11F06F0074FF12F0BF
:101578002B6A11501210D8B4C4EF0AF0C6EF0AF063
:10158800CFEF0AF02B8211C0B5F012C0B6F00001FF
:10159800B76B10EF0BF00F501010D8B4D6EF0AF05D
:1015A800D8EF0AF010EF0BF01F50D8B4DEEF0AF0B6
:1015B800E0EF0AF010EF0BF0800E206E2B842B82E8
:1015C8001F500F026F00CCFF46F06F00D0FF47F0AE
:1015D8001002F350472646C0B5F047C0B6F00001E8
:1015E800B76B10EF0BF00D50466E476A4750000A74
:1015F800D8B401EF0BF010EF0BF04650000AD8B446
:1016080010EF0BF0010AD8B490EF0AF0030AD8B42F
:10161800A7EF0AF010EF0BF012007AEF0BF00C5066
:10162800D96EDA6A6F0078FF46F06F0074FF47F0F2
:1016380060001BF1D9FF60001FF1DAFF60003FF086
:10164800DEFF600043F0DDFF93EF0BF00C50D96E26
:10165800DA6A6F0078FF46F06F0074FF47F06000A9
:101668001BF1D9FF60001FF1DAFF6F0078FF0FF060
:101678006F0074FF10F02B6A11501210D8B447EFA6
:101688000BF049EF0BF052EF0BF02B8211C0B5F0C5
:1016980012C0B6F00001B76B93EF0BF00F501010AB
:1016A800D8B459EF0BF05BEF0BF093EF0BF01F5032
:1016B800D8B461EF0BF063EF0BF093EF0BF0800EF3
:1016C800206E2B842B821F500F026F00CCFF46F038
:1016D8006F00D0FF47F01002F350472646C0B5F020
:1016E80047C0B6F00001B76B93EF0BF00D50466E94
:1016F800476A4750000AD8B484EF0BF093EF0BF019
:101708004650000AD8B493EF0BF0010AD8B413EF8F
:101718000BF0030AD8B42AEF0BF093EF0BF012008A
:10172800F6EF0BF00C50D96EDA6A6F0078FF46F0CE
:101738006F0074FF47F060001BF1D9FF60001FF1D4
:10174800DAFF60007FF0DFFF0FEF0CF00C50D96E6E
:10175800DA6A6F0078FF46F06F0074FF47F06000A8
:101768001BF1D9FF60001FF1DAFFDF501F6E2B6AF3
:1017780011501210D8B4C3EF0BF0C5EF0BF0CEEF39
:101788000BF02B8211C0B5F012C0B6F00001B76B98
:101798000FEF0CF00F501010D8B4D5EF0BF0D7EFB7
:1017A8000BF00FEF0CF01F50D8B4DDEF0BF0DFEFAC
:1017B8000BF00FEF0CF0800E206E2B842B821F5045
:1017C8000F026F00CCFF46F06F00D0FF47F0100209
:1017D800F350472646C0B5F047C0B6F00001B76BD6
:1017E8000FEF0CF00D50466E476A4750000AD8B408
:1017F80000EF0CF00FEF0CF04650000AD8B40FEFD2
:101808000CF0010AD8B496EF0BF0030AD8B4AAEF8B
:101818000BF00FEF0CF012006FEF0CF095C005F015
:1018280096C006F097C007F098C008F0C4EC0FF017
:101838000C50D96EDA6A6F0078FF49F06F0074FFB8
:101848004AF0600027F1D9FF60002BF1DAFF600051
:1018580007F0DEFF60000BF0DEFF60000FF0DEFF38
:10186800600013F0DEFF88EF0CF00C50D96EDA6AD6
:101878006F0078FF49F06F0074FF4AF0600027F1AD
:10188800D9FF60002BF1DAFF6F0078FF05F06F00D9
:1018980078FF06F06F0078FF07F06F0078FF08F018
:1018A80078EC10F002B45BEF0CF05DEF0CF06BEF2E
:1018B8000CF074EC18F001C095F002C096F003C06B
:1018C80097F004C098F01EEC17F088EF0CF0120E99
:1018D8000E6E88EF0CF00D50496E4A6A4A50000AA5
:1018E800D8B479EF0CF088EF0CF04950000AD8B45E
:1018F80088EF0CF0010AD8B412EF0CF0030AD8B440
:1019080039EF0CF088EF0CF01200000E2A240001C9
:10191800AD6FAE6B070EAE23AF6B000EAF23B06B8F
:10192800000EB023ADC005F0AEC006F0AFC007F0A2
:10193800B0C008F078EC10F001C0ADF002C0AEF015
:1019480003C0AFF004C0B0F02B6A11501210D8B425
:10195800B0EF0CF0B2EF0CF0BCEF0CF02B82288645
:1019680011C0B5F012C0B6F00001B76BFCEF0CF077
:101978000F501010D8B4C3EF0CF0C5EF0CF0FCEF0B
:101988000CF01F50D8B4CBEF0CF0CDEF0CF0FCEFFF
:101998000CF06F003CFE2CF0040E306EADC02FF042
:1019A800AEC030F0AFC031F0B0C032F0ADEC13F0E3
:1019B8002EC01EF01E50D8B4E4EF0CF0E6EF0CF089
:1019C800FCEF0CF02886800E206E2B842B821F5093
:1019D8000F026F00CCFF48F06F00D0FF49F01002F3
:1019E800F350492648C0B5F049C0B6F00001B76BBE
:1019F80012003A50D8B403EF0DF005EF0DF06BEF7D
:101A08000DF03AA80AEF0DF00CEF0DF051EF0DF0C4
:101A18000E6A010E0D6E02D81BEF0DF00500FA6E6E
:101A28003D50FD6E3E50FE6EFF6AFA5012006CEF9C
:101A38000DF035503D24516E36503E20526E51C047
:101A480046F00C50D96EDA6A6F0078FF47F06F00E5
:101A580074FF48F033C049F034C04AF06DEC0DF023
:101A68006BEF0DF035503D24466E36503E20476EE4
:101A78000C50D96EDA6A6F0078FF48F06F0074FF77
:101A880049F033C04AF034C04BF055EC09F06BEF25
:101A98000DF0060E0E6E6CEF0DF03A50070B516EFE
:101AA800526A5250000AD8B45CEF0DF04DEF0DF0B9
:101AB8005150010AD8B436EF0DF0020AD8B436EF07
:101AC8000DF0060AD8B41DEF0DF04DEF0DF00E6ABB
:101AD8001200D3EF0DF04A5007E1040E495CD8B06C
:101AE80078EF0DF07AEF0DF08EEF0DF04650D96ECD
:101AF800DA6A60001FF1E1FF600023F1E2FF6F0086
:101B08007FFFE7FF474A482A462A4906D8A04A06DF
:101B1800D3EF0DF04A5007E1080E495CD8B097EFB3
:101B28000DF099EF0DF0BAEF0DF04650D96EDA6A64
:101B380060001FF1E1FF600023F1E2FF6F007BFF0F
:101B4800E6FF6F007BFFE6FF6F007BFFE6FF6F009D
:101B58007BFFE6FF040E4726000E4822040E4626A9
:101B6800040E495E000E4A5AD3EF0DF04650D96E66
:101B7800DA6A60001FF1E1FF600023F1E2FF070E5F
:101B88006F006FFFE3FFE806FBE2080E4726000E32
:101B98004822080E4626080E495E000E4A5A495049
:101BA8004A10D8A4DAEF0DF0DCEF0DF06FEF0DF06E
:101BB80012006F00E8FF44F06F00ECFF45F03901B8
:101BC80095ADE9EF0DF0EBEF0DF0F6EF0DF0A5ADEB
:101BD800F0EF0DF0F2EF0DF0F6EF0DF025EC18F048
:101BE80040EF0EF093A9FBEF0DF0FDEF0DF013EFB2
:101BF8000EF0A3A902EF0EF004EF0EF013EF0EF0B3
:101C080002D811EF0EF00500FA6E0001C551FD6E05
:101C1800C651FE6EFF6AFA50120040EF0EF093A70D
:101C280018EF0EF01AEF0EF030EF0EF0A3A71FEF2B
:101C38000EF021EF0EF030EF0EF002D82EEF0EF07E
:101C48000500FA6E0001C751FD6EC851FE6EFF6AAD
:101C5800FA50120040EF0EF093AF35EF0EF037EF69
:101C68000EF040EF0EF0A3AF3CEF0EF03EEF0EF09B
:101C780040EF0EF08BEC17F0600017F1FBFF6000EF
:101C880013F1FAFF110095EF0EF00C50D96EDA6AD5
:101C98006F0078FF46F06F0074FF47F060001BF19B
:101CA800D9FF60001FF1DAFF60004FF0DFFFAEEFF1
:101CB8000EF00C50D96EDA6A6F0078FF46F06F00AC
:101CC80074FF47F060001BF1D9FF60001FF1DAFFD5
:101CD800DF50486EF10E486074EF0EF076EF0EF0AC
:101CE8007CEF0EF048C013F013C0CFF0AEEF0EF04B
:101CF800FE0E4818D8B483EF0EF085EF0EF08DEF86
:101D08000EF04828D8A48BEF0EF08DEF0EF091EF6F
:101D18000EF048C013F0AEEF0EF0120E0E6EAEEFDE
:101D28000EF00D50466E476A4750000AD8B49FEF30
:101D38000EF0AEEF0EF04650000AD8B4AEEF0EF03B
:101D4800010AD8B449EF0EF0030AD8B45DEF0EF0DB
:101D5800AEEF0EF012006000B7F281FF6000BBF238
:101D680082FF6000BFF283FF6000C3F284FF010EB0
:101D7800856E2BB0C2EF0EF0C4EF0EF00AEF0FF035
:101D88002050800B206E2BA4CCEF0EF0CEEF0EF07F
:101D9800E2EF0EF020BED3EF0EF0D6EF0EF0010EFC
:101DA800D7EF0EF0000EFF0A466E4632463220503C
:101DB80046187F0B4618206EE3EF0EF0209E29A4EC
:101DC800E8EF0EF0EAEF0EF0EFEF0EF02050040906
:101DD800206E05EF0FF029A2F4EF0EF0F6EF0EF0EB
:101DE800FBEF0EF020500509206E05EF0FF029A03B
:101DF80000EF0FF002EF0FF005EF0FF020507F0912
:101E0800206E600083F086FF0CEF0FF02B90866A3F
:101E18001200D3AE12EF0FF0D1EF10F015507D0F76
:101E2800D96EDA6ADF6A3D01F9A71DEF0FF01FEFDF
:101E38000FF031EF0FF015507D0FD96EDA6ADF829F
:101E480002D831EF0FF00500FA6E0001C351FD6EA4
:101E5800C451FE6EFF6AFA5012003D01F9A337EF34
:101E68000FF039EF0FF04BEF0FF015507D0FD96ED3
:101E7800DA6ADF8402D84BEF0FF00500FA6E000132
:101E8800C151FD6EC251FE6EFF6AFA501200155024
:101E98007D0FD96EDA6ADF50D8B455EF0FF057EFDF
:101EA8000FF066EF0FF002D864EF0FF00500FA6E3E
:101EB8000001BF51FD6EC051FE6EFF6AFA5012005C
:101EC80068EF0FF0A4EC17F012009DEC15F029A0B4
:101ED80070EF0FF072EF0FF0C3EF0FF02E50D8B481
:101EE80078EF0FF07AEF0FF0C3EF0FF0A9EF0FF0D4
:101EF80029A281EF0FF083EF0FF0C3EF0FF029B4A1
:101F080088EF0FF08AEF0FF0C3EF0FF097EF0FF0A5
:101F180025A091EF0FF093EF0FF0C3EF0FF0CDEC8A
:101F280018F0C3EF0FF02E503F0B466E476A47502C
:101F3800000AD8B4A2EF0FF0C3EF0FF04650000A22
:101F4800D8B48CEF0FF0C3EF0FF02E50C00B466ED5
:101F5800476A4750000AD8B4B4EF0FF0C3EF0FF048
:101F68004650000AD8B4C3EF0FF0400AD8B4C3EF04
:101F78000FF0C00AD8B47CEF0FF0C3EF0FF01200D7
:101F880006A6C9EF0FF0CBEF0FF0F5EF0FF005C085
:101F980004F006C003F020EE03F06F0078FF46F06F
:101FA8006F0074FF47F0D89047324632D8904732D6
:101FB8004632D8904732463246C003F047C004F054
:101FC80004502009046E06C046F0030E461603505E
:101FD800FC0B4610036E08C001F007C002F00DEFBD
:101FE80010F005C002F006C001F020EE01F06F000D
:101FF80078FF46F06F0074FF47F0050E486ED890E2
:1020080047324632482E03EF10F046C001F047C071
:1020180002F006A412EF10F014EF10F015EF10F014
:10202800048C06A81AEF10F01CEF10F01DEF10F04A
:10203800048E1200000E2A2400019D6F9E6B060E6E
:102048009E239F6B000E9F23A06B000EA0239DC0B4
:1020580005F09EC006F09FC007F0A0C008F078EC1D
:1020680010F001C09DF002C09EF003C09FF004C0B4
:10207800A0F0800E2A240001996F9A6B050E9A230E
:102088009B6B000E9B239C6B000E9C2399C005F054
:102098009AC006F09BC007F09CC008F078EC10F0DE
:1020A80001C099F002C09AF003C09BF004C09CF0F4
:1020B8006F003CFE2CF0400E306E9DC02FF09EC08D
:1020C80030F09FC031F0A0C032F0ADEC13F02EC05C
:1020D8001CF01C50D8B473EF10F075EF10F076EFC9
:1020E80010F027801B6A120008AA7DEF10F07FEF1E
:1020F80010F0A7EF10F020EE07F06F0078FF46F021
:102108006F0074FF47F0D89046364736D890463669
:102118004736D8904636473646C001F047C002F0E9
:1021280002C004F007C046F0030E46160150E00B4B
:1021380046100809026E04C001F005C004F006C08C
:1021480003F0C0EF10F005C046F006C047F0050EDA
:10215800D89046364736E82EACEF10F046C001F06E
:1021680047C002F0036A046A01C003F002C001F02C
:102178000350E00B026E036A08AEC5EF10F0C7EF1C
:1021880010F0C8EF10F0028808ACCDEF10F0CFEFD8
:1021980010F0D0EF10F00284120015507D0FD96EA8
:1021A800DA6ADF6A3D01F9A7DCEF10F0DEEF10F024
:1021B800F0EF10F015507D0FD96EDA6ADF8202D881
:1021C800F0EF10F00500FA6E0001C351FD6EC45126
:1021D800FE6EFF6AFA5012003D01F9A3F6EF10F007
:1021E800F8EF10F00AEF11F015507D0FD96EDA6A8A
:1021F800DF8402D80AEF11F00500FA6E0001C15120
:10220800FD6EC251FE6EFF6AFA50120015507D0F26
:10221800D96EDA6ADF50D8B414EF11F016EF11F066
:1022280025EF11F002D823EF11F00500FA6E000136
:10223800BF51FD6EC051FE6EFF6AFA50120027EFC3
:1022480011F0BAEC17F012003A50D8B42EEF11F092
:1022580030EF11F077EF11F03AA835EF11F037EFC2
:1022680011F061EF11F00E6A020E0D6E02D846EF02
:1022780011F00500FA6E3D50FD6E3E50FE6EFF6A8D
:10228800FA50120078EF11F00C50D96EDA6A6F002C
:1022980078FF46F06F0074FF47F03DC048F03EC03D
:1022A80049F033C04AF034C04BF055EC09F077EFF1
:1022B80011F0070E0E6E78EF11F03A50070B516EC1
:1022C800526A5250000AD8B46CEF11F05DEF11F069
:1022D8005150020AD8B448EF11F0010AD8B448EFB7
:1022E80011F05DEF11F00E6A120013680001FA6B2D
:1022F800FB6B010EF86FF76BF66B010EF96FEE6B67
:10230800D16BEF6BE76BF06BE86BF16BE96BF26B22
:10231800EA6BF36BEB6BF46BEC6BF56BED6B800EB0
:102328002A24056E066A010E0622076A000E072295
:10233800086AC00E082278EC10F001C0A5F002C0AF
:10234800A6F003C0A7F004C0A8F0000E2A24056E6A
:10235800066A020E0622076A000E0722086AC00EE5
:10236800082278EC10F001C0A9F002C0AAF003C05E
:10237800ABF004C0ACF0EE0E0001A46FE60EA26F45
:10238800080EA36F120085500F0B020AD8A4CFEFD6
:1023980011F0D1EF11F010EF12F087502A18D8B4CD
:1023A800D8EF11F0DAEF11F0F9EF11F08750D8A457
:1023B800E0EF11F0E2EF11F010EF12F0F9EF11F089
:1023C80029822994CFEC18F010EF12F02984E6EF57
:1023D80011F029922994E6EF11F0D0EC18F0CBEC2B
:1023E80018F0F5EC15F010EF12F08650010AD8B489
:1023F800E4EF11F0030AD8B4EAEF11F0820AD8B476
:10240800EDEF11F0010AD8B4F1EF11F0030AD8B4D6
:10241800F3EF11F010EF12F012003901A5A317EF36
:1024280012F019EF12F058EF12F0500E916E80AEC4
:1024380020EF12F022EF12F024EF12F04BEF12F01F
:102448003701F0AF2AEF12F02CEF12F030EF12F054
:10245800510E916E4BEF12F040AF35EF12F037EF9F
:1024680012F03BEF12F0520E916E4BEF12F050AF9C
:1024780040EF12F042EF12F046EF12F0530E916E59
:102488004BEF12F02E6A3901A59359EF12F06F0045
:1024980000FE46F00F0E461646508D0FD96EDA6ACA
:1024A800DF502E6E59EF12F02E6A12002BA25FEF4A
:1024B80012F061EF12F0A0EF12F0F80E0001B5274C
:1024C800FF0EB623FF0EB723B7BF76EF12F0B75152
:1024D800B61106E1B505D8B074EF12F076EF12F038
:1024E800A0EF12F02BB47BEF12F07DEF12F08EEF1D
:1024F80012F011C047F012C048F0496AB55147249C
:10250800B56FB6514820B66FB7514920B76F2486CA
:10251800A0EF12F01F500F026F00CCFF47F06F00C2
:10252800D0FF48F01002F350482647C0B5F048C025
:10253800B6F0B76BD0EC17F012002BA2A6EF12F092
:10254800A8EF12F0E7EF12F0F80E0001B527FF0E22
:10255800B623FF0EB723B7BFBDEF12F0B751B611C0
:1025680006E1B505D8B0BBEF12F0BDEF12F0E7EF0A
:1025780012F02BB4C2EF12F0C4EF12F0D5EF12F044
:1025880011C040F012C041F0426AB5514024B56F05
:10259800B6514120B66FB7514220B76F2486E7EF96
:1025A80012F01F500F026F00CCFF40F06F00D0FFF9
:1025B80041F01002F350412640C0B5F041C0B6F0DA
:1025C800B76BE2EC17F0120005EF13F0270E370196
:1025D800036F980E046F810E056F2DEF13F0410EF7
:1025E8003701036FBA0E046F070E056F2DEF13F056
:1025F800070E3701036F980E046F010E056F2DEF5C
:1026080013F00001DA51000AD8B4EAEF12F0010A17
:10261800D8B4F3EF12F0030AD8B4FCEF12F0010AB1
:10262800D8B4F3EF12F0070AD8B4F3EF12F0010AA6
:10263800D8B4F3EF12F0030AD8B4F3EF12F0010A9A
:10264800D8B4F3EF12F00F0AD8B4F3EF12F0EAEFB0
:1026580012F01200390193971A0E466E1E0E476E3D
:10266800ABEC18F039019399800E466E2C0E476E2C
:10267800A6EC18F03D01EC6BED6BEE6BEF6BF06BBD
:10268800F16BB00EF26F800EF36FF46B820EF56F84
:10269800060EF66FF76BF86BF96BFA6B400E466E29
:1026A800310E476EB5EC18F0340E466E310E476E9B
:1026B800B0EC18F00C0E466E310E476EBAEC18F0FE
:1026C8000001D26B186A176A080E166E156A146A2A
:1026D800D36B3901938712002D6A400E8F6E800EDE
:1026E8008F6EE8EC12F037013D6B806AF06B406B3F
:1026F800506B606B706B806B906B500E916E066BBD
:10270800076B306B316B110E326F220E336F330E45
:10271800346F440E356F550E366F660E376F770E71
:10272800386F3C6B3B6B3A6B396BB869E30EB96F2A
:10273800BA69BB69200E006F1C0E3F6F3E6900012D
:102748008D6B8E6B8F6B906B916B926B936B946BA5
:102758001200466A46508D0FD96EDA6ADF50D8A447
:10276800B8EF13F0BAEF13F0DEEF13F046508D0F09
:10277800D96EDA6A6000C3F0DFFF6F007CFF2EF0CD
:1027880020EE2FF04650040D000EF324E16E010EEA
:10279800F420E26E6F007BFFE6FF6F007BFFE6FF31
:1027A8006F007BFFE6FF6F007BFFE6FF010E2D6EDB
:1027B800E8EF13F0462A070E4664E5EF13F0E7EF5B
:1027C80013F0AEEF13F02E6A120012EF14F099C056
:1027D80005F09AC006F09BC007F09CC008F0C4EC56
:1027E8000FF00C50D96EDA6A6F0078FF49F06F006D
:1027F80074FF4AF0600027F1D9FF60002BF1DAFF7F
:10280800600007F0DEFF60000BF0DEFF60000FF0F5
:10281800DEFF600013F0DEFF23EF14F00D50496E69
:102828004A6A4A50000AD8B41CEF14F023EF14F097
:102838004950010AD8B4EBEF13F023EF14F012005B
:102848004DEF14F09DC005F09EC006F09FC007F044
:10285800A0C008F0C4EC0FF00C50D96EDA6A6F0013
:1028680078FF49F06F0074FF4AF0600027F1D9FF44
:1028780060002BF1DAFF600007F0DEFF60000BF06C
:10288800DEFF60000FF0DEFF600013F0DEFF5EEF9A
:1028980014F00D50496E4A6A4A50000AD8B457EFEE
:1028A80014F05EEF14F04950010AD8B426EF14F082
:1028B8005EEF14F0120029A064EF14F066EF14F034
:1028C80099EF14F02550D8B46CEF14F06EEF14F0B3
:1028D80077EF14F025A073EF14F075EF14F077EF8D
:1028E80014F0CEEC18F02850D8B47DEF14F07FEF38
:1028F80014F088EF14F028A684EF14F086EF14F093
:1029080088EF14F05AEC12F02750D8B48EEF14F078
:1029180090EF14F099EF14F027A095EF14F097EFCB
:1029280014F099EF14F0C6EC16F0120029A09FEFEE
:1029380014F0A1EF14F0D4EF14F02550D8B4A7EF99
:1029480014F0A9EF14F0B2EF14F025A0AEEF14F0D4
:10295800B0EF14F0B2EF14F0D4EC18F02850D8B45B
:10296800B8EF14F0BAEF14F0C3EF14F028A6BFEFD5
:1029780014F0C1EF14F0C3EF14F0A1EC12F02750DB
:10298800D8B4C9EF14F0CBEF14F0D4EF14F027A0AB
:10299800D0EF14F0D2EF14F0D4EF14F0E4EC16F00A
:1029A800120035EC18F0D28E380E466E2C0E476E9B
:1029B800BFEC18F0C7EC18F0120E0001956F000E6E
:1029C800966F000E976F000E986F020E2A6ED96BE5
:1029D800126A100E116E106A000E0F6E1F6A79ECE3
:1029E80011F0F5EC15F02990298229946BEC18F078
:1029F800050E586E0F0E576EF10EE82EFED7572EA5
:102A0800FCD7582EFAD70000FAEF14F00DEF00F0BB
:102A18001350D8A412EF15F014EF15F020EF15F0AD
:102A28000001D0A51AEF15F01CEF15F020EF15F0F6
:102A3800D095D0813DEF15F01350D8B426EF15F09E
:102A480028EF15F03DEF15F0F10E13602EEF15F09D
:102A580030EF15F03DEF15F00001CF07CF51D8A4A6
:102A680038EF15F03AEF15F03DEF15F013C0CFF041
:102A7800D08112003701E0B744EF15F046EF15F0AA
:102A88004EEF15F0430E916E30C0B8F0B8C02EF07E
:102A98006DEF15F0D0B753EF15F055EF15F05DEF6A
:102AA80015F0440E916E30C0B9F0B9C02EF06DEF3C
:102AB80015F0C0B762EF15F064EF15F06CEF15F084
:102AC800450E916E30C0BAF0BAC02EF06DEF15F019
:102AD8002E6A1200BA6ABB6ABC6AC268EA0EC36E82
:102AE8003F0EC46E3F0E3A01606FF50E506F40699D
:102AF800816B516B416B616B426B526BFE0E626F67
:102B0800436953696369446954696469080E846F49
:102B1800170EE46F130E086F330E0A6F0B0EED6F6E
:102B2800210E166F090EE76F220E176F160EE36F50
:102B380012003701E0AFA3EF15F0A5EF15F0ACEFE9
:102B480015F0430E916EE09FB8C02EF0C9EF15F056
:102B5800D0AFB1EF15F0B3EF15F0BAEF15F0440EA2
:102B6800916EE09FB9C02EF0C9EF15F0C0AFBFEF6E
:102B780015F0C1EF15F0C8EF15F0450E916EE09F06
:102B8800BAC02EF0C9EF15F02E6A12002BA4CFEFB1
:102B980015F0D1EF15F0F4EF15F085ACD6EF15F080
:102BA800D8EF15F0F4EF15F085500F0BE806D8A410
:102BB800E0EF15F0E2EF15F0F4EF15F024861F5062
:102BC8000F026F00CCFF46F06F00D0FF47F01002F5
:102BD800F350472646C0B5F047C0B6F00001B76BC2
:102BE8001200296A286A276A266A256A246A236ADB
:102BF800226A0001D86BD76BD66BD9C0DAF070ECBB
:102C080013F070EC17F01EEC17F01EEC10F089ECC6
:102C18000CF055EC17F02580E2EC05F08F6A2B805C
:102C2800306A3EEC15F0AFEC0EF080862980120079
:102C3800D3AE21EF16F0A7EF16F022B026EF16F06C
:102C480028EF16F03DEF16F00001EE2BEE81228002
:102C5800BBB831EF16F034EF16F0010E35EF16F071
:102C6800000EFF0A4A6E4A3ABB504A18EF0B4A1840
:102C7800BB6E5FEC14F01200D3AE45EF16F088EF90
:102C880016F0080E16604BEF16F04DEF16F061EFD8
:102C980016F01750850FD96EDA6ADF503D01EA6FDA
:102CA800172A070E17645BEF16F05DEF16F05EEF5C
:102CB80016F0176A162A63EF16F039019399120075
:102CC800476A47508D0FD96EDA6A3050DE18D8A49B
:102CD80070EF16F072EF16F07DEF16F047508D0F7B
:102CE800D96EDA6ADF6A010E2D6E010E2E6E87EF3D
:102CF80016F0472A070E476484EF16F086EF16F0A1
:102D080065EF16F02E6A1200080E16608EEF16F0A8
:102D180090EF16F0A4EF16F01750850FD96EDA6A07
:102D2800DF503D01EA6F172A070E17649EEF16F071
:102D3800A0EF16F0A1EF16F0176A162AA6EF16F004
:102D480039019399120022B0ACEF16F0AEEF16F0ED
:102D5800C3EF16F00001EE2BEE812280BBB8B7EF6F
:102D680016F0BAEF16F0010EBBEF16F0000EFF0AD0
:102D7800436E433ABB504318EF0B4318BB6E9AECB3
:102D880014F012001BAACBEF16F0CDEF16F0E3EF0C
:102D980016F0080E0001CB5F000ECC5BCCBFDFEF56
:102DA80016F0CC5106E1CB05D8B0DDEF16F0DFEF19
:102DB80016F0E3EF16F01B6A020E1A6E238012005B
:102DC8001BAAE9EF16F0EBEF16F001EF17F0080E6B
:102DD8000001CB5F000ECC5BCCBFFDEF16F0CC51F1
:102DE80006E1CB05D8B0FBEF16F0FDEF16F001EFCA
:102DF80017F01B6A020E1A6E23801200600097F209
:102E080081FF60009BF282FF60009FF283FF6000F9
:102E1800A3F284FF0001A451D96EDA6A1FEE86F38B
:102E2800070E6F006FFFE3FFE806FBE260008FF21A
:102E380085FF12006F003CFE2CF0020E306E95C02C
:102E48002FF096C030F097C031F098C032F0ADEC5A
:102E580013F02EC0D4F00001D451D8B436EF17F0D7
:102E680038EF17F039EF17F02882120000EE00F162
:102E7800400EEE6AE806FDE100EE60F09D0EEE6A97
:102E8800E806FDE100EE01F03E0EEE6AE806FDE11F
:102E9800080ED56E000ED66E000ED76E0001D5EF67
:102EA80014F06F003CFE2CF0800E306EA9C02FF09D
:102EB800AAC030F0ABC031F0ACC032F0ADEC13F0CA
:102EC8002EC01DF01D50D8B46CEF17F06EEF17F040
:102ED8006FEF17F0268012006F003CFE2CF0010EF9
:102EE800306E000E2F6E000E306E000E316E000E2A
:102EF800326EADEC13F02EC021F02150D8B487EF1C
:102F080017F089EF17F08AEF17F0288012003901BF
:102F1800A39F0001BB51BC11D8B495EF17F097EFF0
:102F280017F0A3EF17F002D8A3EF17F00500FA6E19
:102F3800BB51FD6EBC51FE6EFF6AFA5012001200C2
:102F4800200E1524D96EDA6A010EDA226F00A3F773
:102F5800DFFF152A070E1564B4EF17F0B6EF17F068
:102F6800B7EF17F0156A0001D32B1200200E1524B5
:102F7800D96EDA6A010EDA226F00A3F7DFFF152A8D
:102F8800070E1564CAEF17F0CCEF17F0CDEF17F066
:102F9800156A0001D32B1200BBB8D5EF17F0D8EF94
:102FA80017F0010ED9EF17F0000EFF0A466E463AE9
:102FB800BB504618EF0B4618BB6E1200BBB8E7EFC4
:102FC80017F0EAEF17F0010EEBEF17F0000EFF0A0B
:102FD8003F6E3F3ABB503F18EF0B3F18BB6E1200D5
:102FE8004E0EB96EF30EB76EB66A3901A39F938F72
:102FF8001C0E466E310E476EBFEC18F0800EB86E90
:103008001200200E3901D96FDB6BDD6B020EDF6F0A
:10301800DE6BDCA112EF18F014EF18F00DEF18F0CA
:1030280012002FEE86F30001A251E16EE26A070E4C
:103038006F006FFFE3FFE806FBE285500F0BA16FFF
:10304800120002D832EF18F00500FA6E0001BD51E7
:10305800FD6EBE51FE6EFF6AFA5012003901A59D41
:103068001200C9EC18F061EC18F053EC18F06EEC93
:1030780015F005EC18F0F4EC17F02EEC13F0120034
:103088006F0014FE46F00F0E4616D8A44EEF18F047
:1030980050EF18F052EF18F00CEC15F01200040E77
:1030A8003D01736F800E746F180E756F030E7B6F82
:1030B800796B7A6B766B6C6912003901C06BC16BE6
:1030C800C26BC36BC46BC56BC66BC76B1200E2ECFB
:1030D80005F0F0EC06F0FEEC09F069EC0FF01200D8
:1030E8006F003CFE2CF0D4C030F064EC16F028924F
:1030F80012006F003CFE2CF01DC030F064EC16F09E
:1031080026901200D3AE8BEF18F0C4EF18F0A4ECA1
:1031180017F01200D3AE93EF18F0D3EF18F01200A7
:10312800D3AE99EF18F0D5EF18F01200D3AE9FEF99
:1031380018F0D1EF18F01200D3AEA5EF18F0D2EFC7
:1031480018F0120046C0C5F047C0C6F0120046C0CD
:10315800C7F047C0C8F0120046C0C1F047C0C2F06F
:10316800120046C0C3F047C0C4F0120046C0BFF00A
:1031780047C0C0F0120046C0BBF047C0BCF0120008
:10318800BAEC17F01200B88E1200D29A1200FF00A3
:103198001200120012001200120012001200120097
:0431A80012001200FF
:10FD2C0000000000000000000000000000000000C7
:10FD3C0000000000000000000000000000000000B7
:10FD4C0000000000000000001000050400F6FF0198
:10FD5C001000010100FC000210000104003C010530
:10FD6C001000130400201808100005180003FF09E8
:10FD7C001000050400D1FF0A1000050400CCFF0C94
:10FD8C00100013020022160D100013010028171783
:10FD9C0010001302001C15181000050100FEFF18BE
:10FDAC001001050400F2FF181002050400EEFF1804
:10FDBC001003050400EAFF181004050400E6FF0018
:10FDCC006000010100EE00026000050100FCFF0272
:10FDDC006001030100FB00036000050100FCFF0350
:10FDEC006001030100FA00056000050100FCFF053D
:10FDFC006001030100F900066000050100FCFF062C
:10FE0C006001030100F800076000050100FCFF071A
:10FE1C006001030100F700086000050100FCFF0809
:10FE2C006001030100F600006200030100E600001F
:10FE3C001A00050100FBFF001A01050400DAFF009F
:10FE4C001A02050400DEFF001A03050400DEFF00A1
:10FE5C001A04050400DEFF001A05050400DEFF008D
:10FE6C001A06050400DEFF001A07050400DEFF0079
:10FE7C001A08050400DEFF001600050100FBFF0058
:10FE8C001601050400E2FF001602050400DEFF0067
:10FE9C001603050400DEFF001604050400DEFF0057
:10FEAC001605050400DEFF001606050400DEFF0043
:10FEBC001607050400DEFF001608050400DEFF012E
:10FECC000000260100D6FF020000260100D6FF0329
:10FEDC000000260200D6FF040000260400D6FF0511
:10FEEC000000260100D6FF060000260200D6FF0700
:10FEFC000000260400D6FF4D6963726F6368697059
:10FF0C002043414E6F70656E2044657669636500D1
:10FF1C00001800050100FAFF001801130400181165
:10FF2C000018021301008E1C001200050100FDFFD9
:10FF3C000012011104004828001202110400D227FB
:10FF4C00009000000100D6FF009000000100D6FFD9
:10FF5C00008000000100D6FF008000000100D6FFE9
:10FF6C00007000000100D6FF007000000100D6FFF9
:10FF7C00005000000100D6FF005000000100D6FF29
:10FF8C00004000000100D6FF004000000100D6FF39
:10FF9C00003000000100D6FF003000000100D6FF49
:10FFAC00002000000100D6FF002000000100D6FF59
:10FFBC00001400050100FCFF0014011304007E0F67
:10FFCC0056312E300056312E300000000000080152
:10FFDC000060080000000801006221436587785624
:10FFEC00341221436587785634124A93080002086C
:04FFFC0001030400F9
:020000040020DA
:10000000FF0FFF0FFF0FFF0FFF0FFF0FFF0FFF0F80
:020000040030CA
:0A000000AAFFF7FF9FFFFFFFFFFFBD
:00000001FF
