:040000000DEF00F010
:04000800DDEF0DF02B
:10001800FF00CFEF16F085500F0B080AD8A417EF92
:1000280000F019EF00F080EF02F01C6A6F0018FE74
:100038001BF05EEF02F01DAA24EF00F026EF00F09F
:1000480080EF02F01DAC2BEF00F02DEF00F080EFF9
:1000580002F01D501B18556E55A835EF00F037EF0C
:1000680000F03DEF00F01D6A010E1C6E258080EF48
:1000780002F02FEE87F3280E3824E16E010E3920A6
:10008800E26E060E6F006FFFE3FFE806FBE21B302F
:10009800070BFF0A556E070E551655503826000EE9
:1000A800392238503E5C39503F58D8B05EEF00F0E6
:1000B80060EF00F065EF00F01D6A0E0E1C6E3AEF5F
:1000C80000F01DB86AEF00F06DEF00F0010E6EEF62
:1000D80000F0000EFF0A556E553A1D505518EF0BEB
:1000E80055181D6E1B502009F00B0001DB6F1BA07B
:1000F80080EF00F082EF00F03AEF00F0280E346E47
:10010800010E356E340E0C6E28EC11F01D6A0EC00F
:100118001CF03AEF00F01D9A6F001CFE3AF03AC04E
:10012800DCF06F0020FE3BF03BC0DDF06F0024FEEA
:100138003CF03CC0DEF00001DF6BE06BE16BE26B92
:10014800340E0C6E4EEC04F00E50D8A4AEEF00F056
:10015800B0EF00F02CEF01F03DA2B5EF00F0B7EFE3
:1001680000F028EF01F01BA2BCEF00F0BEEF00F09A
:10017800F2EF00F01BA0C3EF00F0C5EF00F0D4EFE2
:1001880000F01B30E832030BFF0A556E030E5516BC
:10019800010E5524366E376A000E3722D8EF00F06C
:1001A8003EC036F03FC037F03E50361807E13F50AA
:1001B8003718D8A4E2EF00F0E4EF00F061EF00F0A8
:1001C8001D6A8A0E346E3F0E356E340E0C6E28ECA6
:1001D80011F0600E0001DB6F8BEF00F01BA0F7EF52
:1001E80000F0F9EF00F015EF01F08C508D100009C8
:1001F800D8B401EF01F003EF01F005EF01F061EF72
:1002080000F02FEE8AF3DE503E1809E1DE503F1869
:10021800D8B411EF01F013EF01F015EF01F061EF21
:1002280000F03EC036F03FC037F01D8A1D8C1D9887
:10023800396A000E386E010E0001CC6FF40ECB6FD8
:10024800600EDB6F3AEF00F0070E1C6E3AEF00F01D
:100258000EC01CF0258080EF02F01D9A6F001CFE76
:100268003AF03AC0DCF06F0020FE3BF03BC0DDF016
:100278006F0024FE3CF03CC0DEF00001DF6BE06B59
:10028800E16BE26B340E0C6E4EEC04F00E50D8A409
:1002980050EF01F052EF01F02CEF01F03DA057EFC5
:1002A80001F059EF01F0ADEF01F0396A000E386E38
:1002B8001D6A3F5009E1050E3E5CD8A066EF01F0CB
:1002C80068EF01F08DEF01F0010E0001CC6FF40E24
:1002D800CB6F1D8ADF0E346E356A3EC0DFF03FC03B
:1002E800E0F0410EDB6F3AEF00F04F0E0001DB6FDC
:1002F800A0EF01F04B0E0001DB6FA0EF01F0470EFD
:100308000001DB6FA0EF01F0430E0001DB6FA0EFEF
:1003180001F03E50010AD8B479EF01F0030AD8B4CD
:100328007EEF01F0010AD8B483EF01F0070AD8B4D0
:1003380088EF01F0A0EF01F03EC036F03FC037F083
:10034800DF0E346E356A340E0C6EFDEC0CF08BEF5C
:1003580000F0060E1C6E3AEF00F01DAAB6EF01F091
:10036800B8EF01F080EF02F01DBCBDEF01F0BFEF68
:1003780001F080EF02F01D501B18556E55A8C7EF0D
:1003880001F0C9EF01F0CBEF01F037EF00F0DC0E20
:10039800346E356A38503E5C0001C96F39503F5899
:1003A800CA6FCA5109E1080EC95DD8A0DEEF01F095
:1003B800E0EF01F0E6EF01F0DB6B376A070E366E0F
:1003C80039EF02F01D6A1AEF02F00D0EDB6F376A83
:1003D800010E366E39EF02F00B0EDB6F376A020E34
:1003E800366E39EF02F0090EDB6F376A030E366E90
:1003F80039EF02F0070EDB6F376A040E366E39EFFD
:1004080002F0050EDB6F376A050E366E39EF02F023
:10041800030EDB6F376A060E366E39EF02F0010EF7
:10042800DB6F376A070E366E39EF02F0C951010AE1
:10043800D8B4E9EF01F0030AD8B4F0EF01F0010AEB
:10044800D8B4F7EF01F0070AD8B4FEEF01F0010ABB
:10045800D8B405EF02F0030AD8B40CEF02F0010A91
:10046800D8B413EF02F039EF02F0DB99340E0C6EBA
:10047800FDEC0CF020EE36F0DE503826DD50392247
:100488001DB849EF02F04CEF02F0010E4DEF02F0FB
:10049800000EFF0A556E553A1D505518EF0B5518AA
:1004A8001D6E8BEF00F01D6A80EF02F0030E1C6ECC
:1004B8003AEF00F01B50E00B556E566A5650000A92
:1004C800D8B469EF02F05AEF02F05550000AD8B4D8
:1004D8001FEF00F0200AD8B48FEF00F0600AD8B4FC
:1004E80031EF01F0200AD8B4B1EF01F0E00AD8B436
:1004F80057EF02F05AEF02F01200600067F281FF36
:1005080060006BF282FF60006FF283FF600073F29D
:1005180084FF080E856E1C50D8A495EF02F097EF63
:1005280002F0A3EF02F020EEDBF01FEE86F3070ED9
:100538006F006FFFE3FFE806FBE24DEF04F0800E6B
:10054800866E6000EBF087FF6000EFF088FF6000C8
:10055800F3F089FFDCEF03F02FEE8AF3000EDE6E76
:10056800000EDE6E030EDE6E050EDD6E4DEF04F03E
:100578002FEE8AF3000EDE6E000EDE6E040EDE6EC7
:10058800050EDD6E4DEF04F02FEE8AF3010EDE6EE0
:10059800000EDE6E040EDE6E050EDD6E4DEF04F00D
:1005A8002FEE8AF3050EDE6E000EDE6E040EDE6E92
:1005B800050EDD6E4DEF04F02FEE8AF3000EDE6EB1
:1005C800000EDE6E010EDE6E060EDD6E4DEF04F0DF
:1005D8002FEE8AF3010EDE6E000EDE6E010EDE6E69
:1005E800060EDD6E4DEF04F02FEE8AF3020EDE6E7E
:1005F800000EDE6E010EDE6E060EDD6E4DEF04F0AF
:100608002FEE8AF3000EDE6E000EDE6E020EDE6E38
:10061800060EDD6E4DEF04F02FEE8AF3410EDE6E0E
:10062800000EDE6E040EDE6E060EDD6E4DEF04F07B
:100638002FEE8AF3420EDE6E000EDE6E040EDE6EC4
:10064800060EDD6E4DEF04F02FEE8AF3430EDE6EDC
:10065800000EDE6E040EDE6E060EDD6E4DEF04F04B
:100668002FEE8AF3470EDE6E000EDE6E040EDE6E8F
:10067800060EDD6E4DEF04F02FEE8AF3000EDE6EEF
:10068800000EDE6E060EDE6E060EDD6E4DEF04F019
:100698002FEE8AF3100EDE6E000EDE6E070EDE6E93
:1006A800060EDD6E4DEF04F02FEE8AF3120EDE6EAD
:1006B800000EDE6E070EDE6E060EDD6E4DEF04F0E8
:1006C8002FEE8AF3130EDE6E000EDE6E070EDE6E60
:1006D800060EDD6E4DEF04F02FEE8AF3110EDE6E7E
:1006E800000EDE6E090EDE6E060EDD6E4DEF04F0B6
:1006F8002FEE8AF3300EDE6E000EDE6E090EDE6E11
:10070800060EDD6E4DEF04F02FEE8AF3310EDE6E2D
:10071800000EDE6E090EDE6E060EDD6E4DEF04F085
:100728002FEE8AF3320EDE6E000EDE6E090EDE6EDE
:10073800060EDD6E4DEF04F02FEE8AF3360EDE6EF8
:10074800000EDE6E090EDE6E060EDD6E4DEF04F055
:100758002FEE8AF3000EDE6E000EDE6E000EDE6EE9
:10076800080EDD6E4DEF04F02FEE8AF3200EDE6EDC
:10077800000EDE6E000EDE6E080EDD6E4DEF04F02C
:100788002FEE8AF3210EDE6E000EDE6E000EDE6E98
:10079800080EDD6E4DEF04F02FEE8AF3220EDE6EAA
:1007A800000EDE6E000EDE6E080EDD6E4DEF04F0FC
:1007B8001C50486E496A4950000AD8B4E6EF03F065
:1007C8004DEF04F04850010AD8B4B0EF02F0030A24
:1007D800D8B4BCEF02F0010AD8B4C8EF02F0070A97
:1007E800D8B4D4EF02F0010AD8B4E0EF02F0030A5B
:1007F800D8B4ECEF02F0010AD8B4F8EF02F00F0A0F
:10080800D8B404EF03F0010AD8B410EF03F0030AD8
:10081800D8B41CEF03F0010AD8B428EF03F0070A94
:10082800D8B434EF03F0010AD8B440EF03F0030A58
:10083800D8B44CEF03F0010AD8B458EF03F01F0AFC
:10084800D8B464EF03F0010AD8B470EF03F0030AD8
:10085800D8B47CEF03F0010AD8B488EF03F0070A94
:10086800D8B494EF03F0010AD8B4A0EF03F0030A58
:10087800D8B4ACEF03F0010AD8B4B8EF03F00F0A0C
:10088800D8B4C4EF03F0010AD8B4D0EF03F04DEFA9
:1008980004F012003AC009F03BC00AF03CC00BF06B
:1008A80015EF05F0CB0E0001CD6FFE0ECE6F070ED3
:1008B800D36F4BEF05F0AC0E0001CD6FFF0ECE6F7E
:1008C800020ED36F4BEF05F09C0E0001CD6FFF0EAB
:1008D800CE6F64EF04F08C0E0001CD6FFF0ECE6F6B
:1008E80064EF04F07C0E0001CD6FFF0ECE6F64EF55
:1008F80004F0CB0E0001CD6FFD0ECE6F0E0ED36F40
:100908004BEF05F06C0E0001CD6FFF0ECE6F64EF5C
:1009180004F05C0E0001CD6FFF0ECE6F64EF04F0A3
:100928004C0E0001CD6FFF0ECE6F64EF04F0530E36
:100938000001CD6FFD0ECE6F0F0ED36F4BEF05F09C
:10094800340E0001CD6FFF0ECE6F030ED36F4BEF49
:1009580005F00950D8A4B3EF04F0B5EF04F0BCEFEC
:1009680004F0BC0E0001CD6FFF0ECE6F64EF04F0F3
:10097800080E0E6EE1EF05F00950D8A4C6EF04F09A
:10098800C8EF04F0BCEF04F0830E0001CD6FFE0E3B
:10099800CE6F090ED36F4BEF05F00950D8A4D7EFEF
:1009A80004F0D9EF04F0BCEF04F01C0E0001CD6F89
:1009B800FF0ECE6FA9EF04F00950D8A4E6EF04F0BB
:1009C800E8EF04F0BCEF04F03B0E0001CD6FFE0E23
:1009D800CE6FCDEF04F00A500F0B536E546A54508B
:1009E800000AD8B4FAEF04F0BCEF04F05350000A40
:1009F800D8B49BEF04F0020AD8B4A4EF04F0060AB6
:100A0800D8B4ADEF04F0020AD8B4C0EF04F00E0A6F
:100A1800D8B4D1EF04F0020AD8B4E0EF04F0BCEF88
:100A280004F00A50F00B536E546A5450000AD8B4BC
:100A380020EF05F0BCEF04F05350000AD8B456EF8D
:100A480004F0100AD8B4EFEF04F0300AD8B45FEF1E
:100A580004F0100AD8B468EF04F0700AD8B46FEF45
:100A680004F0100AD8B476EF04F0300AD8B47DEF59
:100A780004F0100AD8B486EF04F0F00AD8B48DEF69
:100A880004F0100AD8B494EF04F0BCEF04F0080E98
:100A98000E6E600037F3F6FF60003BF3F7FFF86A6D
:100AA80009006F00D4FFB1F009006F00D4FFB2F065
:100AB80009006F00D4FFB3F00A006F00D4FFB4F050
:100AC800D9EF05F0B2510A18D8A46DEF05F06FEF11
:100AD80005F0BDEF05F0B1510918D8A476EF05F07F
:100AE80078EF05F0BDEF05F0110E0E6EB3510B183F
:100AF800D8B481EF05F083EF05F08AEF05F0B4ADC7
:100B080088EF05F08AEF05F0BDEF05F0600037F3D8
:100B1800F6FF60003BF3F7FFF86A20EE3AF0070EA5
:100B280009006F00D7FFDEFFE806FAE2B4AD9FEFD9
:100B380005F0A1EF05F0A3EF05F00BC03CF0B4A958
:100B4800A8EF05F0AAEF05F0BAEF05F00E6A0D6AF6
:100B580002D8B8EF05F00500FA6E4050FD6E41501E
:100B6800FE6EFF6AFA501200E1EF05F00E6AE1EF3F
:100B780005F0080ECD27000ECE23D307600037F30B
:100B8800F6FF60003BF3F7FFF86A09006F00D4FF37
:100B9800B1F009006F00D4FFB2F009006F00D4FF74
:100BA800B3F00A006F00D4FFB4F0D351D8A4DFEF3C
:100BB80005F0E1EF05F066EF05F012002F50D8B40C
:100BC800E8EF05F0EAEF05F0EFEF06F0E4EF06F0E6
:100BD8008EAEF1EF05F0F3EF05F0D1EF06F000016E
:100BE8008D51D8B4FAEF05F0FCEF05F00CEF06F0E4
:100BF800600003F4A0F7600007F4A1F760000BF4AD
:100C0800A2F760000FF4A3F7370106810EEF06F094
:100C18003701069100018E51D8B415EF06F017EF91
:100C280006F027EF06F0600013F4A4F7600017F44D
:100C3800A5F760001BF4A6F760001FF4A7F73701BB
:100C4800068329EF06F03701069300018F51D8B4C7
:100C580030EF06F032EF06F042EF06F0600023F4C2
:100C6800A8F7600027F4A9F760002BF4AAF7600042
:100C78002FF4ABF73701068544EF06F037010695E8
:100C880000019051D8B44BEF06F04DEF06F05DEF40
:100C980006F0600033F4ACF7600037F4ADF760009D
:100CA8003BF4AEF760003FF4AFF7370106875FEF1C
:100CB80006F03701069700019151D8B466EF06F0A7
:100CC80068EF06F078EF06F0600043F4B0F76000D4
:100CD80047F4B1F760004BF4B2F760004FF4B3F794
:100CE800370106897AEF06F037010699000192511B
:100CF800D8B481EF06F083EF06F093EF06F06000BA
:100D080053F4B4F7600057F4B5F760005BF4B6F736
:100D180060005FF4B7F73701068B95EF06F03701EF
:100D2800069B00019351D8B49CEF06F09EEF06F0A5
:100D3800AEEF06F0600063F408F7600067F409F7A7
:100D480060006BF40AF760006FF40BF73701068D4B
:100D5800B0EF06F03701069D00019451D8B4B7EF03
:100D680006F0B9EF06F0C9EF06F0600073F40CF76F
:100D7800600077F40DF760007BF40EF760007FF4F5
:100D88000FF73701068FCBEF06F03701069F2F6A62
:100D98006000BBF08FFFEFEF06F0800E8F6EEFEF75
:100DA80006F08FAEDAEF06F0DCEF06F0D1EF06F0D2
:100DB800E8EC12F02F6A6000BBF08FFFEFEF06F04F
:100DC8002F50010AD8B4ECEF05F0030AD8B4D5EFD8
:100DD80006F0EFEF06F0120011EC12F02BA0F7EF7F
:100DE80006F0F9EF06F0BEEF07F03150D8B4FFEF88
:100DF80006F001EF07F0BEEF07F0A1EF07F02AA019
:100E080008EF07F00AEF07F0BBEF07F0C7EC11F0A7
:100E1800BBEF07F02AA213EF07F015EF07F0BBEFBF
:100E280007F02BB41AEF07F01CEF07F0BBEF07F041
:100E3800F2EC17F0BBEF07F02AA625EF07F027EF33
:100E480007F0BBEF07F0BEEC15F0BBEF07F0315031
:100E58003F0B576E586A5850000AD8B436EF07F05F
:100E6800BBEF07F05750010AD8B403EF07F0030AA5
:100E7800D8B40EEF07F0060AD8B420EF07F0BBEF9E
:100E880007F02BB44AEF07F04CEF07F0BBEF07F081
:100E980059EF07F029A053EF07F055EF07F0BBEF24
:100EA80007F00FEC00F0BBEF07F031503F0B576E27
:100EB800586A5850000AD8B464EF07F0BBEF07F03F
:100EC8005750000AD8B44EEF07F0BBEF07F02BB429
:100ED80070EF07F072EF07F0BBEF07F02BA277EF88
:100EE80007F079EF07F0BBEF07F08FEF07F028A0C6
:100EF80080EF07F082EF07F0BBEF07F00001D4B1F5
:100F080088EF07F08AEF07F0BBEF07F0D481C3EC56
:100F180017F0BBEF07F031503F0B576E586A585027
:100F2800000AD8B49AEF07F0BBEF07F05750000A51
:100F3800D8B47BEF07F0BBEF07F03150C00B576E0A
:100F4800586A5850000AD8B4ACEF07F0BBEF07F066
:100F58005750000AD8B42BEF07F0400AD8B445EF31
:100F680007F0C00AD8B46BEF07F0BBEF07F0809E1C
:100F78003901A593120072EF08F0A9C005F0AAC0C4
:100F880006F0ABC007F0ACC008F0C4EC0FF00C5092
:100F9800D96EDA6A6F0078FF4BF06F0074FF4CF07F
:100FA80060002FF1D9FF600033F1DAFF600007F02D
:100FB800DEFF60000BF0DEFF60000FF0DEFF600078
:100FC80013F0DEFF8BEF08F00C50D96EDA6A6F0071
:100FD80078FF4BF06F0074FF4CF060002FF1D9FFE1
:100FE800600033F1DAFF6F0078FF05F06F0078FFDB
:100FF80006F06F0078FF07F06F0078FF08F078ECD4
:1010080010F002A80AEF08F00CEF08F041EF08F022
:101018000001A95101184B6EAA5102184C6EAB5130
:1010280003184D6EAC5104184E6EFF0E4B144F6EE4
:10103800EF0E4C14506EFF0E4D14516EFF0E4E14F1
:10104800526E4F50501051105210D8A42EEF08F085
:1010580030EF08F03DEF08F028A035EF08F037EF43
:1010680008F039EF08F036EC18F00001AA898BEF88
:1010780008F0120E0E6E8BEF08F00001A95101184E
:101088004B6EAA5102184C6EAB5103184D6EAC5101
:1010980004184E6EFF0E4B144F6EEF0E4C14506E2C
:1010A800FF0E4D14516EFF0E4E14526E4F505010DD
:1010B80051105210D8A463EF08F065EF08F03DEF27
:1010C80008F028B06AEF08F06CEF08F06EEF08F04F
:1010D80005EC17F00001AA998BEF08F00D504B6E44
:1010E8004C6A4C50000AD8B47CEF08F08BEF08F03B
:1010F8004B50000AD8B48BEF08F0010AD8B4C1EFFE
:1011080007F0030AD8B4E8EF07F08BEF08F01200F5
:101118003BEF09F0A5C005F0A6C006F0A7C007F090
:10112800A8C008F0C4EC0FF00C50D96EDA6A6F0052
:1011380078FF4BF06F0074FF4CF060002FF1D9FF7F
:10114800600033F1DAFF600007F0DEFF60000BF0AB
:10115800DEFF60000FF0DEFF600013F0DEFF54EFEB
:1011680009F00C50D96EDA6A6F0078FF4BF06F0007
:1011780074FF4CF060002FF1D9FF600033F1DAFF03
:101188006F0078FF05F06F0078FF06F06F0078FFBA
:1011980007F06F0078FF08F078EC10F002A8D7EF9E
:1011A80008F0D9EF08F00CEF09F00001A55101187B
:1011B8004B6EA65102184C6EA75103184D6EA851DC
:1011C80004184E6EFF0E4B144F6EEF0E4C14506EFB
:1011D800FF0E4D14516EFF0E4E14526E4F505010AC
:1011E80051105210D8A4FBEF08F0FDEF08F008EFFB
:1011F80009F027A002EF09F004EF09F005EF09F064
:101208002790A68954EF09F0120E0E6E54EF09F0DC
:101218000001A55101184B6EA65102184C6EA7513A
:1012280003184D6EA85104184E6EFF0E4B144F6EE6
:10123800EF0E4C14506EFF0E4D14516EFF0E4E14EF
:10124800526E4F50501051105210D8A42EEF09F082
:1012580030EF09F008EF09F027B035EF09F037EF64
:1012680009F038EF09F02780A69954EF09F00D50DE
:101278004B6E4C6A4C50000AD8B445EF09F054EF55
:1012880009F04B50000AD8B454EF09F0010AD8B459
:101298008EEF08F0030AD8B4B5EF08F054EF09F060
:1012A8001200F4EF09F04D5007E1040E4C5CD8B081
:1012B80060EF09F062EF09F07AEF09F0600023F1BE
:1012C800D9FF600027F1DAFF60002BF1E1FF600031
:1012D8002FF1E2FF6F007FFFE7FF4A4A4B2A484A97
:1012E800492A4C06D8A04D06F4EF09F04D5007E105
:1012F800080E4C5CD8B083EF09F085EF09F0ABEF2E
:1013080009F0600023F1D9FF600027F1DAFF6000DF
:101318002BF1E1FF60002FF1E2FF6F007BFFE6FF9A
:101328006F007BFFE6FF6F007BFFE6FF6F007BFF30
:10133800E6FF040E4A26000E4B22040E4826000E35
:101348004922040E4C5E000E4D5AF4EF09F04D5040
:1013580007E1100E4C5CD8B0B4EF09F0B6EF09F015
:10136800D6EF09F0600023F1D9FF600027F1DAFF1A
:1013780060002BF1E1FF60002FF1E2FF070E6F0024
:101388006FFFE3FFE806FBE2080E4A26000E4B2239
:10139800080E4826000E4922080E4C5E000E4D5AD3
:1013A800F4EF09F0600023F1D9FF600027F1DAFFBC
:1013B80060002BF1E1FF60002FF1E2FF0F0E6F00DC
:1013C8006FFFE3FFE806FBE2100E4A26000E4B22F1
:1013D800100E4826000E4922100E4C5E000E4D5A83
:1013E8004C504D10D8A4FBEF09F0FDEF09F057EF72
:1013F80009F01200010E336E06EC15F02BA007EF72
:101408000AF009EF0AF08DEF0AF03150D8B40FEF67
:101418000AF011EF0AF08DEF0AF02650D8B417EF52
:101428000AF019EF0AF034EF0AF026A61EEF0AF0C8
:1014380020EF0AF031EF0AF02AA625EF0AF027EF8D
:101448000AF02EEF0AF0040E336E06EC15F0AFEC3E
:101458000EF0808626968DEF0AF0266A8DEF0AF048
:101468002550D8B43AEF0AF03CEF0AF05EEF0AF0E4
:101478002BB441EF0AF043EF0AF08DEF0AF025A0F4
:1014880048EF0AF04AEF0AF05BEF0AF029A04FEFA5
:101498000AF051EF0AF058EF0AF0400E336E06ECEE
:1014A80015F081EC02F0808625908DEF0AF0256A10
:1014B8008DEF0AF02450D8B464EF0AF066EF0AF012
:1014C8008DEF0AF02BA26BEF0AF06DEF0AF08DEFAB
:1014D8000AF02BB472EF0AF074EF0AF08DEF0AF0FD
:1014E80024A079EF0AF07BEF0AF08CEF0AF027A02E
:1014F80080EF0AF082EF0AF089EF0AF0800E336E6F
:1015080006EC15F0B3EC16F0808624908DEF0AF007
:10151800246A1200F7EF0AF00C50D96EDA6A6F00ED
:1015280078FF48F06F0074FF49F0600023F1D9FF9D
:10153800600027F1DAFF600047F0DEFF60004BF043
:10154800DDFF10EF0BF00C50D96EDA6A6F0078FFF0
:1015580048F06F0074FF49F0600023F1D9FF600084
:1015680027F1DAFF6F0078FF11F06F0074FF12F0B7
:101578002D6A11501210D8B4C4EF0AF0C6EF0AF061
:10158800CFEF0AF02D8211C0B5F012C0B6F00001FD
:10159800B76B10EF0BF00F501010D8B4D6EF0AF05D
:1015A800D8EF0AF010EF0BF02150D8B4DEEF0AF0B4
:1015B800E0EF0AF010EF0BF0800E226E2D842D82E2
:1015C80021500F026F00CCFF48F06F00D0FF49F0A8
:1015D8001002F350492648C0B5F049C0B6F00001E2
:1015E800B76B10EF0BF00D50486E496A4950000A6E
:1015F800D8B401EF0BF010EF0BF04850000AD8B444
:1016080010EF0BF0010AD8B490EF0AF0030AD8B42F
:10161800A7EF0AF010EF0BF012007AEF0BF00C5066
:10162800D96EDA6A6F0078FF48F06F0074FF49F0EE
:10163800600023F1D9FF600027F1DAFF60003FF076
:10164800DEFF600043F0DDFF93EF0BF00C50D96E26
:10165800DA6A6F0078FF48F06F0074FF49F06000A5
:1016680023F1D9FF600027F1DAFF6F0078FF0FF050
:101678006F0074FF10F02D6A11501210D8B447EFA4
:101688000BF049EF0BF052EF0BF02D8211C0B5F0C3
:1016980012C0B6F00001B76B93EF0BF00F501010AB
:1016A800D8B459EF0BF05BEF0BF093EF0BF0215030
:1016B800D8B461EF0BF063EF0BF093EF0BF0800EF3
:1016C800226E2D842D8221500F026F00CCFF48F02E
:1016D8006F00D0FF49F01002F350492648C0B5F01A
:1016E80049C0B6F00001B76B93EF0BF00D50486E90
:1016F800496A4950000AD8B484EF0BF093EF0BF015
:101708004850000AD8B493EF0BF0010AD8B413EF8D
:101718000BF0030AD8B42AEF0BF093EF0BF012008A
:10172800F6EF0BF00C50D96EDA6A6F0078FF48F0CC
:101738006F0074FF49F0600023F1D9FF600027F1C2
:10174800DAFF600087F0DFFF0FEF0CF00C50D96E66
:10175800DA6A6F0078FF48F06F0074FF49F06000A4
:1017680023F1D9FF600027F1DAFFDF50216E2D6ADF
:1017780011501210D8B4C3EF0BF0C5EF0BF0CEEF39
:101788000BF02D8211C0B5F012C0B6F00001B76B96
:101798000FEF0CF00F501010D8B4D5EF0BF0D7EFB7
:1017A8000BF00FEF0CF02150D8B4DDEF0BF0DFEFAA
:1017B8000BF00FEF0CF0800E226E2D842D8221503D
:1017C8000F026F00CCFF48F06F00D0FF49F0100205
:1017D800F350492648C0B5F049C0B6F00001B76BD0
:1017E8000FEF0CF00D50486E496A4950000AD8B402
:1017F80000EF0CF00FEF0CF04850000AD8B40FEFD0
:101808000CF0010AD8B496EF0BF0030AD8B4AAEF8B
:101818000BF00FEF0CF012006FEF0CF095C005F015
:1018280096C006F097C007F098C008F0C4EC0FF017
:101838000C50D96EDA6A6F0078FF4BF06F0074FFB6
:101848004CF060002FF1D9FF600033F1DAFF60003F
:1018580007F0DEFF60000BF0DEFF60000FF0DEFF38
:10186800600013F0DEFF88EF0CF00C50D96EDA6AD6
:101878006F0078FF4BF06F0074FF4CF060002FF1A1
:10188800D9FF600033F1DAFF6F0078FF05F06F00D1
:1018980078FF06F06F0078FF07F06F0078FF08F018
:1018A80078EC10F002B45BEF0CF05DEF0CF06BEF2E
:1018B8000CF02DEC18F001C095F002C096F003C0B2
:1018C80097F004C098F0EAEC16F088EF0CF0120ECE
:1018D8000E6E88EF0CF00D504B6E4C6A4C50000A9F
:1018E800D8B479EF0CF088EF0CF04B50000AD8B45C
:1018F80088EF0CF0010AD8B412EF0CF0030AD8B440
:1019080039EF0CF088EF0CF01200000E2C240001C7
:10191800AD6FAE6B070EAE23AF6B000EAF23B06B8F
:10192800000EB023ADC005F0AEC006F0AFC007F0A2
:10193800B0C008F078EC10F001C0ADF002C0AEF015
:1019480003C0AFF004C0B0F02D6A11501210D8B423
:10195800B0EF0CF0B2EF0CF0BCEF0CF02D822A8641
:1019680011C0B5F012C0B6F00001B76BFCEF0CF077
:101978000F501010D8B4C3EF0CF0C5EF0CF0FCEF0B
:101988000CF02150D8B4CBEF0CF0CDEF0CF0FCEFFD
:101998000CF06F003CFE2EF0040E336EADC032F03A
:1019A800AEC033F0AFC034F0B0C035F0ACEC13F0DB
:1019B80031C020F02050D8B4E4EF0CF0E6EF0CF082
:1019C800FCEF0CF02A86800E226E2D842D82215089
:1019D8000F026F00CCFF4AF06F00D0FF4BF01002EF
:1019E800F3504B264AC0B5F04BC0B6F00001B76BB8
:1019F80012003D50D8B403EF0DF005EF0DF06BEF7A
:101A08000DF03DA80AEF0DF00CEF0DF051EF0DF0C1
:101A18000E6A010E0D6E02D81BEF0DF00500FA6E6E
:101A28004050FD6E4150FE6EFF6AFA5012006CEF96
:101A38000DF038504024536E39504120546E53C035
:101A480048F00C50D96EDA6A6F0078FF49F06F00E1
:101A580074FF4AF036C04BF037C04CF06DEC0DF017
:101A68006BEF0DF038504024486E39504120496ED4
:101A78000C50D96EDA6A6F0078FF4AF06F0074FF75
:101A88004BF036C04CF037C04DF055EC09F06BEF19
:101A98000DF0060E0E6E6CEF0DF03D50070B536EF9
:101AA800546A5450000AD8B45CEF0DF04DEF0DF0B5
:101AB8005350010AD8B436EF0DF0020AD8B436EF05
:101AC8000DF0060AD8B41DEF0DF04DEF0DF00E6ABB
:101AD8001200D3EF0DF04C5007E1040E4B5CD8B068
:101AE80078EF0DF07AEF0DF08EEF0DF04850D96ECB
:101AF800DA6A600027F1E1FF60002BF1E2FF6F0076
:101B08007FFFE7FF494A4A2A482A4B06D8A04C06D5
:101B1800D3EF0DF04C5007E1080E4B5CD8B097EFAF
:101B28000DF099EF0DF0BAEF0DF04850D96EDA6A62
:101B3800600027F1E1FF60002BF1E2FF6F007BFFFF
:101B4800E6FF6F007BFFE6FF6F007BFFE6FF6F009D
:101B58007BFFE6FF040E4926000E4A22040E4826A3
:101B6800040E4B5E000E4C5AD3EF0DF04850D96E60
:101B7800DA6A600027F1E1FF60002BF1E2FF070E4F
:101B88006F006FFFE3FFE806FBE2080E4926000E30
:101B98004A22080E4826080E4B5E000E4C5A4B503F
:101BA8004C10D8A4DAEF0DF0DCEF0DF06FEF0DF06C
:101BB80012006F00E8FF46F06F00ECFF47F03901B4
:101BC80095ADE9EF0DF0EBEF0DF0F6EF0DF0A5ADEB
:101BD800F0EF0DF0F2EF0DF0F6EF0DF0D3EC17F09B
:101BE80040EF0EF093A9FBEF0DF0FDEF0DF013EFB2
:101BF8000EF0A3A902EF0EF004EF0EF013EF0EF0B3
:101C080002D811EF0EF00500FA6E0001C551FD6E05
:101C1800C651FE6EFF6AFA50120040EF0EF093A70D
:101C280018EF0EF01AEF0EF030EF0EF0A3A71FEF2B
:101C38000EF021EF0EF030EF0EF002D82EEF0EF07E
:101C48000500FA6E0001C751FD6EC851FE6EFF6AAD
:101C5800FA50120040EF0EF093AF35EF0EF037EF69
:101C68000EF040EF0EF0A3AF3CEF0EF03EEF0EF09B
:101C780040EF0EF03BEC17F060001FF1FBFF600037
:101C88001BF1FAFF110095EF0EF00C50D96EDA6ACD
:101C98006F0078FF48F06F0074FF49F0600023F18F
:101CA800D9FF600027F1DAFF60004FF0DFFFAEEFE9
:101CB8000EF00C50D96EDA6A6F0078FF48F06F00AA
:101CC80074FF49F0600023F1D9FF600027F1DAFFC3
:101CD800DF504A6EF10E4A6074EF0EF076EF0EF0A8
:101CE8007CEF0EF04AC013F013C0CFF0AEEF0EF049
:101CF800FE0E4A18D8B483EF0EF085EF0EF08DEF84
:101D08000EF04A28D8A48BEF0EF08DEF0EF091EF6D
:101D18000EF04AC013F0AEEF0EF0120E0E6EAEEFDC
:101D28000EF00D50486E496A4950000AD8B49FEF2A
:101D38000EF0AEEF0EF04850000AD8B4AEEF0EF039
:101D4800010AD8B449EF0EF0030AD8B45DEF0EF0DB
:101D5800AEEF0EF012006000B7F281FF6000BBF238
:101D680082FF6000BFF283FF6000C3F284FF010EB0
:101D7800856E2DB0C2EF0EF0C4EF0EF00AEF0FF033
:101D88002250800B226E2DA4CCEF0EF0CEEF0EF079
:101D9800E2EF0EF022BED3EF0EF0D6EF0EF0010EFA
:101DA800D7EF0EF0000EFF0A486E48324832225034
:101DB80048187F0B4818226EE3EF0EF0229E2BA4E2
:101DC800E8EF0EF0EAEF0EF0EFEF0EF02250040904
:101DD800226E05EF0FF02BA2F4EF0EF0F6EF0EF0E7
:101DE800FBEF0EF022500509226E05EF0FF02BA035
:101DF80000EF0FF002EF0FF005EF0FF022507F0910
:101E0800226E60008BF086FF0CEF0FF02D90866A33
:101E18001200D3AE12EF0FF0D1EF10F016507D0F75
:101E2800D96EDA6ADF6A3D01F9A71DEF0FF01FEFDF
:101E38000FF031EF0FF016507D0FD96EDA6ADF829E
:101E480002D831EF0FF00500FA6E0001C351FD6EA4
:101E5800C451FE6EFF6AFA5012003D01F9A337EF34
:101E68000FF039EF0FF04BEF0FF016507D0FD96ED2
:101E7800DA6ADF8402D84BEF0FF00500FA6E000132
:101E8800C151FD6EC251FE6EFF6AFA501200165023
:101E98007D0FD96EDA6ADF50D8B455EF0FF057EFDF
:101EA8000FF066EF0FF002D864EF0FF00500FA6E3E
:101EB8000001BF51FD6EC051FE6EFF6AFA5012005C
:101EC80068EF0FF054EC17F0120065EC15F02BA03A
:101ED80070EF0FF072EF0FF0C3EF0FF03150D8B47E
:101EE80078EF0FF07AEF0FF0C3EF0FF0A9EF0FF0D4
:101EF8002BA281EF0FF083EF0FF0C3EF0FF02BB49D
:101F080088EF0FF08AEF0FF0C3EF0FF097EF0FF0A5
:101F180027A091EF0FF093EF0FF0C3EF0FF091ECC4
:101F280018F0C3EF0FF031503F0B486E496A495023
:101F3800000AD8B4A2EF0FF0C3EF0FF04850000A20
:101F4800D8B48CEF0FF0C3EF0FF03150C00B486ED0
:101F5800496A4950000AD8B4B4EF0FF0C3EF0FF044
:101F68004850000AD8B4C3EF0FF0400AD8B4C3EF02
:101F78000FF0C00AD8B47CEF0FF0C3EF0FF01200D7
:101F880006A6C9EF0FF0CBEF0FF0F5EF0FF005C085
:101F980004F006C003F020EE03F06F0078FF48F06D
:101FA8006F0074FF49F0D89049324832D8904932CE
:101FB8004832D8904932483248C003F049C004F04A
:101FC80004502009046E06C048F0030E481603505A
:101FD800FC0B4810036E08C001F007C002F00DEFBB
:101FE80010F005C002F006C001F020EE01F06F000D
:101FF80078FF48F06F0074FF49F0050E4A6ED890DC
:10200800493248324A2E03EF10F048C001F049C067
:1020180002F006A412EF10F014EF10F015EF10F014
:10202800048C06A81AEF10F01CEF10F01DEF10F04A
:10203800048E1200000E2C2400019D6F9E6B060E6C
:102048009E239F6B000E9F23A06B000EA0239DC0B4
:1020580005F09EC006F09FC007F0A0C008F078EC1D
:1020680010F001C09DF002C09EF003C09FF004C0B4
:10207800A0F0800E2C240001996F9A6B050E9A230C
:102088009B6B000E9B239C6B000E9C2399C005F054
:102098009AC006F09BC007F09CC008F078EC10F0DE
:1020A80001C099F002C09AF003C09BF004C09CF0F4
:1020B8006F003CFE2EF0400E336E9DC032F09EC085
:1020C80033F09FC034F0A0C035F0ACEC13F031C051
:1020D8001EF01E50D8B473EF10F075EF10F076EFC5
:1020E80010F029801D6A120008AA7DEF10F07FEF1A
:1020F80010F0A7EF10F020EE07F06F0078FF48F01F
:102108006F0074FF49F0D89048364936D890483661
:102118004936D8904836493648C001F049C002F0DF
:1021280002C004F007C048F0030E48160150E00B47
:1021380048100809026E04C001F005C004F006C08A
:1021480003F0C0EF10F005C048F006C049F0050ED6
:10215800D89048364936E82EACEF10F048C001F068
:1021680049C002F0036A046A01C003F002C001F02A
:102178000350E00B026E036A08AEC5EF10F0C7EF1C
:1021880010F0C8EF10F0028808ACCDEF10F0CFEFD8
:1021980010F0D0EF10F00284120016507D0FD96EA7
:1021A800DA6ADF6A3D01F9A7DCEF10F0DEEF10F024
:1021B800F0EF10F016507D0FD96EDA6ADF8202D880
:1021C800F0EF10F00500FA6E0001C351FD6EC45126
:1021D800FE6EFF6AFA5012003D01F9A3F6EF10F007
:1021E800F8EF10F00AEF11F016507D0FD96EDA6A89
:1021F800DF8402D80AEF11F00500FA6E0001C15120
:10220800FD6EC251FE6EFF6AFA50120016507D0F25
:10221800D96EDA6ADF50D8B414EF11F016EF11F066
:1022280025EF11F002D823EF11F00500FA6E000136
:10223800BF51FD6EC051FE6EFF6AFA50120027EFC3
:1022480011F069EC17F012003D50D8B42EEF11F0E0
:1022580030EF11F077EF11F03DA835EF11F037EFBF
:1022680011F061EF11F00E6A020E0D6E02D846EF02
:1022780011F00500FA6E4050FD6E4150FE6EFF6A87
:10228800FA50120078EF11F00C50D96EDA6A6F002C
:1022980078FF48F06F0074FF49F040C04AF041C031
:1022A8004BF036C04CF037C04DF055EC09F077EFE5
:1022B80011F0070E0E6E78EF11F03D50070B536EBC
:1022C800546A5450000AD8B46CEF11F05DEF11F065
:1022D8005350020AD8B448EF11F0010AD8B448EFB5
:1022E80011F05DEF11F00E6A120013680001FB6B2C
:1022F800FC6B010EF96FF86BF76B010EFA6FEB6B65
:10230800D16BEC6BE46BED6BE56BEE6BE66BEF6B37
:10231800E76BF06BE86BF16BE96BF26BEA6B800EC5
:102328002C24056E066A010E0622076A000E072293
:10233800086AC00E082278EC10F001C0A5F002C0AF
:10234800A6F003C0A7F004C0A8F0000E2C24056E68
:10235800066A020E0622076A000E0722086AC00EE5
:10236800082278EC10F001C0A9F002C0AAF003C05E
:10237800ABF004C0ACF0EB0E0001A46FE30EA26F4B
:10238800080EA36F120085500F0B020AD8A4CFEFD6
:1023980011F0D1EF11F010EF12F087502C18D8B4CB
:1023A800D8EF11F0DAEF11F0F9EF11F08750D8A457
:1023B800E0EF11F0E2EF11F010EF12F0F9EF11F089
:1023C8002B822B9493EC18F010EF12F02B84E6EF8D
:1023D80011F02B922B94E6EF11F094EC18F08FEC9F
:1023E80018F0E9EC15F010EF12F08650010AD8B495
:1023F800E4EF11F0030AD8B4EAEF11F0820AD8B476
:10240800EDEF11F0010AD8B4F1EF11F0030AD8B4D6
:10241800F3EF11F010EF12F012003901A5A317EF36
:1024280012F019EF12F058EF12F0500E916E80AEC4
:1024380020EF12F022EF12F024EF12F04BEF12F01F
:102448003701F0AF2AEF12F02CEF12F030EF12F054
:10245800510E916E4BEF12F040AF35EF12F037EF9F
:1024680012F03BEF12F0520E916E4BEF12F050AF9C
:1024780040EF12F042EF12F046EF12F0530E916E59
:102488004BEF12F0316A3901A59359EF12F06F0042
:1024980000FE48F00F0E481648508D0FD96EDA6AC4
:1024A800DF50316E59EF12F0316A12002DA25FEF42
:1024B80012F061EF12F0A0EF12F0F80E0001B5274C
:1024C800FF0EB623FF0EB723B7BF76EF12F0B75152
:1024D800B61106E1B505D8B074EF12F076EF12F038
:1024E800A0EF12F02DB47BEF12F07DEF12F08EEF1B
:1024F80012F011C049F012C04AF04B6AB551492494
:10250800B56FB6514A20B66FB7514B20B76F2686C4
:10251800A0EF12F021500F026F00CCFF49F06F00BE
:10252800D0FF4AF01002F3504A2649C0B5F04AC01D
:10253800B6F0B76B7EEC17F012002DA2A6EF12F0E2
:10254800A8EF12F0E7EF12F0F80E0001B527FF0E22
:10255800B623FF0EB723B7BFBDEF12F0B751B611C0
:1025680006E1B505D8B0BBEF12F0BDEF12F0E7EF0A
:1025780012F02DB4C2EF12F0C4EF12F0D5EF12F042
:1025880011C043F012C044F0456AB5514324B56FF9
:10259800B6514420B66FB7514520B76F2686E7EF8E
:1025A80012F021500F026F00CCFF43F06F00D0FFF4
:1025B80044F01002F350442643C0B5F044C0B6F0CE
:1025C800B76B90EC17F0120005EF13F01F0E3701F0
:1025D800036F980E046F810E056F2CEF13F0410EF8
:1025E8003701036FBA0E046F070E056F2CEF13F057
:1025F800070E3701036F980E046F010E056F2CEF5D
:1026080013F03050000AD8B4EAEF12F0010AD8B437
:10261800F3EF12F0030AD8B4FCEF12F0010AD8B4B1
:10262800F3EF12F0070AD8B4F3EF12F0010AD8B4A6
:10263800EAEF12F0030AD8B4F3EF12F0010AD8B4A3
:10264800F3EF12F00F0AD8B4F3EF12F0EAEF12F03A
:102658001200390193971A0E486E1E0E496E6CECE3
:1026680018F039019399200E486E2C0E496E67ECCC
:1026780018F03D01EC6BED6BEE6BEF6BF06BF16BF3
:10268800B00EF26F800EF36FF46B820EF56F060ECC
:10269800F66FF76BF86BF96BFA6BC20E486E300E7B
:1026A800496E76EC18F0B60E486E300E496E71EC35
:1026B80018F08E0E486E300E496E7BEC18F0000153
:1026C800D26B196A186A080E176E166A156A146AA8
:1026D8003901938712002F6A400E8F6E800E8F6E1D
:1026E800E8EC12F037013D6B806AF06B406B506B81
:1026F800606B706B806B906B500E916E066B076B06
:10270800306B316B110E326F220E336F330E346F14
:10271800440E356F550E366F660E376F770E386F6D
:102728003C6B3B6B3A6B396BB869E30EB96FBA69AE
:10273800BB69200E006F1C0E3F6F3E6900018D6B58
:102748008E6B8F6B906B916B926B936B946B12008B
:10275800486A48508D0FD96EDA6ADF50D8A4B7EFAF
:1027680013F0B9EF13F0DDEF13F048508D0FD96E69
:10277800DA6A6000CFF0DFFF6F007CFF31F020EEF7
:1027880032F04850040D000EF324E16E010EF420DF
:10279800E26E6F007BFFE6FF6F007BFFE6FF6F00D6
:1027A8007BFFE6FF6F007BFFE6FF010E2F6EE7EF72
:1027B80013F0482A070E4864E4EF13F0E6EF13F02D
:1027C800ADEF13F0316A120011EF14F099C005F063
:1027D8009AC006F09BC007F09CC008F0C4EC0FF04C
:1027E8000C50D96EDA6A6F0078FF4BF06F0074FFF7
:1027F8004CF060002FF1D9FF600033F1DAFF600080
:1028080007F0DEFF60000BF0DEFF60000FF0DEFF78
:10281800600013F0DEFF22EF14F00D504B6E4C6A8F
:102828004C50000AD8B41BEF14F022EF14F04B50B0
:10283800010AD8B4EAEF13F022EF14F012004CEFBB
:1028480014F09DC005F09EC006F09FC007F0A0C020
:1028580008F0C4EC0FF00C50D96EDA6A6F0078FFFC
:102868004BF06F0074FF4CF060002FF1D9FF60004F
:1028780033F1DAFF600007F0DEFF60000BF0DEFFE7
:1028880060000FF0DEFF600013F0DEFF5DEF14F074
:102898000D504B6E4C6A4C50000AD8B456EF14F0E9
:1028A8005DEF14F04B50010AD8B425EF14F05DEF3A
:1028B80014F012002BA063EF14F065EF14F098EFFA
:1028C80014F02750D8B46BEF14F06DEF14F076EFD6
:1028D80014F027A072EF14F074EF14F076EF14F0F0
:1028E80092EC18F02A50D8B47CEF14F07EEF14F074
:1028F80087EF14F02AA683EF14F085EF14F087EF22
:1029080014F05AEC12F02950D8B48DEF14F08FEF70
:1029180014F098EF14F029A094EF14F096EF14F047
:1029280098EF14F077EC16F012002BA09EEF14F03D
:10293800A0EF14F0D3EF14F02750D8B4A6EF14F09A
:10294800A8EF14F0B1EF14F027A0ADEF14F0AFEF3B
:1029580014F0B1EF14F098EC18F02A50D8B4B7EF8F
:1029680014F0B9EF14F0C2EF14F02AA6BEEF14F079
:10297800C0EF14F0C2EF14F0A1EC12F02950D8B453
:10298800C8EF14F0CAEF14F0D3EF14F029A0CFEF7A
:1029980014F0D1EF14F0D3EF14F095EC16F0120008
:1029A8001350D8A4DAEF14F0DCEF14F0E8EF14F0C9
:1029B8000001D0A5E2EF14F0E4EF14F0E8EF14F012
:1029C800D095D08105EF15F01350D8B4EEEF14F080
:1029D800F0EF14F005EF15F0F10E1360F6EF14F0B8
:1029E800F8EF14F005EF15F00001CF07CF51D8A488
:1029F80000EF15F002EF15F005EF15F013C0CFF05A
:102A0800D08112003701E0B70CEF15F00EEF15F08A
:102A180016EF15F0430E916E33C0B8F0B8C031F020
:102A280035EF15F0D0B71BEF15F01DEF15F025EFBA
:102A380015F0440E916E33C0B9F0B9C031F035EFDE
:102A480015F0C0B72AEF15F02CEF15F034EF15F09C
:102A5800450E916E33C0BAF0BAC031F035EF15F0BB
:102A6800316A1200BA6ABB6ABC6AC268EA0EC36EEF
:102A78003F0EC46E3F0E3A01606FF50E506F40690D
:102A8800816B516B416B616B426B526BFE0E626FD7
:102A9800436953696369446954696469080E846FBA
:102AA800170EE46F130E086F330E0A6F0B0EED6FDF
:102AB800210E166F090EE76F220E176F160EE36FC1
:102AC80012003701E0AF6BEF15F06DEF15F074EF02
:102AD80015F0430E916EE09FB8C031F091EF15F0FC
:102AE800D0AF79EF15F07BEF15F082EF15F0440EBB
:102AF800916EE09FB9C031F091EF15F0C0AF87EF4C
:102B080015F089EF15F090EF15F0450E916EE09FE6
:102B1800BAC031F091EF15F0316A1200E3EC17F00A
:102B2800D28E7E0E486E300E496E80EC18F08BEC1B
:102B380018F0000E0001956F100E966F000E976F3B
:102B4800000E986F010E2C6E050ED76F030E126ED5
:102B5800E80E116E106A000E0F6E216A79EC11F002
:102B6800E9EC15F024EC18F00FEC18F0B6EF15F0BE
:102B78000DEF00F02DA4C3EF15F0C5EF15F0E8EF49
:102B880015F085ACCAEF15F0CCEF15F0E8EF15F0AD
:102B980085500F0BE806D8A4D4EF15F0D6EF15F042
:102BA800E8EF15F0268621500F026F00CCFF48F0A1
:102BB8006F00D0FF49F01002F350492648C0B5F025
:102BC80049C0B6F00001B76B12002B6A2A6A296A5D
:102BD800286A276A266A256A246A0001D66BD56B9B
:102BE800D46BD7C030F06FEC13F020EC17F0EAECA0
:102BF80016F01EEC10F089EC0CF005EC17F02780AD
:102C0800E2EC05F08F6A2D80336A06EC15F0AFEC24
:102C18000EF080862B801200D3AE15EF16F058EF19
:102C280016F0080E17601BEF16F01DEF16F031EFC7
:102C380016F01850850FD96EDA6ADF503D01EA6F39
:102C4800182A070E18642BEF16F02DEF16F02EEF4A
:102C580016F0186A172A33EF16F039019399120003
:102C6800496A49508D0FD96EDA6A3350DE18D8A4F4
:102C780040EF16F042EF16F04DEF16F049508D0F69
:102C8800D96EDA6ADF6A010E2F6E010E316E57EFC8
:102C980016F0492A070E496454EF16F056EF16F05D
:102CA80035EF16F0316A1200080E17605EEF16F065
:102CB80060EF16F074EF16F01850850FD96EDA6AC7
:102CC800DF503D01EA6F182A070E18646EEF16F000
:102CD80070EF16F071EF16F0186A172A76EF16F0F3
:102CE8003901939912001DAA7CEF16F07EEF16F0B9
:102CF80094EF16F0080E0001CB5F000ECC5BCCBF42
:102D080090EF16F0CC5106E1CB05D8B08EEF16F057
:102D180090EF16F094EF16F01D6A020E1C6E2580D7
:102D280012001DAA9AEF16F09CEF16F0B2EF16F0FB
:102D3800080E0001CB5F000ECC5BCCBFAEEF16F0E7
:102D4800CC5106E1CB05D8B0ACEF16F0AEEF16F0DB
:102D5800B2EF16F01D6A020E1C6E2580120060008C
:102D680097F281FF60009BF282FF60009FF283FF71
:102D78006000A3F284FF0001A451D96EDA6A1FEE45
:102D880086F3070E6F006FFFE3FFE806FBE26000C3
:102D98008FF285FF120000EE00F13C0EEE6AE806A5
:102DA800FDE100EE60F09E0EEE6AE806FDE100EE41
:102DB80001F0410EEE6AE806FDE1080ED56E000E40
:102DC800D66E000ED76E000192EF15F06F003CFE34
:102DD8002EF0020E336E95C032F096C033F097C0D5
:102DE80034F098C035F0ACEC13F031C01AF01A503A
:102DF800D8B401EF17F003EF17F004EF17F02A82A9
:102E080012006F003CFE2EF0800E336EA9C032F027
:102E1800AAC033F0ABC034F0ACC035F0ACEC13F062
:102E280031C01FF01F50D8B41CEF17F01EEF17F079
:102E38001FEF17F0288012006F003CFE2EF0010EE5
:102E4800336E000E326E000E336E000E346E000EBE
:102E5800356EACEC13F031C023F02350D8B437EF03
:102E680017F039EF17F03AEF17F02A8012003901FE
:102E7800A39F0001BB51BC11D8B445EF17F047EF31
:102E880017F053EF17F002D853EF17F00500FA6E5A
:102E9800BB51FD6EBC51FE6EFF6AFA501200120063
:102EA800200E1624D96EDA6A010EDA226F00A3F713
:102EB800DFFF162A070E166464EF17F066EF17F0A7
:102EC80067EF17F0166A142A1200200E1624D96E1E
:102ED800DA6A010EDA226F00A3F7DFFF162A070E5F
:102EE800166479EF17F07BEF17F07CEF17F0166A8E
:102EF800142A1200BBB883EF17F086EF17F0010E03
:102F080087EF17F0000EFF0A486E483ABB50481882
:102F1800EF0B4818BB6E1200BBB895EF17F098EF8F
:102F280017F0010E99EF17F0000EFF0A426E423AB1
:102F3800BB504218EF0B4218BB6E12004E0EB96E12
:102F4800070EB76EB66A3901A39F938F9E0E486E1F
:102F5800300E496E80EC18F0800EB86E1200200E0C
:102F68003901D96FDB6BDD6B020EDF6FDE6BDCA125
:102F7800C0EF17F0C2EF17F0BBEF17F012002FEEFB
:102F880086F30001A251E16EE26A070E6F006FFF3F
:102F9800E3FFE806FBE285500F0BA16F120002D891
:102FA800E0EF17F00500FA6E0001BD51FD6EBE514D
:102FB800FE6EFF6AFA5012003901A59D12008DECD1
:102FC80018F01AEC18F001EC18F036EC15F0B3EC28
:102FD80017F0A2EC17F02DEC13F012006F0014FE9E
:102FE80048F00F0E4816D8A4FCEF17F0FEEF17F0C4
:102FF80000EF18F0D4EC14F01200040E3D01736FCA
:10300800800E746F180E756F030E7B6F796B7A6B79
:10301800766B6C6912000001EB2B24B016EF18F0E8
:1030280018EF18F019EF18F0248012003901C06B5E
:10303800C16BC26BC36BC46BC56BC66BC76B12002D
:10304800E2EC05F0F0EC06F0FEEC09F069EC0FF0AC
:1030580012006F003CFE2EF01AC033F034EC16F06C
:103068002A9212006F003CFE2EF01FC033F034ECA1
:1030780016F028901200D3AE44EF18F088EF18F03D
:103088005EEC14F01200D3AE4CEF18F085EF18F098
:1030980054EC17F01200D3AE54EF18F097EF18F075
:1030A8001200D3AE5AEF18F099EF18F01200D3AE11
:1030B80060EF18F095EF18F01200D3AE66EF18F035
:1030C80096EF18F0120048C0C5F049C0C6F01200CB
:1030D80048C0C7F049C0C8F0120048C0C1F049C094
:1030E800C2F0120048C0C3F049C0C4F0120048C082
:1030F800BFF049C0C0F0120048C0BBF049C0BCF0E6
:10310800120069EC17F0120099EC14F01200B88E56
:103118001200D29A1200FF001200120012001200D0
:0C3128001200120012001200120012002F
:10FD2C0000000000000000000000000000000000C7
:10FD3C0000000000000000000000000000000000B7
:10FD4C0000000000000000001000050400F6FF0198
:10FD5C001000010100FD00021000010400F3000579
:10FD6C001000130400201808100005180003FF09E8
:10FD7C001000050400D1FF0A1000050400CCFF0C94
:10FD8C00100013020022160D100013010028171783
:10FD9C0010001302001C15181000050100FEFF18BE
:10FDAC001001050400F2FF181002050400EEFF1804
:10FDBC001003050400EAFF181004050400E6FF0018
:10FDCC006000010100EB00026000050100FCFF0275
:10FDDC006001030100FC00036000050100FCFF034F
:10FDEC006001030100FB00056000050100FCFF053C
:10FDFC006001030100FA00066000050100FCFF062B
:10FE0C006001030100F900076000050100FCFF0719
:10FE1C006001030100F800086000050100FCFF0808
:10FE2C006001030100F700006200030100E3000021
:10FE3C001A00050100FBFF001A01050400DAFF009F
:10FE4C001A02050400DEFF001A03050400DEFF00A1
:10FE5C001A04050400DEFF001A05050400DEFF008D
:10FE6C001A06050400DEFF001A07050400DEFF0079
:10FE7C001A08050400DEFF001600050100FBFF0058
:10FE8C001601050400E2FF001602050400DEFF0067
:10FE9C001603050400DEFF001604050400DEFF0057
:10FEAC001605050400DEFF001606050400DEFF0043
:10FEBC001607050400DEFF001608050400DEFF012E
:10FECC000000260100D6FF020000260100D6FF0329
:10FEDC000000260200D6FF040000260400D6FF0511
:10FEEC000000260100D6FF060000260200D6FF0700
:10FEFC000000260400D6FF4D6963726F6368697059
:10FF0C002043414E6F70656E2044657669636500D1
:10FF1C00001800050100FAFF001801130400181165
:10FF2C000018021301008E1C001200050100FDFFD9
:10FF3C000012011104004628001202110400D027FF
:10FF4C00009000000100D6FF009000000100D6FFD9
:10FF5C00008000000100D6FF008000000100D6FFE9
:10FF6C00007000000100D6FF007000000100D6FFF9
:10FF7C00005000000100D6FF005000000100D6FF29
:10FF8C00004000000100D6FF004000000100D6FF39
:10FF9C00003000000100D6FF003000000100D6FF49
:10FFAC00002000000100D6FF002000000100D6FF59
:10FFBC00001400050100FCFF0014011304007E0F67
:10FFCC0056312E300056312E300000000000080152
:10FFDC000060080000000801006221436587785624
:10FFEC00341221436587785634124A93080002086C
:04FFFC0001030400F9
:020000040020DA
:10000000FF0FFF0FFF0FFF0FFF0FFF0FFF0FFF0F80
:020000040030CA
:0A000000AAFFF7FF9FFFFFFFFFFFBD
:00000001FF
