:040000000DEF00F010
:040008000AEF14F0F7
:10001800FF00CFEF15F085500F0B080AD8A417EF93
:1000280000F019EF00F07DEF02F0176A6F0018FE7C
:1000380016F05BEF02F018AA24EF00F026EF00F0AC
:100048007DEF02F018AC2BEF00F02DEF00F07DEF04
:1000580002F018501618536E53A835EF00F037EF1A
:1000680000F03DEF00F0186A010E176E21807DEF59
:1000780002F02FEE87F33550C40FE16EE26A060EE8
:100088006F006FFFE3FFE806FBE21630070BFF0A7D
:10009800536E070E531653503526000E3622355030
:1000A8003B5C36503C58D8B05CEF00F05EEF00F097
:1000B80063EF00F0186A0E0E176E3AEF00F018B8EA
:1000C80068EF00F06BEF00F0010E6CEF00F0000E2F
:1000D800FF0A536E533A18505318EF0B5318186E03
:1000E80016502009F00B0001D86F16A07EEF00F023
:1000F80080EF00F03AEF00F0C40E316E326A310E34
:100108000C6E07EC10F0186A0EC017F03AEF00F00A
:10011800189A6F001CFE37F037C0D9F06F0020FE28
:1001280038F038C0DAF06F0024FE39F039C0DBF05F
:100138000001DC6BDD6BDE6BDF6B310E0C6E4BECA4
:1001480004F00E50D8A4ABEF00F0ADEF00F029EFAB
:1001580001F03AA2B2EF00F0B4EF00F025EF01F0A1
:1001680016A2B9EF00F0BBEF00F0EFEF00F016A019
:10017800C0EF00F0C2EF00F0D1EF00F01630E83227
:10018800030BFF0A536E030E5316010E5324336EEE
:10019800346A000E3422D5EF00F03BC033F03CC087
:1001A80034F03B50331807E13C503418D8A4DFEF43
:1001B80000F0E1EF00F05FEF00F0186A8A0E316E90
:1001C8003F0E326E310E0C6E07EC10F0600E00011F
:1001D800D86F88EF00F016A0F4EF00F0F6EF00F00B
:1001E80012EF01F08C508D100009D8B4FEEF00F02A
:1001F80000EF01F002EF01F05FEF00F02FEE8AF35D
:10020800DE503B1809E1DE503C18D8B40EEF01F07F
:1002180010EF01F012EF01F05FEF00F03BC033F098
:100228003CC034F0188A188C1898366A000E356E5F
:10023800010E0001B86FF40EB76F600ED86F3AEF79
:1002480000F0070E176E3AEF00F00EC017F021808D
:100258007DEF02F0189A6F001CFE37F037C0D9F016
:100268006F0020FE38F038C0DAF06F0024FE39F055
:1002780039C0DBF00001DC6BDD6BDE6BDF6B310E50
:100288000C6E4BEC04F00E50D8A44DEF01F04FEF7C
:1002980001F029EF01F03AA054EF01F056EF01F018
:1002A800AAEF01F0366A000E356E186A3C5009E173
:1002B800050E3B5CD8A063EF01F065EF01F08AEF13
:1002C80001F0010E0001B86FF40EB76F188ADC0E4A
:1002D800316E326A3BC0DCF03CC0DDF0410ED86FB5
:1002E8003AEF00F04F0E0001D86F9DEF01F04B0E72
:1002F8000001D86F9DEF01F0470E0001D86F9DEF08
:1003080001F0430E0001D86F9DEF01F03B50010A48
:10031800D8B476EF01F0030AD8B47BEF01F0010AF4
:10032800D8B480EF01F0070AD8B485EF01F09DEF4B
:1003380001F03BC033F03CC034F0DC0E316E326A61
:10034800310E0C6EF9EC0CF088EF00F0060E176E0B
:100358003AEF00F018AAB3EF01F0B5EF01F07DEF26
:1003680002F018BCBAEF01F0BCEF01F07DEF02F02B
:1003780018501618536E53A8C4EF01F0C6EF01F0D9
:10038800C8EF01F037EF00F0D90E316E326A355000
:100398003B5C0001B56F36503C58B66FB65109E169
:1003A800080EB55DD8A0DBEF01F0DDEF01F0E3EF5B
:1003B80001F0D86B346A070E336E36EF02F0186A14
:1003C80017EF02F00D0ED86F346A010E336E36EF58
:1003D80002F00B0ED86F346A020E336E36EF02F05D
:1003E800090ED86F346A030E336E36EF02F0070E2B
:1003F800D86F346A040E336E36EF02F0050ED86FEC
:10040800346A050E336E36EF02F0030ED86F346A85
:10041800060E336E36EF02F0010ED86F346A070EFF
:10042800336E36EF02F0B551010AD8B4E6EF01F0A9
:10043800030AD8B4EDEF01F0010AD8B4F4EF01F0E3
:10044800070AD8B4FBEF01F0010AD8B402EF02F0B2
:10045800030AD8B409EF02F0010AD8B410EF02F089
:1004680036EF02F0D899310E0C6EF9EC0CF020EE54
:1004780033F0DE503526DD50362218B846EF02F04C
:1004880049EF02F0010E4AEF02F0000EFF0A536E28
:10049800533A18505318EF0B5318186E88EF00F0A2
:1004A800186A7DEF02F0030E176E3AEF00F016504F
:1004B800E00B536E546A5450000AD8B466EF02F049
:1004C80057EF02F05350000AD8B41FEF00F0200A8B
:1004D800D8B48CEF00F0600AD8B42EEF01F0200AEF
:1004E800D8B4AEEF01F0E00AD8B454EF02F057EFF9
:1004F80002F01200600027F281FF60002BF282FFF9
:1005080060002FF283FF600033F284FF080E856ECF
:100518001750D8A492EF02F094EF02F0A0EF02F087
:1005280020EED8F01FEE86F3070E6F006FFFE3FF93
:10053800E806FBE24AEF04F0800E866E6000DFF00A
:1005480087FF6000E3F088FF6000E7F089FFD9EFDC
:1005580003F02FEE8AF3000EDE6E000EDE6E030E41
:10056800DE6E050EDD6E4AEF04F02FEE8AF3000E04
:10057800DE6E000EDE6E040EDE6E050EDD6E4AEFD8
:1005880004F02FEE8AF3010EDE6E000EDE6E040E0E
:10059800DE6E050EDD6E4AEF04F02FEE8AF3050ECF
:1005A800DE6E000EDE6E040EDE6E050EDD6E4AEFA8
:1005B80004F02FEE8AF3000EDE6E000EDE6E010EE2
:1005C800DE6E060EDD6E4AEF04F02FEE8AF3010EA2
:1005D800DE6E000EDE6E010EDE6E060EDD6E4AEF7A
:1005E80004F02FEE8AF3020EDE6E000EDE6E010EB0
:1005F800DE6E060EDD6E4AEF04F02FEE8AF3000E73
:10060800DE6E000EDE6E020EDE6E060EDD6E4AEF48
:1006180004F02FEE8AF3410EDE6E000EDE6E040E3D
:10062800DE6E060EDD6E4AEF04F02FEE8AF3420E00
:10063800DE6E000EDE6E040EDE6E060EDD6E4AEF16
:1006480004F02FEE8AF3430EDE6E000EDE6E040E0B
:10065800DE6E060EDD6E4AEF04F02FEE8AF3470ECB
:10066800DE6E000EDE6E040EDE6E060EDD6E4AEFE6
:1006780004F02FEE8AF3000EDE6E000EDE6E060E1C
:10068800DE6E060EDD6E4AEF04F02FEE8AF3100ED2
:10069800DE6E000EDE6E070EDE6E060EDD6E4AEFB3
:1006A80004F02FEE8AF3120EDE6E000EDE6E070ED9
:1006B800DE6E060EDD6E4AEF04F02FEE8AF3130E9F
:1006C800DE6E000EDE6E070EDE6E060EDD6E4AEF83
:1006D80004F02FEE8AF3110EDE6E000EDE6E090EA8
:1006E800DE6E060EDD6E4AEF04F02FEE8AF3300E52
:1006F800DE6E000EDE6E090EDE6E060EDD6E4AEF51
:1007080004F02FEE8AF3310EDE6E000EDE6E090E57
:10071800DE6E060EDD6E4AEF04F02FEE8AF3320E1F
:10072800DE6E000EDE6E090EDE6E060EDD6E4AEF20
:1007380004F02FEE8AF3360EDE6E000EDE6E090E22
:10074800DE6E060EDD6E4AEF04F02FEE8AF3000E21
:10075800DE6E000EDE6E000EDE6E080EDD6E4AEFF7
:1007680004F02FEE8AF3200EDE6E000EDE6E000E11
:10077800DE6E080EDD6E4AEF04F02FEE8AF3210ECE
:10078800DE6E000EDE6E000EDE6E080EDD6E4AEFC7
:1007980004F02FEE8AF3220EDE6E000EDE6E000EDF
:1007A800DE6E080EDD6E4AEF04F01750466E476A9B
:1007B8004750000AD8B4E3EF03F04AEF04F046507C
:1007C800010AD8B4ADEF02F0030AD8B4B9EF02F0C9
:1007D800010AD8B4C5EF02F0070AD8B4D1EF02F085
:1007E800010AD8B4DDEF02F0030AD8B4E9EF02F049
:1007F800010AD8B4F5EF02F00F0AD8B401EF03F0FC
:10080800010AD8B40DEF03F0030AD8B419EF03F0C6
:10081800010AD8B425EF03F0070AD8B431EF03F082
:10082800010AD8B43DEF03F0030AD8B449EF03F046
:10083800010AD8B455EF03F01F0AD8B461EF03F0EA
:10084800010AD8B46DEF03F0030AD8B479EF03F0C6
:10085800010AD8B485EF03F0070AD8B491EF03F082
:10086800010AD8B49DEF03F0030AD8B4A9EF03F046
:10087800010AD8B4B5EF03F00F0AD8B4C1EF03F0FA
:10088800010AD8B4CDEF03F04AEF04F0120037C0E4
:1008980009F038C00AF039C00BF012EF05F0CB0EA2
:1008A8000001B96FFE0EBA6F070EBE6F48EF05F074
:1008B800AC0E0001B96FFF0EBA6F020EBE6F48EFA3
:1008C80005F09C0E0001B96FFF0EBA6F61EF04F0DE
:1008D8008C0E0001B96FFF0EBA6F61EF04F07C0E49
:1008E8000001B96FFF0EBA6F61EF04F0CB0E000183
:1008F800B96FFD0EBA6F0E0EBE6F48EF05F06C0EA5
:100908000001B96FFF0EBA6F61EF04F05C0E0001D1
:10091800B96FFF0EBA6F61EF04F04C0E0001B96FAA
:10092800FF0EBA6F61EF04F0530E0001B96FFD0EB0
:10093800BA6F0F0EBE6F48EF05F0340E0001B96FA5
:10094800FF0EBA6F030EBE6F48EF05F00950D8A42A
:10095800B0EF04F0B2EF04F0B9EF04F0BC0E000100
:10096800B96FFF0EBA6F61EF04F0080E0E6EDEEF7E
:1009780005F00950D8A4C3EF04F0C5EF04F0B9EFAF
:1009880004F0830E0001B96FFE0EBA6F090EBE6F38
:1009980048EF05F00950D8A4D4EF04F0D6EF04F0DE
:1009A800B9EF04F01C0E0001B96FFF0EBA6FA6EF85
:1009B80004F00950D8A4E3EF04F0E5EF04F0B9EF30
:1009C80004F03B0E0001B96FFE0EBA6FCAEF04F0D7
:1009D8000A500F0B516E526A5250000AD8B4F7EF02
:1009E80004F0B9EF04F05150000AD8B498EF04F0BD
:1009F800020AD8B4A1EF04F0060AD8B4AAEF04F0AA
:100A0800020AD8B4BDEF04F00E0AD8B4CEEF04F051
:100A1800020AD8B4DDEF04F0B9EF04F00A50F00B85
:100A2800516E526A5250000AD8B41DEF05F0B9EF62
:100A380004F05150000AD8B453EF04F0100AD8B4A7
:100A4800ECEF04F0300AD8B45CEF04F0100AD8B424
:100A580065EF04F0700AD8B46CEF04F0100AD8B44B
:100A680073EF04F0300AD8B47AEF04F0100AD8B45F
:100A780083EF04F0F00AD8B48AEF04F0100AD8B46F
:100A880091EF04F0B9EF04F0080E0E6E6000E7F283
:100A9800F6FF6000EBF2F7FFF86A09006F00D4FF79
:100AA800A1F009006F00D4FFA2F009006F00D4FF85
:100AB800A3F00A006F00D4FFA4F0D6EF05F0A2510E
:100AC8000A18D8A46AEF05F06CEF05F0BAEF05F044
:100AD800A1510918D8A473EF05F075EF05F0BAEF26
:100AE80005F0110E0E6EA3510B18D8B47EEF05F069
:100AF80080EF05F087EF05F0A4AD85EF05F087EFEF
:100B080005F0BAEF05F06000E7F2F6FF6000EBF2DF
:100B1800F7FFF86A20EE37F0070E09006F00D7FFDD
:100B2800DEFFE806FAE2A4AD9CEF05F09EEF05F0C3
:100B3800A0EF05F00BC039F0A4A9A5EF05F0A7EFC9
:100B480005F0B7EF05F00E6A0D6A02D8B5EF05F0AB
:100B58000500FA6E3D50FD6E3E50FE6EFF6AFA507B
:100B68001200DEEF05F00E6ADEEF05F0080EB92779
:100B7800000EBA23BE076000E7F2F6FF6000EBF252
:100B8800F7FFF86A09006F00D4FFA1F009006F00B1
:100B9800D4FFA2F009006F00D4FFA3F00A006F0091
:100BA800D4FFA4F0BE51D8A4DCEF05F0DEEF05F0C9
:100BB80063EF05F012002C50D8B4E5EF05F0E7EF2D
:100BC80005F0ECEF06F0E1EF06F08EAEEEEF05F083
:100BD800F0EF05F0CEEF06F000017D51D8B4F7EF45
:100BE80005F0F9EF05F009EF06F0600003F4A0F74F
:100BF800600007F4A1F760000BF4A2F760000FF49F
:100C0800A3F7370106810BEF06F0370106910001C3
:100C18007E51D8B412EF06F014EF06F024EF06F078
:100C2800600013F4A4F7600017F4A5F760001BF444
:100C3800A6F760001FF4A7F73701068326EF06F032
:100C48003701069300017F51D8B42DEF06F02FEF3E
:100C580006F03FEF06F0600023F4A8F7600027F4E1
:100C6800A9F760002BF4AAF760002FF4ABF737015F
:100C7800068541EF06F03701069500018051D8B48A
:100C880048EF06F04AEF06F05AEF06F0600033F43A
:100C9800ACF7600037F4ADF760003BF4AEF76000E6
:100CA8003FF4AFF7370106875CEF06F03701069788
:100CB80000018151D8B463EF06F065EF06F075EFD7
:100CC80006F0600043F4B0F7600047F4B1F7600045
:100CD8004BF4B2F760004FF4B3F73701068977EFAA
:100CE80006F03701069900018251D8B47EEF06F06C
:100CF80080EF06F090EF06F0600053F4B4F7600060
:100D080057F4B5F760005BF4B6F760005FF4B7F727
:100D18003701068B92EF06F03701069B00018351DD
:100D2800D8B499EF06F09BEF06F0ABEF06F0600041
:100D380063F408F7600067F409F760006BF40AF7DA
:100D480060006FF40BF73701068DADEF06F0370141
:100D5800069D00018451D8B4B4EF06F0B6EF06F052
:100D6800C6EF06F0600073F40CF7600077F40DF737
:100D780060007BF40EF760007FF40FF73701068FF1
:100D8800C8EF06F03701069F2C6A6000AFF08FFFAE
:100D9800ECEF06F0800E8F6EECEF06F08FAED7EF1B
:100DA80006F0D9EF06F0CEEF06F0C7EC11F02C6A8A
:100DB8006000AFF08FFFECEF06F02C50010AD8B4BA
:100DC800E9EF05F0030AD8B4D2EF06F0ECEF06F02D
:100DD8001200F0EC10F028A0F4EF06F0F6EF06F0A1
:100DE800BAEF07F02E50D8B4FCEF06F0FEEF06F08D
:100DF800BAEF07F09DEF07F026A005EF07F007EF21
:100E080007F0B7EF07F0A6EC10F0B7EF07F026A24F
:100E180010EF07F012EF07F0B7EF07F028B417EF5D
:100E280007F019EF07F0B7EF07F0C8EC16F0B7EFC7
:100E380007F026A622EF07F024EF07F0B7EF07F038
:100E480096EC14F0B7EF07F02E503F0B556E566A2C
:100E58005650000AD8B433EF07F0B7EF07F05550F3
:100E6800010AD8B400EF07F0030AD8B40BEF07F073
:100E7800060AD8B41DEF07F0B7EF07F028B447EF1C
:100E880007F049EF07F0B7EF07F056EF07F025A096
:100E980050EF07F052EF07F0B7EF07F00FEC00F054
:100EA800B7EF07F02E503F0B556E566A5650000AA2
:100EB800D8B461EF07F0B7EF07F05550000AD8B47F
:100EC8004BEF07F0B7EF07F028B46DEF07F06FEFBF
:100ED80007F0B7EF07F028A274EF07F076EF07F0F6
:100EE800B7EF07F08BEF07F024A07DEF07F07FEF57
:100EF80007F0B7EF07F01FB084EF07F086EF07F0B1
:100F0800B7EF07F01F8099EC16F0B7EF07F02E50F7
:100F18003F0B556E566A5650000AD8B496EF07F044
:100F2800B7EF07F05550000AD8B478EF07F0B7EFDD
:100F380007F02E50C00B556E566A5650000AD8B4AA
:100F4800A8EF07F0B7EF07F05550000AD8B428EF1C
:100F580007F0400AD8B442EF07F0C00AD8B468EFE7
:100F680007F0B7EF07F0809E3901A59312006EEFE6
:100F780008F099C005F09AC006F09BC007F09CC025
:100F880008F0FAEC0EF00C50D96EDA6A6F0078FFB0
:100F980049F06F0074FF4AF0600027F1D9FF600044
:100FA8002BF1DAFF600007F0DEFF60000BF0DEFFD8
:100FB80060000FF0DEFF600013F0DEFF87EF08F03F
:100FC8000C50D96EDA6A6F0078FF49F06F0074FF31
:100FD8004AF0600027F1D9FF60002BF1DAFF6F00BB
:100FE80078FF05F06F0078FF06F06F0078FF07F0D4
:100FF8006F0078FF08F0AEEC0FF002A806EF08F0DB
:1010080008EF08F03DEF08F0000199510118496E0A
:101018009A5102184A6E9B5103184B6E9C51041842
:101028004C6EFF0E49144D6EEF0E4A144E6EFF0EB5
:101038004B144F6EFF0E4C14506E4D504E104F1007
:101048005010D8A42AEF08F02CEF08F039EF08F078
:1010580024A031EF08F033EF08F035EF08F001EC89
:1010680017F000019A8987EF08F0120E0E6E87EFCD
:1010780008F0000199510118496E9A5102184A6EF8
:101088009B5103184B6E9C5104184C6EFF0E49146B
:101098004D6EEF0E4A144E6EFF0E4B144F6EFF0E40
:1010A8004C14506E4D504E104F105010D8A45FEF96
:1010B80008F061EF08F039EF08F024B066EF08F0A7
:1010C80068EF08F06AEF08F005EC16F000019A994D
:1010D80087EF08F00D50496E4A6A4A50000AD8B4A2
:1010E80078EF08F087EF08F04950000AD8B487EF86
:1010F80008F0010AD8B4BDEF07F0030AD8B4E4EF4A
:1011080007F087EF08F0120037EF09F095C005F0F7
:1011180096C006F097C007F098C008F0FAEC0EF0F9
:101128000C50D96EDA6A6F0078FF49F06F0074FFCF
:101138004AF0600027F1D9FF60002BF1DAFF600068
:1011480007F0DEFF60000BF0DEFF60000FF0DEFF4F
:10115800600013F0DEFF50EF09F00C50D96EDA6A28
:101168006F0078FF49F06F0074FF4AF0600027F1C4
:10117800D9FF60002BF1DAFF6F0078FF05F06F00F0
:1011880078FF06F06F0078FF07F06F0078FF08F02F
:10119800AEEC0FF002A8D3EF08F0D5EF08F008EF97
:1011A80009F0000195510118496E965102184A6ECE
:1011B800975103184B6E985104184C6EFF0E491442
:1011C8004D6EEF0E4A144E6EFF0E4B144F6EFF0E0F
:1011D8004C14506E4D504E104F105010D8A4F7EFCD
:1011E80008F0F9EF08F004EF09F023A0FEEF08F08B
:1011F80000EF09F001EF09F02390968950EF09F00C
:10120800120E0E6E50EF09F0000195510118496E4B
:10121800965102184A6E975103184B6E985104184C
:101228004C6EFF0E49144D6EEF0E4A144E6EFF0EB3
:101238004B144F6EFF0E4C14506E4D504E104F1005
:101248005010D8A42AEF09F02CEF09F004EF09F0A8
:1012580023B031EF09F033EF09F034EF09F02380C0
:10126800969950EF09F00D50496E4A6A4A50000AA3
:10127800D8B441EF09F050EF09F04950000AD8B44A
:1012880050EF09F0010AD8B48AEF08F0030AD8B47D
:10129800B1EF08F050EF09F01200F0EF09F04B50F1
:1012A80007E1040E4A5CD8B05CEF09F05EEF09F084
:1012B80076EF09F060001BF1D9FF60001FF1DAFF3B
:1012C800600023F1E1FF600027F1E2FF6F007FFF7C
:1012D800E7FF484A492A464A472A4A06D8A04B0601
:1012E800F0EF09F04B5007E1080E4A5CD8B07FEFE9
:1012F80009F081EF09F0A7EF09F060001BF1D9FFB1
:1013080060001FF1DAFF600023F1E1FF600027F1C0
:10131800E2FF6F007BFFE6FF6F007BFFE6FF6F00D9
:101328007BFFE6FF6F007BFFE6FF040E4826000EFA
:101338004922040E4626000E4722040E4A5E000E7D
:101348004B5AF0EF09F04B5007E1100E4A5CD8B049
:10135800B0EF09F0B2EF09F0D2EF09F060001BF12D
:10136800D9FF60001FF1DAFF600023F1E1FF6000A0
:1013780027F1E2FF070E6F006FFFE3FFE806FBE2CD
:10138800080E4826000E4922080E4626000E47225F
:10139800080E4A5E000E4B5AF0EF09F060001BF190
:1013A800D9FF60001FF1DAFF600023F1E1FF600060
:1013B80027F1E2FF0F0E6F006FFFE3FFE806FBE285
:1013C800100E4826000E4922100E4626000E47220F
:1013D800100E4A5E000E4B5A4A504B10D8A4F7EF35
:1013E80009F0F9EF09F053EF09F01200010E306E21
:1013F800DAEC13F028A003EF0AF005EF0AF089EF02
:101408000AF02E50D8B40BEF0AF00DEF0AF089EF6E
:101418000AF02250D8B413EF0AF015EF0AF030EFB3
:101428000AF022A61AEF0AF01CEF0AF02DEF0AF0D4
:1014380026A621EF0AF023EF0AF02AEF0AF0040E9D
:10144800306EDAEC13F041EC0EF08086229689EFCC
:101458000AF0226A89EF0AF02150D8B436EF0AF070
:1014680038EF0AF05AEF0AF028B43DEF0AF03FEFE0
:101478000AF089EF0AF021A044EF0AF046EF0AF0DB
:1014880057EF0AF025A04BEF0AF04DEF0AF054EFA2
:101498000AF0400E306EDAEC13F07EEC02F0808633
:1014A800219089EF0AF0216A89EF0AF02050D8B418
:1014B80060EF0AF062EF0AF089EF0AF028A267EFFE
:1014C8000AF069EF0AF089EF0AF028B46EEF0AF023
:1014D80070EF0AF089EF0AF020A075EF0AF077EFB5
:1014E8000AF088EF0AF023A07CEF0AF07EEF0AF0FA
:1014F80085EF0AF0800E306EDAEC13F0B3EC15F0DD
:101508008086209089EF0AF0206A1200F3EF0AF033
:101518000C50D96EDA6A6F0078FF46F06F0074FFDE
:1015280047F060001BF1D9FF60001FF1DAFF60008F
:1015380047F0DEFF60004BF0DDFF0CEF0BF00C50C6
:10154800D96EDA6A6F0078FF46F06F0074FF47F0D3
:1015580060001BF1D9FF60001FF1DAFF6F0078FF10
:1015680011F06F0074FF12F02A6A11501210D8B4EB
:10157800C0EF0AF0C2EF0AF0CBEF0AF02A8211C0DE
:10158800A5F012C0A6F00001A76B0CEF0BF00F50EE
:101598001010D8B4D2EF0AF0D4EF0AF00CEF0BF029
:1015A8001C50D8B4DAEF0AF0DCEF0AF00CEF0BF0BD
:1015B800800E1D6E2A842A821C500F026F00CCFFF9
:1015C80046F06F00D0FF47F01002F350472646C0A0
:1015D800A5F047C0A6F00001A76B0CEF0BF00D506B
:1015E800466E476A4750000AD8B4FDEF0AF00CEF80
:1015F8000BF04650000AD8B40CEF0BF0010AD8B42F
:101608008CEF0AF0030AD8B4A3EF0AF00CEF0BF042
:10161800120076EF0BF00C50D96EDA6A6F0078FF83
:1016280046F06F0074FF47F060001BF1D9FF6000BF
:101638001FF1DAFF60003FF0DEFF600043F0DDFFDE
:101648008FEF0BF00C50D96EDA6A6F0078FF46F016
:101658006F0074FF47F060001BF1D9FF60001FF1B5
:10166800DAFF6F0078FF0FF06F0074FF10F02A6A3E
:1016780011501210D8B443EF0BF045EF0BF04EEFBA
:101688000BF02A8211C0A5F012C0A6F00001A76BCA
:101698008FEF0BF00F501010D8B455EF0BF057EF39
:1016A8000BF08FEF0BF01C50D8B45DEF0BF05FEF31
:1016B8000BF08FEF0BF0800E1D6E2A842A821C50CF
:1016C8000F026F00CCFF46F06F00D0FF47F010020A
:1016D800F350472646C0A5F047C0A6F00001A76B07
:1016E8008FEF0BF00D50466E476A4750000AD8B48A
:1016F80080EF0BF08FEF0BF04650000AD8B48FEF55
:101708000BF0010AD8B40FEF0BF0030AD8B426EF98
:101718000BF08FEF0BF01200F2EF0BF00C50D96EBC
:10172800DA6A6F0078FF46F06F0074FF47F06000D8
:101738001BF1D9FF60001FF1DAFF600073F0DFFFD3
:101748000BEF0CF00C50D96EDA6A6F0078FF46F098
:101758006F0074FF47F060001BF1D9FF60001FF1B4
:10176800DAFFDF501C6E2A6A11501210D8B4BFEF8E
:101778000BF0C1EF0BF0CAEF0BF02A8211C0A5F0F5
:1017880012C0A6F00001A76B0BEF0CF00F50101061
:10179800D8B4D1EF0BF0D3EF0BF00BEF0CF01C50DB
:1017A800D8B4D9EF0BF0DBEF0BF00BEF0CF0800E99
:1017B8001D6E2A842A821C500F026F00CCFF46F04F
:1017C8006F00D0FF47F01002F350472646C0A5F03F
:1017D80047C0A6F00001A76B0BEF0CF00D50466E4A
:1017E800476A4750000AD8B4FCEF0BF00BEF0CF037
:1017F8004650000AD8B40BEF0CF0010AD8B492EFA7
:101808000BF0030AD8B4A6EF0BF00BEF0CF01200A4
:101818006BEF0CF085C005F086C006F087C007F0B6
:1018280088C008F0FAEC0EF00C50D96EDA6A6F0036
:1018380078FF49F06F0074FF4AF0600027F1D9FF84
:1018480060002BF1DAFF600007F0DEFF60000BF0AC
:10185800DEFF60000FF0DEFF600013F0DEFF84EFB4
:101868000CF00C50D96EDA6A6F0078FF49F06F00FF
:1018780074FF4AF0600027F1D9FF60002BF1DAFF0E
:101888006F0078FF05F06F0078FF06F06F0078FFB3
:1018980007F06F0078FF08F0AEEC0FF002B457EFD6
:1018A8000CF059EF0CF067EF0CF0F8EC16F001C0F3
:1018B80085F002C086F003C087F004C088F0EAEC27
:1018C80015F084EF0CF0120E0E6E84EF0CF00D5034
:1018D800496E4A6A4A50000AD8B475EF0CF084EF92
:1018E8000CF04950000AD8B484EF0CF0010AD8B4BF
:1018F8000EEF0CF0030AD8B435EF0CF084EF0CF0BF
:101908001200000E292400019D6F9E6B070E9E2376
:101918009F6B000E9F23A06B000EA0239DC005F0B7
:101928009EC006F09FC007F0A0C008F0AEEC0FF014
:1019380001C09DF002C09EF003C09FF004C0A0F05B
:101948002A6A11501210D8B4ACEF0CF0AEEF0CF0BC
:10195800B8EF0CF02A82268611C0A5F012C0A6F0B6
:101968000001A76BF8EF0CF00F501010D8B4BFEFC0
:101978000CF0C1EF0CF0F8EF0CF01C50D8B4C7EF26
:101988000CF0C9EF0CF0F8EF0CF06F003CFE2BF0F8
:10199800040E306E9DC02FF09EC030F09FC031F015
:1019A800A0C032F049EC12F02EC01BF01B50D8B486
:1019B800E0EF0CF0E2EF0CF0F8EF0CF02686800E6A
:1019C8001D6E2A842A821C500F026F00CCFF48F03B
:1019D8006F00D0FF49F01002F350492648C0A5F027
:1019E80049C0A6F00001A76B12003A50D8B4FFEF27
:1019F8000CF001EF0DF067EF0DF03AA806EF0DF0CF
:101A080008EF0DF04DEF0DF00E6A010E0D6E02D8C5
:101A180017EF0DF00500FA6E3D50FD6E3E50FE6E5C
:101A2800FF6AFA50120068EF0DF035503D24516EF0
:101A380036503E20526E51C046F00C50D96EDA6ACC
:101A48006F0078FF47F06F0074FF48F033C049F02B
:101A580034C04AF069EC0DF067EF0DF035503D24C5
:101A6800466E36503E20476E0C50D96EDA6A6F00CB
:101A780078FF48F06F0074FF49F033C04AF034C073
:101A88004BF051EC09F067EF0DF0060E0E6E68EFA3
:101A98000DF03A50070B516E526A5250000AD8B4F2
:101AA80058EF0DF049EF0DF05150010AD8B432EF5C
:101AB8000DF0020AD8B432EF0DF0060AD8B419EFC7
:101AC8000DF049EF0DF00E6A1200CFEF0DF04A50FD
:101AD80007E1040E495CD8B074EF0DF076EF0DF015
:101AE8008AEF0DF04650D96EDA6A60001FF1E1FF07
:101AF800600023F1E2FF6F007FFFE7FF474A482AB3
:101B0800462A4906D8A04A06CFEF0DF04A5007E109
:101B1800080E495CD8B093EF0DF095EF0DF0B6EFD5
:101B28000DF04650D96EDA6A60001FF1E1FF6000DF
:101B380023F1E2FF6F007BFFE6FF6F007BFFE6FF0C
:101B48006F007BFFE6FF6F007BFFE6FF040E472672
:101B5800000E4822040E4626040E495E000E4A5A1C
:101B6800CFEF0DF04650D96EDA6A60001FF1E1FF41
:101B7800600023F1E2FF070E6F006FFFE3FFE80646
:101B8800FBE2080E4726000E4822080E4626080EDD
:101B9800495E000E4A5A49504A10D8A4D6EF0DF0B3
:101BA800D8EF0DF06BEF0DF0120027EF0EF00C5090
:101BB800D96EDA6A6F0078FF46F06F0074FF47F05D
:101BC80060001BF1D9FF60001FF1DAFF60004FF0E1
:101BD800DFFF40EF0EF00C50D96EDA6A6F0078FF25
:101BE80046F06F0074FF47F060001BF1D9FF6000FA
:101BF8001FF1DAFFDF50486EF10E486006EF0EF075
:101C080008EF0EF00EEF0EF048C013F013C0BBF053
:101C180040EF0EF0FE0E4818D8B415EF0EF017EF8F
:101C28000EF01FEF0EF04828D8A41DEF0EF01FEF9E
:101C38000EF023EF0EF048C013F040EF0EF0120E36
:101C48000E6E40EF0EF00D50466E476A4750000A80
:101C5800D8B431EF0EF040EF0EF04650000AD8B479
:101C680040EF0EF0010AD8B4DBEF0DF0030AD8B448
:101C7800EFEF0DF040EF0EF01200600077F281FFF9
:101C880060007BF282FF60007FF283FF600083F2D6
:101C980084FF010E856E2AB054EF0EF056EF0EF059
:101CA8009CEF0EF01D50800B1D6E2AA45EEF0EF007
:101CB80060EF0EF074EF0EF01DBE65EF0EF068EFEA
:101CC8000EF0010E69EF0EF0000EFF0A466E463266
:101CD80046321D5046187F0B46181D6E75EF0EF0E4
:101CE8001D9E28A47AEF0EF07CEF0EF081EF0EF027
:101CF8001D5004091D6E97EF0EF028A286EF0EF016
:101D080088EF0EF08DEF0EF01D5005091D6E97EF50
:101D18000EF028A092EF0EF094EF0EF097EF0EF071
:101D28001D507F091D6E600077F086FF9EEF0EF054
:101D38002A90866A120069EC14F028A0A6EF0EF02B
:101D4800A8EF0EF0F9EF0EF02E50D8B4AEEF0EF06B
:101D5800B0EF0EF0F9EF0EF0DFEF0EF028A2B7EFBC
:101D68000EF0B9EF0EF0F9EF0EF028B4BEEF0EF05A
:101D7800C0EF0EF0F9EF0EF0CDEF0EF023A0C7EF95
:101D88000EF0C9EF0EF0F9EF0EF030EC17F0F9EFA6
:101D98000EF02E503F0B466E476A4750000AD8B4E3
:101DA800D8EF0EF0F9EF0EF04650000AD8B4C2EFA3
:101DB8000EF0F9EF0EF02E50C00B466E476A4750F2
:101DC800000AD8B4EAEF0EF0F9EF0EF04650000A18
:101DD800D8B4F9EF0EF0400AD8B4F9EF0EF0C00A03
:101DE800D8B4B2EF0EF0F9EF0EF0120006A6FFEF2E
:101DF8000EF001EF0FF02BEF0FF005C004F006C056
:101E080003F020EE03F06F0078FF46F06F0074FFD8
:101E180047F0D89047324632D89047324632D89069
:101E28004732463246C003F047C004F00450200948
:101E3800046E06C046F0030E46160350FC0B46100F
:101E4800036E08C001F007C002F043EF0FF005C0B1
:101E580002F006C001F020EE01F06F0078FF46F0B6
:101E68006F0074FF47F0050E486ED890473246322F
:101E7800482E39EF0FF046C001F047C002F006A423
:101E880048EF0FF04AEF0FF04BEF0FF0048C06A865
:101E980050EF0FF052EF0FF053EF0FF0048E1200D7
:101EA800000E292400018D6F8E6B060E8E238F6B1A
:101EB800000E8F23906B000E90238DC005F08EC00E
:101EC80006F08FC007F090C008F0AEEC0FF001C02C
:101ED8008DF002C08EF003C08FF004C090F0800E29
:101EE80029240001896F8A6B050E8A238B6B000EEB
:101EF8008B238C6B000E8C2389C005F08AC006F0FA
:101F08008BC007F08CC008F0AEEC0FF001C089F070
:101F180002C08AF003C08BF004C08CF06F003CFE56
:101F28002BF0400E306E8DC02FF08EC030F08FC079
:101F380031F090C032F049EC12F02EC019F019506F
:101F4800D8B4A9EF0FF0ABEF0FF0ACEF0FF025808E
:101F5800186A120008AAB3EF0FF0B5EF0FF0DDEF23
:101F68000FF020EE07F06F0078FF46F06F0074FF67
:101F780047F0D89046364736D89046364736D890F8
:101F88004636473646C001F047C002F002C004F0AA
:101F980007C046F0030E46160150E00B461008092C
:101FA800026E04C001F005C004F006C003F0F6EFAD
:101FB8000FF005C046F006C047F0050ED89046362B
:101FC8004736E82EE2EF0FF046C001F047C002F0B6
:101FD800036A046A01C003F002C001F00350E00B79
:101FE800026E036A08AEFBEF0FF0FDEF0FF0FEEF95
:101FF8000FF0028808AC03EF10F005EF10F006EFC1
:1020080010F0028412003A50D8B40DEF10F00FEF20
:1020180010F056EF10F03AA814EF10F016EF10F089
:1020280040EF10F00E6A020E0D6E02D825EF10F088
:102038000500FA6E3D50FD6E3E50FE6EFF6AFA5086
:10204800120057EF10F00C50D96EDA6A6F0078FF63
:1020580046F06F0074FF47F03DC048F03EC049F0BD
:1020680033C04AF034C04BF051EC09F056EF10F091
:10207800070E0E6E57EF10F03A50070B516E526A6A
:102088005250000AD8B44BEF10F03CEF10F051500A
:10209800020AD8B427EF10F0010AD8B427EF10F0DD
:1020A8003CEF10F00E6A120013680001F86BF96B30
:1020B800010EF66FF56BF46B010EF76FE86BBD6BF5
:1020C800E96BE16BEA6BE26BEB6BE36BEC6BE46B7C
:1020D800ED6BE56BEE6BE66BEF6BE76B800E29241F
:1020E800056E066A010E0622076A000E0722086AB4
:1020F800C00E0822AEEC0FF001C095F002C096F0B9
:1021080003C097F004C098F0000E2924056E066AF3
:10211800020E0622076A000E0722086AC00E08226D
:10212800AEEC0FF001C099F002C09AF003C09BF02A
:1021380004C09CF0E80E0001946FE00E926F080E48
:10214800936F120085500F0B020AD8A4AEEF10F05F
:10215800B0EF10F0EFEF10F087502918D8B4B7EFB0
:1021680010F0B9EF10F0D8EF10F08750D8A4BFEFF7
:1021780010F0C1EF10F0EFEF10F0D8EF10F0288258
:10218800289435EC17F0EFEF10F02884C5EF10F025
:1021980028922894C5EF10F036EC17F02EEC17F0C3
:1021A800E9EC14F0EFEF10F08650010AD8B4C3EF51
:1021B80010F0030AD8B4C9EF10F0820AD8B4CCEFF3
:1021C80010F0010AD8B4D0EF10F0030AD8B4D2EF57
:1021D80010F0EFEF10F012003901A5A3F6EF10F0A0
:1021E800F8EF10F037EF11F0500E916E80AEFFEF60
:1021F80010F001EF11F003EF11F02AEF11F03701A1
:10220800F0AF09EF11F00BEF11F00FEF11F0510ED5
:10221800916E2AEF11F040AF14EF11F016EF11F0A4
:102228001AEF11F0520E916E2AEF11F050AF1FEF16
:1022380011F021EF11F025EF11F0530E916E2AEFF6
:1022480011F02E6A3901A59338EF11F06F0000FEE6
:1022580046F00F0E461646507D0FD96EDA6ADF50EB
:102268002E6E38EF11F02E6A12002AA23EEF11F0FE
:1022780040EF11F07FEF11F0F80E0001A527FF0ED7
:10228800A623FF0EA723A7BF55EF11F0A751A6114C
:1022980006E1A505D8B053EF11F055EF11F07FEF27
:1022A80011F02AB45AEF11F05CEF11F06DEF11F054
:1022B80011C047F012C048F0496AA5514724A56FDC
:1022C800A6514820A66FA7514920A76F22867FEF05
:1022D80011F01C500F026F00CCFF47F06F00D0FFC9
:1022E80048F01002F350482647C0A5F048C0A6F0B1
:1022F800A76B54EC16F012002AA285EF11F087EFB5
:1023080011F0C6EF11F0F80E0001A527FF0EA62365
:10231800FF0EA723A7BF9CEF11F0A751A61106E156
:10232800A505D8B09AEF11F09CEF11F0C6EF11F0A7
:102338002AB4A1EF11F0A3EF11F0B4EF11F011C01E
:1023480040F012C041F0426AA5514024A56FA65141
:102358004120A66FA7514220A76F2286C6EF11F031
:102368001C500F026F00CCFF40F06F00D0FF41F00F
:102378001002F350412640C0A5F041C0A6F0A76B5B
:1023880066EC16F01200E4EF11F0270E3701036F28
:10239800980E046F810E056F0BEF12F0410E370196
:1023A800036FBA0E046F070E056F0BEF12F0070EDE
:1023B8003701036F980E046F010E056F0BEF12F0D3
:1023C8002D50000AD8B4C9EF11F0010AD8B4D2EFE1
:1023D80011F0030AD8B4DBEF11F0010AD8B4D2EF38
:1023E80011F0070AD8B4D2EF11F0010AD8B4D2EF2D
:1023F80011F0030AD8B4D2EF11F0010AD8B4D2EF21
:1024080011F00F0AD8B4D2EF11F0C9EF11F0120091
:102418002C6A400E8F6E800E8F6EC7EC11F037015C
:102428003D6B806AF06B406B506B606B706B806BC0
:10243800906B500E916E066B076B306B316B110E03
:10244800326F220E336F330E346F440E356F550ED4
:10245800366F660E376F770E386F3C6B3B6B3A6B97
:10246800396BB869E30EB96FBA69BB69200E006FA2
:102478001C0E3F6F3E6900017D6B7E6B7F6B806B2E
:10248800816B826B836B846B1200466A46507D0FAA
:10249800D96EDA6ADF50D8A454EF12F056EF12F072
:1024A8007AEF12F046507D0FD96EDA6A6000C3F0F9
:1024B800DFFF6F007CFF2EF020EE2FF04650040D5A
:1024C800000EF324E16E010EF420E26E6F007BFF34
:1024D800E6FF6F007BFFE6FF6F007BFFE6FF6F0004
:1024E8007BFFE6FF010E2C6E84EF12F0462A070EE2
:1024F800466481EF12F083EF12F04AEF12F02E6A71
:102508001200AEEF12F089C005F08AC006F08BC049
:1025180007F08CC008F0FAEC0EF00C50D96EDA6AAD
:102528006F0078FF49F06F0074FF4AF0600027F1F0
:10253800D9FF60002BF1DAFF600007F0DEFF6000D2
:102548000BF0DEFF60000FF0DEFF600013F0DEFF2F
:10255800BFEF12F00D50496E4A6A4A50000AD8B4CB
:10256800B8EF12F0BFEF12F04950010AD8B487EF64
:1025780012F0BFEF12F01200E9EF12F08DC005F073
:102588008EC006F08FC007F090C008F0FAEC0EF08D
:102598000C50D96EDA6A6F0078FF49F06F0074FF4B
:1025A8004AF0600027F1D9FF60002BF1DAFF6000E4
:1025B80007F0DEFF60000BF0DEFF60000FF0DEFFCB
:1025C800600013F0DEFFFAEF12F00D50496E4A6A10
:1025D8004A50000AD8B4F3EF12F0FAEF12F049505B
:1025E800010AD8B4C2EF12F0FAEF12F0120028A0D4
:1025F80000EF13F002EF13F035EF13F02350D8B4C7
:1026080008EF13F00AEF13F013EF13F023A00FEF06
:1026180013F011EF13F013EF13F034EC17F026500A
:10262800D8B419EF13F01BEF13F024EF13F026A61C
:1026380020EF13F022EF13F024EF13F039EC11F030
:102648002550D8B42AEF13F02CEF13F035EF13F020
:1026580025A031EF13F033EF13F035EF13F077ECDB
:1026680015F0120028A03BEF13F03DEF13F070EFC8
:1026780013F02350D8B443EF13F045EF13F04EEFA7
:1026880013F023A04AEF13F04CEF13F04EEF13F0C2
:1026980038EC17F02650D8B454EF13F056EF13F077
:1026A8005FEF13F026A65BEF13F05DEF13F05FEF1B
:1026B80013F080EC11F02550D8B465EF13F067EFF4
:1026C80013F070EF13F025A06CEF13F06EEF13F01A
:1026D80070EF13F095EC15F01200B9EC16F0D28EED
:1026E800200E466E2A0E476E25EC17F02AEC17F0DE
:1026F800120E0001856F000E866F000E876F000EA8
:10270800886F020E296E276A126A100E116E106AFF
:10271800000E0F6E1C6A58EC10F0E9EC14F02890CB
:1027280028822894EFEC16F0050E586E0F0E576E9F
:10273800F10EE82EFED7572EFCD7582EFAD70000F8
:1027480096EF13F00DEF00F01350D8A4AEEF13F08E
:10275800B0EF13F0BCEF13F00001BCA5B6EF13F017
:10276800B8EF13F0BCEF13F0BC95BC81D9EF13F0B0
:102778001350D8B4C2EF13F0C4EF13F0D9EF13F02D
:10278800F10E1360CAEF13F0CCEF13F0D9EF13F08A
:102798000001BB07BB51D8A4D4EF13F0D6EF13F058
:1027A800D9EF13F013C0BBF0BC8112003701E0B7BA
:1027B800E0EF13F0E2EF13F0EAEF13F0430E916E3F
:1027C80030C0A8F0A8C02EF009EF14F0D0B7EFEF92
:1027D80013F0F1EF13F0F9EF13F0440E916E30C0DF
:1027E800A9F0A9C02EF009EF14F0C0B7FEEF13F05E
:1027F80000EF14F008EF14F0450E916E30C0AAF007
:10280800AAC02EF009EF14F02E6A12006F00E8FF3C
:1028180044F06F00ECFF45F0390195AD16EF14F068
:1028280018EF14F023EF14F0A5AD1DEF14F01FEF0F
:1028380014F023EF14F0A9EC16F033EF14F093AF73
:1028480028EF14F02AEF14F033EF14F0A3AF2FEFB2
:1028580014F031EF14F033EF14F03BEC16F0600095
:1028680017F1FBFF600013F1FAFF1100BA6ABB6AA7
:10287800BC6AC268EA0EC36E3F0EC46E3F0E3A01D0
:10288800606FF50E506F4069816B516B416B616BE6
:10289800426B526BFE0E626F436953696369446908
:1028A80054696469080E846F170EE46F130E086F7D
:1028B800330E0A6F0B0EED6F210E166F090EE76FC0
:1028C800220E176F160EE36F12003701E0AF6FEF9D
:1028D80014F071EF14F078EF14F0430E916EE09F4E
:1028E800A8C02EF095EF14F0D0AF7DEF14F07FEF75
:1028F80014F086EF14F0440E916EE09FA9C02EF0FC
:1029080095EF14F0C0AF8BEF14F08DEF14F094EF47
:1029180014F0450E916EE09FAAC02EF095EF14F0CA
:102928002E6A12002AA49BEF14F09DEF14F0C0EF5A
:1029380014F085ACA2EF14F0A4EF14F0C0EF14F07B
:1029480085500F0BE806D8A4ACEF14F0AEEF14F0E6
:10295800C0EF14F022861C500F026F00CCFF46F027
:102968006F00D0FF47F01002F350472646C0A5F08D
:1029780047C0A6F00001A76B12003D01EC6BED6BA0
:10298800EE6BEF6BF06BF16BB00EF26F800EF36FC6
:10299800F46B820EF56F060EF66FF76BF86BF96B3A
:1029A800FA6B660E466E2E0E476E1BEC17F0640E21
:1029B800466E2E0E476E16EC17F0620E466E2E0E01
:1029C800476E20EC17F0146A1200286A266A256AF6
:1029D800246A236A226A216A206A0001C06BBF6BDD
:1029E8001F6A27C02DF00CEC12F020EC16F0EAEC70
:1029F80015F054EC0FF085EC0CF005EC16F0238084
:102A0800DFEC05F08F6A2A80306ADAEC13F041ECCB
:102A18000EF0808628801200D3AE15EF15F058EF1F
:102A280015F020B01AEF15F01CEF15F031EF15F086
:102A38000001E82BE8812080BBB825EF15F028EFCE
:102A480015F0010E29EF15F0000EFF0A4A6E4A3AFA
:102A5800BB504A18EF0B4A18BB6EFBEC12F0120081
:102A6800476A47507D0FD96EDA6A3050DE18D8A40D
:102A780040EF15F042EF15F04DEF15F047507D0F80
:102A8800D96EDA6ADF6A010E2C6E010E2E6E57EFD0
:102A980015F0472A070E476454EF15F056EF15F066
:102AA80035EF15F02E6A120020B05DEF15F05FEFDC
:102AB80015F074EF15F00001E82BE8812080BBB811
:102AC80068EF15F06BEF15F0010E6CEF15F0000EC6
:102AD800FF0A436E433ABB504318EF0B4318BB6ED3
:102AE80036EC13F0120018AA7CEF15F07EEF15F003
:102AF80094EF15F0080E0001B75F000EB85BB8BF81
:102B080090EF15F0B85106E1B705D8B08EEF15F083
:102B180090EF15F094EF15F0186A020E176E2180E9
:102B2800120018AA9AEF15F09CEF15F0B2EF15F005
:102B3800080E0001B75F000EB85BB8BFAEEF15F026
:102B4800B85106E1B705D8B0ACEF15F0AEEF15F007
:102B5800B2EF15F0186A020E176E2180120060009D
:102B680057F281FF60005BF282FF60005FF283FF33
:102B7800600063F284FF00019451D96EDA6A1FEE97
:102B880086F3070E6F006FFFE3FFE806FBE26000C5
:102B98004FF285FF120000EE00F1200EEE6AE80603
:102BA800FDE100EE60F09B0EEE6AE806FDE100EE46
:102BB80001F03E0EEE6AE806FDE1080ED56E000E45
:102BC800D66E000ED76E000171EF13F06F003CFE59
:102BD8002BF0020E306E85C02FF086C030F087C013
:102BE80031F088C032F049EC12F02EC015F01550C3
:102BF800D8B401EF16F003EF16F004EF16F02682B2
:102C080012006F003CFE2BF0800E306E99C02FF042
:102C18009AC030F09BC031F09CC032F049EC12F001
:102C28002EC01AF01A50D8B41CEF16F01EEF16F08A
:102C38001FEF16F0248012006F003CFE2BF0010EEF
:102C4800306E000E2F6E000E306E000E316E000ECC
:102C5800326E49EC12F02EC01EF01E50D8B437EF79
:102C680016F039EF16F03AEF16F026801200390107
:102C7800A39F0001AB51AC11D8B445EF16F047EF54
:102C880016F053EF16F002D853EF16F00500FA6E5F
:102C9800AB51FD6EAC51FE6EFF6AFA501200120085
:102CA800BBB859EF16F05CEF16F0010E5DEF16F0A9
:102CB800000EFF0A466E463ABB504618EF0B461800
:102CC800BB6E1200BBB86BEF16F06EEF16F0010E7C
:102CD8006FEF16F0000EFF0A3F6E3F3ABB503F18E9
:102CE800EF0B3F18BB6E12004E0EB96EF30EB76EA7
:102CF800B66A3901A39F938F140E466E2E0E476E47
:102D080025EC17F0800EB86E1200200E3901D96F2D
:102D1800DB6BDD6B020EDF6FDE6BDCA196EF16F06E
:102D280098EF16F091EF16F012002FEE86F30001DF
:102D38009251E16EE26A070E6F006FFFE3FFE8064B
:102D4800FBE285500F0B916F120002D8B6EF16F018
:102D58000500FA6E0001AD51FD6EAE51FE6EFF6AC0
:102D6800FA5012003901A59D12002CEC17F0E5EC81
:102D780016F0D7EC16F03AEC14F089EC16F078EC73
:102D880016F0C1EC14F012006F0014FE46F00F0E9E
:102D98004616D8A4D2EF16F0D4EF16F0D6EF16F0F8
:102DA800A8EC13F01200040E3D01736F800E746FCF
:102DB800180E756F030E7B6F796B7A6B766B6C6987
:102DC80012003901C06BC16BC26BC36BC46BC56B9E
:102DD800C66BC76B1200DFEC05F0EDEC06F0FAEC01
:102DE80009F09FEC0EF012006F003CFE2BF015C0AE
:102DF80030F034EC15F0269212006F003CFE2BF0F8
:102E08001AC030F034EC15F024901200D3AE0FEF56
:102E180017F037EF17F01200D3AE15EF17F039EFB0
:102E280017F0120046C0B1F047C0B2F0120046C019
:102E3800B3F047C0B4F0120046C0AFF047C0B0F0DE
:102E4800120046C0ABF047C0ACF01200B88E1200BA
:102E5800D29A1200FF001200120012001200120093
:0C2E6800120012001200120012001200F2
:10FD2C0000000000000000000000000000000000C7
:10FD3C0000000000000000000000000000000000B7
:10FD4C0000000000000000001000050400F6FF0198
:10FD5C001000010100FA00021000010400F000057F
:10FD6C001000130400181808100005180003FF09F0
:10FD7C001000050400D1FF0A1000050400CCFF0C94
:10FD8C0010001302001A160D100013010020171793
:10FD9C0010001302001415181000050100FEFF18C6
:10FDAC001001050400F2FF181002050400EEFF1804
:10FDBC001003050400EAFF181004050400E6FF0018
:10FDCC006000010100E800026000050100FCFF0278
:10FDDC006001030100F900036000050100FCFF0352
:10FDEC006001030100F800056000050100FCFF053F
:10FDFC006001030100F700066000050100FCFF062E
:10FE0C006001030100F600076000050100FCFF071C
:10FE1C006001030100F500086000050100FCFF080B
:10FE2C006001030100F400006200030100E0000027
:10FE3C001A00050100FBFF001A01050400DAFF009F
:10FE4C001A02050400DEFF001A03050400DEFF00A1
:10FE5C001A04050400DEFF001A05050400DEFF008D
:10FE6C001A06050400DEFF001A07050400DEFF0079
:10FE7C001A08050400DEFF001600050100FBFF0058
:10FE8C001601050400E2FF001602050400DEFF0067
:10FE9C001603050400DEFF001604050400DEFF0057
:10FEAC001605050400DEFF001606050400DEFF0043
:10FEBC001607050400DEFF001608050400DEFF012E
:10FECC000000260100D6FF020000260100D6FF0329
:10FEDC000000260200D6FF040000260400D6FF0511
:10FEEC000000260100D6FF060000260200D6FF0700
:10FEFC000000260400D6FF4D6963726F6368697059
:10FF0C002043414E6F70656E2044657669636500D1
:10FF1C00001800050100FAFF00180113040010116D
:10FF2C00001802130100B21B001200050100FDFFB6
:10FF3C0000120111040080250012021104000A2590
:10FF4C00009000000100D6FF009000000100D6FFD9
:10FF5C00008000000100D6FF008000000100D6FFE9
:10FF6C00007000000100D6FF007000000100D6FFF9
:10FF7C00005000000100D6FF005000000100D6FF29
:10FF8C00004000000100D6FF004000000100D6FF39
:10FF9C00003000000100D6FF003000000100D6FF49
:10FFAC00002000000100D6FF002000000100D6FF59
:10FFBC00001400050100FCFF001401130400760F6F
:10FFCC0056312E300056312E300000000000080152
:10FFDC000060080000000801006221436587785624
:10FFEC00341221436587785634124A93080002086C
:04FFFC0001030400F9
:020000040020DA
:10000000FF0FFF0FFF0FFF0FFF0FFF0FFF0FFF0F80
:020000040030CA
:0A000000AAFFF7FF9FFFFFFFFFFFBD
:00000001FF
