:040000000DEF00F010
:0400080017EF10F0EE
:10001800FF00FCEF10F085500F0B080AD8A417EF6B
:1000280000F019EF00F0D1EF02F0000E1C6E6F0027
:1000380018FE1BF0AEEF02F01DAA25EF00F027EF27
:1000480000F0D1EF02F01DAC2CEF00F02EEF00F025
:10005800D1EF02F01D501B18266F26A936EF00F0CD
:1000680038EF00F041EF00F0000E1D6E010E1C6E1F
:100078002780D1EF02F0D1EF02F02FEE87F3C80E00
:100088003B24E16E000E3C20E26E060E6F006FFF0F
:10009800E3FFE806FBE21B30070BFF0A266F070E9B
:1000A800261726513B26000E3C223B50415C3C5013
:1000B8004258D8B062EF00F064EF00F06AEF00F049
:1000C800000E1D6E0E0E1C6E3CEF00F01DB86FEF9B
:1000D80000F072EF00F0010E73EF00F0000EFF0A5F
:1000E800266F263B1D502619EF0B26191D6E1B5037
:1000F8002009F00B0001DC6F1BA085EF00F087EFF3
:1001080000F03CEF00F0C80E376E000E386E370E68
:10011800096E000E0A6ECEEC0DF0000E1D6E0CC0BE
:100128001CF03CEF00F01D9A6F001CFE3DF03DC036
:10013800DDF06F0020FE3EF03EC0DEF06F0024FED2
:100148003FF03FC0DFF0000E0001E06F000EE16FEE
:10015800000EE26F000EE36F370E096E000E0A6E96
:100168009FEC04F00C50D8A4BCEF00F0BEEF00F0F8
:1001780043EF01F040A2C3EF00F0C5EF00F03FEFFE
:1001880001F01BA2CAEF00F0CCEF00F008EF01F07D
:100198001BA0D1EF00F0D3EF00F0E3EF00F01B302D
:1001A800E832030BFF0A0101266F030E2617010E22
:1001B8002625396E3A6A000E3A22E7EF00F041C070
:1001C80039F042C03AF04150391807E142503A1824
:1001D800D8A4F1EF00F0F3EF00F004EF01F0000E07
:1001E8001D6E8A0E376E3F0E386E370E096E000E82
:1001F8000A6ECEEC0DF0600E0001DC6F93EF00F09C
:100208000E0E1C6E3CEF00F01BA00DEF01F00FEF7F
:1002180001F02BEF01F08C508D100009D8B417EFC6
:1002280001F019EF01F01BEF01F004EF01F02FEEE0
:100238008AF3DE50411809E1DE504218D8B427EF9E
:1002480001F029EF01F02BEF01F004EF01F041C0BC
:1002580039F042C03AF01D8A1D8C1D98000E3C6E84
:10026800000E3B6E010E0001C16FF40EC06F600EF0
:10027800DC6F3CEF00F0070E1C6E3CEF00F00CC08A
:100288001CF02780D1EF02F01D9A6F001CFE3DF094
:100298003DC0DDF06F0020FE3EF03EC0DEF06F0096
:1002A80024FE3FF03FC0DFF0000E0001E06F000EBB
:1002B800E16F000EE26F000EE36F370E096E000E5D
:1002C8000A6E9FEC04F00C50D8A46DEF01F06FEFAC
:1002D80001F043EF01F040A074EF01F076EF01F078
:1002E800DBEF01F0000E3C6E000E3B6E000E1D6E43
:1002F800425009E1050E415CD8A085EF01F087EF77
:1003080001F0ADEF01F0010E0001C16FF40EC06FF6
:100318001D8AE00E376E000E386E41C0E0F042C014
:10032800E1F0410EDC6F3CEF00F04F0E0001DC6F96
:10033800CBEF01F04B0E0001DC6FCBEF01F0470E65
:100348000001DC6FCBEF01F0430E0001DC6FCBEF57
:1003580001F041500101266F276B2751000AD8B4DC
:10036800B8EF01F0CBEF01F02651010AD8B499EFAC
:1003780001F0030AD8B49EEF01F0010AD8B4A3EF44
:1003880001F0070AD8B4A8EF01F0CBEF01F041C0A3
:1003980039F042C03AF0E00E376E000E386E370E74
:1003A800096E000E0A6E38EC0AF093EF00F0060EA4
:1003B8001C6E3CEF00F01DAAE4EF01F0E6EF01F03F
:1003C800D1EF02F01DBCEBEF01F0EDEF01F03FEFD4
:1003D80000F01D501B18266F26A9F5EF01F0F7EF66
:1003E80001F0F9EF01F038EF00F0DD0E376E000E86
:1003F800386E3B50415C0001BE6F3C504258BF6FA5
:10040800BF5109E1080EBE5DD8A00DEF02F00FEF55
:1004180002F017EF02F0000EDC6F000E3A6E070EC6
:10042800396E84EF02F0000E1D6E5AEF02F00D0EC9
:100438000001DC6F000E3A6E010E396E84EF02F097
:100448000B0E0001DC6F000E3A6E020E396E84EF5F
:1004580002F0090E0001DC6F000E3A6E030E396ED1
:1004680084EF02F0070E0001DC6F000E3A6E040EF6
:10047800396E84EF02F0050E0001DC6F000E3A6E53
:10048800050E396E84EF02F0030E0001DC6F000EDA
:100498003A6E060E396E84EF02F0010E0001DC6F31
:1004A800000E3A6E070E396E84EF02F0BE5101015C
:1004B800266F276B2751000AD8B465EF02F084EF46
:1004C80002F02651010AD8B41BEF02F0030AD8B48F
:1004D80024EF02F0010AD8B42DEF02F0070AD8B4CD
:1004E80036EF02F0010AD8B43FEF02F0030AD8B49D
:1004F80048EF02F0010AD8B451EF02F084EF02F09D
:100508000001DC99370E096E000E0A6E38EC0AF00D
:1005180020EE39F0DE503B26DD503C221DB897EF27
:1005280002F09AEF02F0010E9BEF02F0000EFF0AB4
:100538000101266F263B1D502619EF0B26191D6E4B
:1005480093EF00F0000E1D6ED1EF02F0030E1C6E4B
:100558003CEF00F01B50E00B0101266F276B275181
:10056800000AD8B4BAEF02F0AAEF02F02651000A46
:10057800D8B420EF00F0200AD8B497EF00F0600A52
:10058800D8B448EF01F0200AD8B4DFEF01F0E00A50
:10059800D8B4A6EF02F0AAEF02F0120060005BF2F6
:1005A80081FF60005FF282FF600063F283FF6000FA
:1005B80067F284FF080E856E1C50D8A4E6EF02F09F
:1005C800E8EF02F0F4EF02F020EEDCF01FEE86F325
:1005D800070E6F006FFFE3FFE806FBE29EEF04F0F3
:1005E800800E866E6000F7F087FF6000FBF088FFE2
:1005F8006000FFF089FF2DEF04F02FEE8AF3000E64
:10060800DE6E000EDE6E030EDE6E050EDD6E9EEFF4
:1006180004F02FEE8AF3000EDE6E000EDE6E040E7E
:10062800DE6E050EDD6E9EEF04F02FEE8AF3010EEE
:10063800DE6E000EDE6E040EDE6E050EDD6E9EEFC3
:1006480004F02FEE8AF3050EDE6E000EDE6E040E49
:10065800DE6E050EDD6E9EEF04F02FEE8AF3000EBF
:10066800DE6E000EDE6E010EDE6E060EDD6E9EEF95
:1006780004F02FEE8AF3010EDE6E000EDE6E010E20
:10068800DE6E060EDD6E9EEF04F02FEE8AF3020E8C
:10069800DE6E000EDE6E010EDE6E060EDD6E9EEF65
:1006A80004F02FEE8AF3000EDE6E000EDE6E020EF0
:1006B800DE6E060EDD6E9EEF04F02FEE8AF3410E1D
:1006C800DE6E000EDE6E040EDE6E060EDD6E9EEF32
:1006D80004F02FEE8AF3420EDE6E000EDE6E040E7C
:1006E800DE6E060EDD6E9EEF04F02FEE8AF3430EEB
:1006F800DE6E000EDE6E040EDE6E060EDD6E9EEF02
:1007080004F02FEE8AF3470EDE6E000EDE6E040E46
:10071800DE6E060EDD6E9EEF04F02FEE8AF3000EFD
:10072800DE6E000EDE6E060EDE6E060EDD6E9EEFCF
:1007380004F02FEE8AF3100EDE6E000EDE6E070E4A
:10074800DE6E060EDD6E9EEF04F02FEE8AF3120EBB
:10075800DE6E000EDE6E070EDE6E060EDD6E9EEF9E
:1007680004F02FEE8AF3130EDE6E000EDE6E070E17
:10077800DE6E060EDD6E9EEF04F02FEE8AF3110E8C
:10078800DE6E000EDE6E090EDE6E060EDD6E9EEF6C
:1007980004F02FEE8AF3300EDE6E000EDE6E090EC8
:1007A800DE6E060EDD6E9EEF04F02FEE8AF3310E3C
:1007B800DE6E000EDE6E090EDE6E060EDD6E9EEF3C
:1007C80004F02FEE8AF3320EDE6E000EDE6E090E96
:1007D800DE6E060EDD6E9EEF04F02FEE8AF3360E07
:1007E800DE6E000EDE6E090EDE6E060EDD6E9EEF0C
:1007F80004F02FEE8AF3000EDE6E000EDE6E000EA1
:10080800DE6E080EDD6E9EEF04F02FEE8AF3200EEA
:10081800DE6E000EDE6E000EDE6E080EDD6E9EEFE2
:1008280004F02FEE8AF3210EDE6E000EDE6E000E4F
:10083800DE6E080EDD6E9EEF04F02FEE8AF3220EB8
:10084800DE6E000EDE6E000EDE6E080EDD6E9EEFB2
:1008580004F01C50526E536A5350000AD8B437EF54
:1008680004F09EEF04F05250010AD8B401EF03F0EF
:10087800030AD8B40DEF03F0010AD8B419EF03F056
:10088800070AD8B425EF03F0010AD8B431EF03F012
:10089800030AD8B43DEF03F0010AD8B449EF03F0D6
:1008A8000F0AD8B455EF03F0010AD8B461EF03F08A
:1008B800030AD8B46DEF03F0010AD8B479EF03F056
:1008C800070AD8B485EF03F0010AD8B491EF03F012
:1008D800030AD8B49DEF03F0010AD8B4A9EF03F0D6
:1008E8001F0AD8B4B5EF03F0010AD8B4C1EF03F07A
:1008F800030AD8B4CDEF03F0010AD8B4D9EF03F056
:10090800070AD8B4E5EF03F0010AD8B4F1EF03F011
:10091800030AD8B4FDEF03F0010AD8B409EF04F0D4
:100928000F0AD8B415EF04F0010AD8B421EF04F087
:100938009EEF04F012003DC00DF03EC00EF03FC027
:100948000FF057EF05F0CB0E146EFE0E156E070E66
:10095800246E8DEF05F0AC0E146EFF0E156E020EB0
:10096800246E8DEF05F09C0E146EFF0E156EB3EF1E
:1009780004F08C0E146EFF0E156EB3EF04F07C0EAF
:10098800146EFF0E156EB3EF04F0CB0E146EFD0E51
:10099800156E0E0E246E8DEF05F06C0E146EFF0EA4
:1009A800156EB3EF04F05C0E146EFF0E156EB3EF08
:1009B80004F04C0E146EFF0E156EB3EF04F0530ED8
:1009C800146EFD0E156E0F0E246E8DEF05F0340EAD
:1009D800146EFF0E156E030E246E8DEF05F00D508C
:1009E800D8A4F9EF04F0FBEF04F001EF05F0BC0E1A
:1009F800146EFF0E156EB3EF04F0080E0C6E1BEFAD
:100A080006F00D50D8A40BEF05F00DEF05F001EF3F
:100A180005F0830E146EFE0E156E090E246E8DEF12
:100A280005F00D50D8A41BEF05F01DEF05F001EF00
:100A380005F01C0E146EFF0E156EEFEF04F00D504E
:100A4800D8A429EF05F02BEF05F001EF05F03B0ED8
:100A5800146EFE0E156E11EF05F00E500F0B526E50
:100A6800536A5350000AD8B43CEF05F001EF05F083
:100A78005250000AD8B4E3EF04F0020AD8B4EBEFFE
:100A880004F0060AD8B4F3EF04F0020AD8B405EF6C
:100A980005F00E0AD8B415EF05F0020AD8B423EF12
:100AA80005F001EF05F00E50F00B526E536A5350EB
:100AB800000AD8B462EF05F001EF05F05250000AC1
:100AC800D8B4A7EF04F0100AD8B431EF05F0300A13
:100AD800D8B4AFEF04F0100AD8B4B7EF04F0700A36
:100AE800D8B4BDEF04F0100AD8B4C3EF04F0300A4C
:100AF800D8B4C9EF04F0100AD8B4D1EF04F0F00A62
:100B0800D8B4D7EF04F0100AD8B4DDEF04F001EF41
:100B180005F0080E0C6E600053F0F6FF600057F009
:100B2800F7FFF86A09006F00D4FFAAF009006F0008
:100B3800D4FFABF009006F00D4FFACF00A006F00DF
:100B4800D4FFADF013EF06F00001AB510E18D8A496
:100B5800B0EF05F0B2EF05F0F7EF05F0AA510D1868
:100B6800D8A4B9EF05F0BBEF05F0F7EF05F0110ECB
:100B78000C6EAC510F18D8B4C4EF05F0C6EF05F0F1
:100B8800CDEF05F0ADADCBEF05F0CDEF05F0F7EF0C
:100B980005F0600053F0F6FF600057F0F7FFF86AC1
:100BA80020EE3DF0070E09006F00D7FFDEFFE806D4
:100BB800FAE2ADADE2EF05F0E4EF05F0E6EF05F09F
:100BC8000FC03FF0ADA9EBEF05F0EDEF05F0F3EF47
:100BD80005F0000E0C6E000E0B6E1BEF06F0000EFB
:100BE8000C6E1BEF06F0080E1426000E15222406C4
:100BF800600053F0F6FF600057F0F7FFF86A09004D
:100C08006F00D4FFAAF009006F00D4FFABF0090011
:100C18006F00D4FFACF00A006F00D4FFADF0245091
:100C2800D8A419EF06F01BEF06F0A8EF05F01200A4
:100C38003250D8B422EF06F024EF06F031EF07F077
:100C48001BEF07F08EAE2BEF06F02DEF06F00CEF42
:100C580007F000018451D8B434EF06F036EF06F0FF
:100C680046EF06F0600003F4A0F7600007F4A1F770
:100C780060000BF4A2F760000FF4A3F737010681B8
:100C880048EF06F03701069100018551D8B44FEFBF
:100C980006F051EF06F061EF06F0600013F4A4F7D8
:100CA800600017F4A5F760001BF4A6F760001FF4B6
:100CB800A7F73701068363EF06F0370106930001B3
:100CC8008651D8B46AEF06F06CEF06F07CEF06F0B8
:100CD800600023F4A8F7600027F4A9F760002BF45C
:100CE800AAF760002FF4ABF7370106857EEF06F010
:100CF8003701069500018751D8B485EF06F087EFD4
:100D080006F097EF06F0600033F4ACF7600037F4B4
:100D1800ADF760003BF4AEF760003FF4AFF7370182
:100D2800068799EF06F03701069700018851D8B475
:100D3800A0EF06F0A2EF06F0B2EF06F0600043F471
:100D4800B0F7600047F4B1F760004BF4B2F7600009
:100D58004FF4B3F737010689B4EF06F03701069967
:100D680000018951D8B4BBEF06F0BDEF06F0CDEF16
:100D780006F0600053F4B4F7600057F4B5F760006C
:100D88005BF4B6F760005FF4B7F73701068BCFEF77
:100D980006F03701069B00018A51D8B4D6EF06F059
:100DA800D8EF06F0E8EF06F0600063F408F760009B
:100DB80067F409F760006BF40AF760006FF40BF74B
:100DC8003701068DEAEF06F03701069D00018B51C9
:100DD800D8B4F1EF06F0F3EF06F003EF07F0600088
:100DE80073F40CF7600077F40DF760007BF40EF7EE
:100DF80060007FF40FF73701068F05EF07F0370122
:100E0800069F000E326E6000C7F08FFF31EF07F0CB
:100E1800800E8F6E31EF07F08FAE15EF07F017EFEA
:100E280007F00CEF07F033EC0DF005EF07F0325048
:100E38000101206F216B2151000AD8B426EF07F079
:100E480031EF07F02051010AD8B426EF06F0030A63
:100E5800D8B410EF07F031EF07F0120082EC0DF074
:100E68002EA039EF07F03BEF07F002EF08F03450FF
:100E7800D8B441EF07F043EF07F002EF08F0E4EFD2
:100E880007F02CA04AEF07F04CEF07F0FFEF07F050
:100E9800DEEC0CF0FFEF07F0FFEF07F02CA257EFA6
:100EA80007F059EF07F0FFEF07F02EB45EEF07F0F9
:100EB80060EF07F0FFEF07F038EC12F0FFEF07F0F4
:100EC8002CA669EF07F06BEF07F0FFEF07F075EC62
:100ED80010F0FFEF07F034503F0B286F296B2951B2
:100EE800000AD8B47AEF07F0FFEF07F02851010A9B
:100EF800D8B445EF07F0030AD8B452EF07F0060A52
:100F0800D8B464EF07F0FFEF07F02EB48EEF07F0C8
:100F180090EF07F0FFEF07F09DEF07F02BA097EF9A
:100F280007F099EF07F0FFEF07F00FEC00F0FFEF85
:100F380007F034503F0B286F296B2951000AD8B4A9
:100F4800A8EF07F0FFEF07F02851000AD8B492EF96
:100F580007F0FFEF07F02EB4B4EF07F0B6EF07F095
:100F6800FFEF07F02EA2BBEF07F0BDEF07F0FFEF92
:100F780007F0D2EF07F02AA0C4EF07F0C6EF07F09A
:100F8800FFEF07F025B0CBEF07F0CDEF07F050EFFC
:100F980007F02580BFEC11F0FFEF07F034503F0B4E
:100FA800286F296B2951000AD8B4DDEF07F050EFFC
:100FB80007F02851000AD8B4BFEF07F050EF07F048
:100FC8003450C00B0101286F296B2951000AD8B48D
:100FD800F0EF07F0FFEF07F02851000AD8B46FEFE1
:100FE80007F0400AD8B489EF07F0C00AD8B4AFEFC9
:100FF80007F0FFEF07F0809E3901A5931200A2EFDA
:1010080008F0255107E1040E245DD8B00EEF08F072
:1010180010EF08F028EF08F0600083F4D9FF6000B3
:1010280087F4DAFF60008BF4E1FF60008FF4E2FFE1
:101038006F007FFFE7FF224B232B204B212B240738
:10104800D8A02507A2EF08F0255107E1080E245D76
:10105800D8B031EF08F033EF08F059EF08F060002E
:1010680083F4D9FF600087F4DAFF60008BF4E1FFB6
:1010780060008FF4E2FF6F007BFFE6FF6F007BFFED
:10108800E6FF6F007BFFE6FF6F007BFFE6FF040EC5
:101098002227000E2323040E2027000E2123040EEE
:1010A800245F000E255B03EF08F0255107E1100EC1
:1010B800245DD8B062EF08F064EF08F084EF08F020
:1010C800600083F4D9FF600087F4DAFF60008BF4D6
:1010D800E1FF60008FF4E2FF070E6F006FFFE3FF90
:1010E800E806FBE2080E2227000E2323080E20271D
:1010F800000E2123080E245F000E255BA2EF08F0E6
:10110800600083F4D9FF600087F4DAFF60008BF495
:10111800E1FF60008FF4E2FF0F0E6F006FFFE3FF47
:10112800E806FBE2100E2227000E2323100E2027CC
:10113800000E2123100E245F000E255B01012451AF
:101148002511D8A4AAEF08F0ACEF08F005EF08F0D5
:101158001200010E366EB6EC0FF02EA0B6EF08F0B6
:10116800B8EF08F041EF09F03450D8B4BEEF08F0FA
:10117800C0EF08F041EF09F02850D8B4C6EF08F0E6
:10118800C8EF08F0E4EF08F028A6CDEF08F0CFEF9D
:1011980008F0E0EF08F02CA6D4EF08F0D6EF08F03E
:1011A800DDEF08F0040E366EB6EC0FF070EC0BF0C5
:1011B8008086289641EF09F0000E286E41EF09F06D
:1011C8002750D8B4EAEF08F0ECEF08F00FEF09F079
:1011D8002EB4F1EF08F0F3EF08F041EF09F027A083
:1011E800F8EF08F0FAEF08F00BEF09F02BA0FFEF8B
:1011F80008F001EF09F008EF09F0400E366EB6EC82
:101208000FF0D2EC02F08086279041EF09F0000E33
:10121800276E41EF09F02650D8B415EF09F017EF03
:1012280009F041EF09F02EA21CEF09F01EEF09F0BA
:1012380041EF09F02EB423EF09F025EF09F041EF53
:1012480009F026A02AEF09F02CEF09F03DEF09F08C
:1012580029A031EF09F033EF09F03AEF09F0800ED9
:10126800366EB6EC0FF0DEEC10F08086269041EF7B
:1012780009F0000E266E41EF09F01200B8EF09F0F0
:10128800255107E1040E245DD8B04DEF09F04FEF6A
:1012980009F067EF09F0600083F4D9FF600087F474
:1012A800DAFF60008BF4E1FF60008FF4E2FF6F006B
:1012B8007FFFE7FF224B232B204B212B2407D8A0AD
:1012C8002507B8EF09F0255107E1080E245DD8B0CD
:1012D80070EF09F072EF09F098EF09F0600083F4FD
:1012E800D9FF600087F4DAFF60008BF4E1FF60004B
:1012F8008FF4E2FF6F007BFFE6FF6F007BFFE6FFE6
:101308006F007BFFE6FF6F007BFFE6FF040E2227DE
:10131800000E2323040E2027000E2123040E245F31
:10132800000E255B42EF09F0600083F4D9FF6000EE
:1013380087F4DAFF60008BF4E1FF60008FF4E2FFCE
:10134800070E6F006FFFE3FFE806FBE2080E222797
:10135800000E2323080E2027000E2123080E245FE9
:10136800000E255B42EF09F0010124512511D8A494
:10137800C0EF09F0C2EF09F044EF09F01200000EC7
:101388002F240001A66FA76B070EA723A86B000EDA
:10139800A823A96B000EA923A6C005F0A7C006F0D4
:1013A800A8C007F0A9C008F02AEC0CF001C0A6F00C
:1013B80002C0A7F003C0A8F004C0A9F0000E306E68
:1013C80012501310D8B4EBEF09F0EDEF09F0F7EF76
:1013D80009F030822C8612C0AEF013C0AFF00001C5
:1013E800B06B37EF0AF010501110D8B4FEEF09F0C7
:1013F80000EF0AF037EF0AF02150D8B406EF0AF0F0
:1014080008EF0AF037EF0AF06F003CFE31F0040EE7
:10141800366EA6C035F0A7C036F0A8C037F0A9C010
:1014280038F05EEC0EF034C020F02050D8B41FEF36
:101438000AF021EF0AF037EF0AF02C86800E226EB0
:101448003084308221C020F10101216B10C022F1CB
:1014580011C023F181EC11F0010120C1AEF021C1CE
:10146800AFF00001B06B12004050D8B43EEF0AF064
:1014780040EF0AF0A1EF0AF040A845EF0AF047EF65
:101488000AF087EF0AF0000E0C6E010E0B6EA3EF48
:101498000AF03B5043240101206F3C504420216F47
:1014A800600027F0D9FF60002BF0DAFF6F0078FFAB
:1014B80022F16F0074FF23F139C024F13AC025F1FD
:1014C80042EC09F0A1EF0AF03B5043240101206FE0
:1014D8003C504420216F600027F0D9FF60002BF0BA
:1014E800DAFF6F0078FF22F16F0074FF23F139C033
:1014F80024F13AC025F103EC08F0A1EF0AF0060E3A
:101508000C6EA3EF0AF04050070B526E536A53500B
:10151800000AD8B492EF0AF083EF0AF05250010A99
:10152800D8B468EF0AF0020AD8B468EF0AF0060ADD
:10153800D8B44DEF0AF083EF0AF0000E0C6E1200DB
:101548001668000E0001FC6F000EFD6F010EFA6FA9
:10155800000EF96F000EF86F010EFB6F000EEC6FB6
:10156800ECC0C2F0000EED6FEDC0E5F0000EEE6FBE
:10157800EEC0E6F0000EEF6FEFC0E7F0000EF06F80
:10158800F0C0E8F0000EF16FF1C0E9F0000EF26F64
:10159800F2C0EAF0000EF36FF3C0EBF0800E2F24D8
:1015A800056E066A010E0622076A000E0722086AFF
:1015B800C00E08222AEC0CF001C09EF002C09FF079
:1015C80003C0A0F004C0A1F0000E2F24056E066A27
:1015D800020E0622076A000E0722086AC00E0822B9
:1015E8002AEC0CF001C0A2F002C0A3F003C0A4F0E2
:1015F80004C0A5F0EC0E0001906F000E916FE40E90
:101608008D6F000E8E6F080E8F6F120047EC10F072
:101618002EA011EF0BF013EF0BF06FEF0BF034501F
:10162800D8B419EF0BF01BEF0BF06FEF0BF055EF81
:101638000BF06FEF0BF02EB424EF0BF026EF0BF04E
:101648001DEF0BF06FEF0BF02EA22DEF0BF02FEF2D
:101658000BF01DEF0BF02EB434EF0BF036EF0BF060
:101668006FEF0BF043EF0BF029A03DEF0BF03FEFCE
:101678000BF01DEF0BF06AEC12F06FEF0BF034502B
:101688003F0B526E536A5350000AD8B44EEF0BF01A
:101698001DEF0BF05250000AD8B438EF0BF01DEFD5
:1016A8000BF03450C00B526E536A5350000AD8B432
:1016B80060EF0BF01DEF0BF05250000AD8B41DEF8D
:1016C8000BF0400AD8B41FEF0BF0C00AD8B428EFCB
:1016D8000BF01DEF0BF0120060009BF281FF600021
:1016E8009FF282FF6000A3F283FF6000A7F284FFED
:1016F800010E856E30B083EF0BF085EF0BF0CBEF6A
:101708000BF02250800B226E30A48DEF0BF08FEF80
:101718000BF0A3EF0BF022BE94EF0BF097EF0BF05A
:10172800010E98EF0BF0000EFF0A526E5232523241
:10173800225052187F0B5218226EA4EF0BF0229EF3
:101748002EA4A9EF0BF0ABEF0BF0B0EF0BF022508B
:101758000409226EC6EF0BF02EA2B5EF0BF0B7EF1F
:101768000BF0BCEF0BF022500509226EC6EF0BF010
:101778002EA0C1EF0BF0C3EF0BF0C6EF0BF0225019
:101788007F09226E60008BF086FFCEEF0BF0309061
:10179800000E866E1200000E2F2400019A6F9B6BBC
:1017A800060E9B239C6B000E9C239D6B000E9D23B5
:1017B8009AC005F09BC006F09CC007F09DC008F0D9
:1017C8002AEC0CF001C09AF002C09BF003C09CF018
:1017D80004C09DF0800E2F240001966F976B050EB4
:1017E8009723986B000E9823996B000E992396C047
:1017F80005F097C006F098C007F099C008F02AECE9
:101808000CF001C096F002C097F003C098F004C035
:1018180099F06F003CFE31F0400E366E9AC035F0FC
:101828009BC036F09CC037F09DC038F05EEC0EF0DF
:1018380034C01EF01E50D8B424EF0CF026EF0CF084
:1018480027EF0CF02B80000E1D6E120008AA2FEF58
:101858000CF031EF0CF059EF0CF020EE07F06F00B0
:1018680078FF52F06F0074FF53F0D8905236533619
:10187800D89052365336D8905236533652C001F06B
:1018880053C002F002C004F007C052F0030E521613
:101898000150E00B52100809026E04C001F005C0A7
:1018A80004F006C003F073EF0CF005C052F006C058
:1018B80053F0050ED89052365336E82E5EEF0CF0F2
:1018C80052C001F053C002F0036A046A01C003F079
:1018D80002C001F00350E00B026E000E036E08AE6A
:1018E80078EF0CF07AEF0CF07BEF0CF0028808AC84
:1018F80080EF0CF082EF0CF083EF0CF00284120002
:10190800000E326E400E8F6E800E8F6E33EC0DF02F
:10191800000E37013D6F000E806E000EF06F000E56
:10192800406F000E506F000E606F000E706F000E5B
:10193800806F000E906F500E916E000E066F000EB5
:10194800076F000E306F000E316F110E326F220ECE
:10195800336F330E346F440E356F550E366F660E87
:10196800376F770E386F000E3C6F6D00F3FC3BF756
:101978006D00EFFC3AF76D00EBFC39F7B869E30E40
:10198800B96FBA69BB69200E006F1C0E3F6F3E69C4
:10199800000E0001846F000E856F000E866F000E2A
:1019A800876F000E886F000E896F000E8A6F000E19
:1019B8008B6F120085500F0B020AD8A4E6EF0CF0CB
:1019C800E8EF0CF032EF0DF087502F18D8B4EFEF96
:1019D8000CF0F1EF0CF010EF0DF08750D8A4F7EFF2
:1019E8000CF0F9EF0CF032EF0DF010EF0DF02E8245
:1019F8002E946BEC12F032EF0DF02E84FDEF0CF00C
:101A08002E922E94FDEF0CF06CEC12F068EC12F0B4
:101A180082EC0FF032EF0DF086500101246F256B38
:101A28002551000AD8B41BEF0DF032EF0DF0245108
:101A3800010AD8B4FBEF0CF0030AD8B401EF0DF09B
:101A4800820AD8B404EF0DF0010AD8B408EF0DF0FB
:101A5800030AD8B40AEF0DF032EF0DF0120050EF80
:101A68000DF0270E3701036F980E046F810E056F76
:101A780081EF0DF0410E3701036FBA0E046F070EA8
:101A8800056F81EF0DF0070E3701036F980E046F95
:101A9800010E056F81EF0DF03350526E536A5350AB
:101AA800000AD8B45AEF0DF035EF0DF05250000A85
:101AB800D8B435EF0DF0010AD8B43EEF0DF0030AA3
:101AC800D8B447EF0DF0010AD8B43EEF0DF0070A7D
:101AD800D8B43EEF0DF0010AD8B43EEF0DF0030A7A
:101AE800D8B43EEF0DF0010AD8B43EEF0DF00F0A5E
:101AF800D8B43EEF0DF035EF0DF012003901A5A373
:101B080088EF0DF08AEF0DF0CBEF0DF0500E916ECF
:101B180080AE91EF0DF093EF0DF095EF0DF0BDEF66
:101B28000DF03701F0AF9BEF0DF09DEF0DF0A1EF39
:101B38000DF0510E916EBDEF0DF040AFA6EF0DF018
:101B4800A8EF0DF0ACEF0DF0520E916EBDEF0DF059
:101B580050AFB1EF0DF0B3EF0DF0B7EF0DF0530E3E
:101B6800916EBDEF0DF0000E346E3901A593CDEFE7
:101B78000DF080500F0B526E536A840E5224D96EAA
:101B8800000E5320DA6EDF50346ECDEF0DF0000EEC
:101B9800346E12004050D8B4D4EF0DF0D6EF0DF0EB
:101BA80015EF0EF040A8DBEF0DF0DDEF0DF0FFEFC5
:101BB8000DF0000E0C6E020E0B6E17EF0EF06000AB
:101BC80027F0D9FF60002BF0DAFF6F0078FF20F1D3
:101BD8006F0074FF21F143C022F144C023F139C0E2
:101BE80024F13AC025F103EC08F015EF0EF0070ECA
:101BF8000C6E17EF0EF04050070B526E536A53509D
:101C0800000AD8B40AEF0EF0FBEF0DF05250020AAA
:101C1800D8B4E3EF0DF0010AD8B4E3EF0DF0FBEF11
:101C28000DF0000E0C6E120030A21DEF0EF01FEF2B
:101C38000EF05DEF0EF0F80E0001AE27FF0EAF2399
:101C4800FF0EB023B0BF34EF0EF0B051AF1106E174
:101C5800AE05D8B032EF0EF034EF0EF05DEF0EF0B7
:101C680030B439EF0EF03BEF0EF04CEF0EF012C02F
:101C78004CF013C04DF04E6AAE514C24AE6FAF51CC
:101C88004D20AF6FB0514E20B06F28865DEF0EF03B
:101C980021C046F0476A10C048F011C049F097ECDF
:101CA80011F046C0AEF047C0AFF00001B06BF6ECE3
:101CB80011F01200000E526E840E5224D96EDA6AA8
:101CC800000EDA22DF50D8A46CEF0EF06EEF0EF0A3
:101CD80094EF0EF0840E5224D96EDA6A000EDA22DE
:101CE8006000DBF0DFFF6F007CFF34F020EE35F0A2
:101CF8005250040D000EF324E16E010EF420E26E42
:101D08006F007BFFE6FF6F007BFFE6FF6F007BFF46
:101D1800E6FF6F007BFFE6FF010E326E9FEF0EF0CD
:101D2800522A070E52649BEF0EF09DEF0EF060EF03
:101D38000EF0000E346E120029EC12F0D28E400E16
:101D4800526E210E536E5FEC12F064EC12F0120E1C
:101D58000001926F000E936F000E946F000E956F46
:101D6800020E2F6E000E2D6E000E136E100E126EE8
:101D7800000E116E000E106E000E216EA4EC0AF01B
:101D880082EC0FF02E902E822E9447EC12F0050E66
:101D980001012B6F0F0E2A6FF10EE82EFED72A2FA6
:101DA800FCD72B2FFAD7C9EF0EF00DEF00F02EA0BD
:101DB800E0EF0EF0E2EF0EF015EF0FF02950D8B477
:101DC800E8EF0EF0EAEF0EF0F3EF0EF029A0EFEFD8
:101DD8000EF0F1EF0EF0F3EF0EF06EEC12F02C5067
:101DE800D8B4F9EF0EF0FBEF0EF004EF0FF02CA6CD
:101DF80000EF0FF002EF0FF004EF0FF018EC0EF009
:101E08002B50D8B40AEF0FF00CEF0FF015EF0FF0CE
:101E18002BA011EF0FF013EF0FF015EF0FF0BFEC41
:101E280010F01200000EBA6E000EBB6E000EBC6EF3
:101E3800C268EA0EC36E3F0EC46E3F0E3A01606F71
:101E4800F50E506F4069000E816F000E516F000E45
:101E5800416F000E616F000E426F000E526FFE0E52
:101E6800626F436953696369446954696469080E18
:101E7800846F170EE46F130E086F330E0A6F0B0E84
:101E8800ED6F210E166F090EE76F220E176F160EF3
:101E9800E36F1200000E3D01EC6F000EED6F000EB7
:101EA800EE6F000EEF6F000EF06F000EF16FB00EC8
:101EB800F26F800EF36F000EF46F820EF56F060E50
:101EC800F66F000EF76F000EF86F000EF96F000E38
:101ED800FA6F000E526E000E536E55EC12F0000EA3
:101EE800526E000E536E50EC12F0000E526E000E41
:101EF800536E5AEC12F0000E196E1200000E2E6E80
:101F0800000E2C6E000E2B6E000E2A6E000E296E2F
:101F1800000E286E000E276E000E266E000E0001C1
:101F2800C46F000EC36F000E256E2DC033F084EC15
:101F38000CF04DEC11F017EC11F0CFEC0BF0C3ECFA
:101F480009F032EC11F029801CEC06F0000E8F6EBF
:101F58003080000E366EB6EC0FF070EC0BF0808619
:101F68002E8012003701E0B7BCEF0FF0BEEF0FF084
:101F7800C6EF0FF0430E916E36C0B1F0B1C034F029
:101F8800E6EF0FF0D0B7CBEF0FF0CDEF0FF0D5EFB6
:101F98000FF0440E916E36C0B2F0B2C034F0E6EFE6
:101FA8000FF0C0B7DAEF0FF0DCEF0FF0E4EF0FF04F
:101FB800450E916E36C0B3F0B3C034F0E6EF0FF0C3
:101FC800000E346E12001650D8A4EDEF0FF0EFEFAC
:101FD8000FF0FAEF0FF018A4F4EF0FF0F6EF0FF090
:101FE800FAEF0FF01894188016EF10F01650D8B4C6
:101FF80000EF10F002EF10F016EF10F0F10E16607F
:1020080008EF10F00AEF10F016EF10F0170617504F
:10201800D8A411EF10F013EF10F016EF10F016C05F
:1020280017F0188012006F00E8FF50F06F00ECFF07
:1020380051F0390195AD23EF10F025EF10F030EF96
:1020480010F0A5AD2AEF10F02CEF10F030EF10F0E3
:1020580019EC12F040EF10F093AF35EF10F037EFB6
:1020680010F040EF10F0A3AF3CEF10F03EEF10F08F
:1020780040EF10F068EC11F0600047F1FBFF6000E2
:1020880043F1FAFF11003701E0AF4DEF10F04FEFC9
:1020980010F056EF10F0430E916EE09FB1C034F08F
:1020A80074EF10F0D0AF5BEF10F05DEF10F064EF5D
:1020B80010F0440E916EE09FB2C034F074EF10F04F
:1020C800C0AF69EF10F06BEF10F072EF10F0450E33
:1020D800916EE09FB3C034F074EF10F0000E346ED0
:1020E800120030A47AEF10F07CEF10F09FEF10F0A0
:1020F80085AC81EF10F083EF10F09FEF10F0855062
:102108000F0BE806D8A48BEF10F08DEF10F09FEFBF
:1021180010F0288621C020F10101216B10C022F1A6
:1021280011C023F181EC11F0010120C1AEF021C1F1
:10213800AFF00001B06B120026B0A5EF10F0A7EFCA
:1021480010F0BCEF10F00001EC2BEC812680BBB83E
:10215800B0EF10F0B3EF10F0010EB4EF10F0000E76
:10216800FF0A4F6E4F3ABB504F18EF0B4F18BB6E1C
:10217800DBEC0EF012001DAAC4EF10F0C6EF10F051
:10218800DDEF10F0080E0001C05F000EC15BC1BF9B
:10219800D8EF10F0C15106E1C005D8B0D6EF10F065
:1021A800D8EF10F0DDEF10F0000E1D6E020E1C6E61
:1021B8002780120060007BF281FF60007FF282FFBF
:1021C800600083F283FF600087F284FF600043F2BF
:1021D800D9FF600047F2DAFF1FEE86F3070E6F00A3
:1021E8006FFFE3FFE806FBE260003FF285FF1200A5
:1021F80000EE00F1200EEE6AE806FDE100EE60F068
:102208009F0EEE6AE806FDE100EE01F0450EEE6A6B
:10221800E806FDE1080ED56E000ED66E000ED76EEC
:102228000001A0EF0EF06F003CFE31F0020E366E9A
:1022380092C035F093C036F094C037F095C038F0AE
:102248005EEC0EF034C01AF01A50D8B42EEF11F02C
:1022580030EF11F031EF11F02C8212006F003CFECC
:1022680031F0800E366EA2C035F0A3C036F0A4C09F
:1022780037F0A5C038F05EEC0EF034C01FF01F50E8
:10228800D8B449EF11F04BEF11F04CEF11F02A8060
:1022980012006F003CFE31F0010E366E000E356EF6
:1022A800000E366E000E376E000E386E5EEC0EF0C5
:1022B80034C023F02350D8B464EF11F066EF11F066
:1022C80067EF11F02C8012003901A39F0001B4516F
:1022D800B511D8B472EF11F074EF11F080EF11F06E
:1022E80002D880EF11F00500FA6EB451FD6EB551B9
:1022F800FE6EFF6AFA5012001200010120512203FB
:102308006F00CCFF52F06F00D0FF53F02051230331
:10231800F350532621512203F350532652C020F183
:1023280053C021F11200465048026F00CCFF4AF01A
:102338006F00D0FF4BF046504902F3504B264750F0
:102348004802F3504B264AC046F04BC047F01200F3
:10235800200E3901D96F000EDB6F000EDD6F020E03
:10236800DF6F000EDE6FDCA1BCEF11F0BEEF11F0E5
:10237800B7EF11F012002FEE86F3600037F2E1FF9D
:1023880060003BF2E2FF070E6F006FFFE3FFE80615
:10239800FBE285500F0B00018C6F12004E0EB96ED8
:1023A800F30EB76E000EB66E3901A39F938FDA0E47
:1023B800526E240E536E5FEC12F0800EB86E12004F
:1023C800000E3901C06F000EC16F000EC26F000E03
:1023D800C36F000EC46F000EC56F000EC66F000EEF
:1023E800C76F1200BBB8FBEF11F0FEEF11F0010E42
:1023F800FFEF11F0000EFF0A466E463ABB50461832
:10240800EF0B4618BB6E1200040E3D01736F800E71
:10241800746F180E756F030E7B6F000E796F000EC8
:102428007A6F000E766F6C69120002D826EF12F0F0
:102438000500FA6E0001B651FD6EB751FE6EFF6AD7
:10244800FA5012003901A59D120066EC12F0E4EC76
:1024580011F008EC12F016EC0FF0ACEC11F0D2EC25
:1024680011F04EEC0FF012006F0014FE52F00F0E38
:102478005216D8A442EF12F044EF12F046EF12F0D1
:10248800E7EC0FF012001CEC06F032EC07F0ADECB4
:1024980008F00AEC0BF0120052C0BAF053C0BBF0BF
:1024A800120052C0BCF053C0BDF0120052C0B8F0C8
:1024B80053C0B9F0120052C0B4F053C0B5F01200C6
:1024C800B88E1200D29A1200FF00120012001200F9
:0824D8001200120012001200B4
:10FD2C0000000000000000000000000000000000C7
:10FD3C0000000000000000000000000000000000B7
:10FD4C0000000000000000001000050400F6FF0198
:10FD5C001000010100FE00021000010400F4000577
:10FD6C001000130400000008100005180003FF0920
:10FD7C001000050400D1FF0A1000050400CCFF0C94
:10FD8C00100013020000000D1000130100000017FA
:10FD9C0010001302000000181000050100FEFF18EF
:10FDAC001001050400F2FF181002050400EEFF1804
:10FDBC001003050400EAFF181004050400E6FF0018
:10FDCC006000010100EC00026000050100FCFF0274
:10FDDC006001030100FD00036000050100FCFF034E
:10FDEC006001030100FC00056000050100FCFF053B
:10FDFC006001030100FB00066000050100FCFF062A
:10FE0C006001030100FA00076000050100FCFF0718
:10FE1C006001030100F900086000050100FCFF0807
:10FE2C006001030100F800006200030100E400001F
:10FE3C001A00050100FBFF001A01050400DAFF009F
:10FE4C001A02050400DEFF001A03050400DEFF00A1
:10FE5C001A04050400DEFF001A05050400DEFF008D
:10FE6C001A06050400DEFF001A07050400DEFF0079
:10FE7C001A08050400DEFF001600050100FBFF0058
:10FE8C001601050400E2FF001602050400DEFF0067
:10FE9C001603050400DEFF001604050400DEFF0057
:10FEAC001605050400DEFF001606050400DEFF0043
:10FEBC001607050400DEFF001608050400DEFF012E
:10FECC000000260100D6FF020000260100D6FF0329
:10FEDC000000260200D6FF040000260400D6FF0511
:10FEEC000000260100D6FF060000260200D6FF0700
:10FEFC000000260400D6FF4D6963726F6368697059
:10FF0C002043414E6F70656E2044657669636500D1
:10FF1C00001800050100FAFF00180113040000008E
:10FF2C000018021301000000001200050100FDFF83
:10FF3C000012011104000000001202110400000064
:10FF4C00009000000100D6FF009000000100D6FFD9
:10FF5C00008000000100D6FF008000000100D6FFE9
:10FF6C00007000000100D6FF007000000100D6FFF9
:10FF7C00005000000100D6FF005000000100D6FF29
:10FF8C00004000000100D6FF004000000100D6FF39
:10FF9C00003000000100D6FF003000000100D6FF49
:10FFAC00002000000100D6FF002000000100D6FF59
:10FFBC00001400050100FCFF0014011304000000F4
:10FFCC0056312E300056312E300000000000080152
:10FFDC000060080000000801006221436587785624
:10FFEC00341221436587785634124A93080002086C
:04FFFC0001030400F9
:020000040020DA
:10000000FF0FFF0FFF0FFF0FFF0FFF0FFF0FFF0F80
:020000040030CA
:0A000000AAFFF7FF9FFFFFFFFFFFBD
:00000001FF
