:040000000DEF00F010
:0400080049EF02F0CA
:10001800FF001DEF02F06F0004FE29F02A6A6F004E
:1000280008FE07F0050E086ED8900732082E18EF64
:1000380000F0075029C009F02AC00AF0D890093604
:100048000A36D89009360A36D89009360A36091081
:10005800296E0A502A6E20EE3EF010EE0BF00F0EBD
:100068006F006FFFE3FFE806FBE2BBB83EEF00F06E
:1000780041EF00F0010E42EF00F0000EFF0A076E9C
:10008800073ABB500718EF0B0718BB6E550E1B6ECF
:10009800AA0E1C6E2A501D6E29C01EF06F0014FE99
:1000A8001FF0000E2B6E7EEF00F02B50020D0B0E92
:1000B800F324D96E000EF420DA6E6F0078FF07F093
:1000C8006F0074FF08F060001FF0D9FF600023F094
:1000D800DAFF2B50096E0A6A050E0926000E0A225D
:1000E8001B0E0924E16E000E0A20E26E6F007FFFEE
:1000F800E7FF2B2A1F502B5CD8A085EF00F087EF75
:1001080000F059EF00F02B50076E086A050E07261D
:10011800000E08221B0E0724D96E000E0820DA6E86
:100128006F0043FEDFFF000E906E809E3901A5919F
:100138001B0E016E000E026E2B50060F036E6BEC49
:1001480001F01200800E8F6E8E50E00B800AD8A44A
:10015800B0EF00F0B2EF00F0A8EF00F0000E916EE3
:10016800000E3701006F000EBA6F000EBB6F000E55
:10017800B86F000EB96F000EBE6F000EBF6F000E95
:10018800BC6F000EBD6F000EA26F000EA36F000EB5
:10019800A06F000EA16F000EA66F000EA76F000ED5
:1001A800A46F000EA56F000EAA6F000EAB6F000EB5
:1001B800A86F000EA96F000EAE6F000EAF6F000E95
:1001C800AC6F000EAD6F000EB26F000EB36F000E75
:1001D800B06F000EB16F000EB66F000EB76F000E55
:1001E800B46F000EB56F270E036F980E046F810E63
:1001F800056F1E0E0001606F000E616FE5EC02F0E6
:100208003901A5919581600E8F6E8E50E00B600AC2
:10021800D8A411EF01F013EF01F009EF01F012007B
:10022800C3EC02F0A6EC00F0D28E050E0001636F5D
:100238000F0E626FF10EE82EFED7622FFCD7632FE8
:10024800FAD767EC02F00009D8B42DEF01F02FEFD0
:1002580001F025EF01F05EEF01F067EC02F0000914
:10026800D8B439EF01F03BEF01F031EF01F0640E43
:100278003024D96E000E3120DA6EDF50B5EC02F072
:100288002E06D8A02F06780E305C050E3158D8A05F
:1002980050EF01F052EF01F058EF01F0000E316E0F
:1002A800000E306E5EEF01F0010E3024306E000E4D
:1002B8003120316E2E502F10D8A465EF01F067EF72
:1002C80001F031EF01F019EF01F00DEF00F00350EC
:1002D8002E24046E000E2F20056E790E045C050E88
:1002E8000558D8B07AEF01F07CEF01F0B6EF01F0D5
:1002F80003502E26000E2F22000E066EABEF01F0E3
:1003080006500124D96E000E0220DA6E640E3224E3
:10031800E16E000E3320E26E6F007FFFE7FF780E7C
:10032800325C050E3358D8A09CEF01F09EEF01F027
:10033800A4EF01F0000E336E000E326EAAEF01F04A
:10034800010E3224326E000E3320336E062A03501B
:10035800065CD8A0B2EF01F0B4EF01F084EF01F031
:10036800B7EF01F03C801200000E3D01EC6F000E6B
:10037800ED6F000EEE6F000EEF6F000EF06F000EC7
:10038800F16FB00EF26F800EF36F000EF46F440E33
:10039800F56F000EF66F000EF76F000EF86F000E87
:1003A800F96F000EFA6F000E0001606F000E616FAA
:1003B800DBEC02F0000E0001606F000E616FD6ECFE
:1003C80002F0000E0001606F000E616FE0EC02F0B9
:1003D800000E3D6E1200000EBA6E000EBB6E000ECF
:1003E800BC6EC268EA0EC36EC4683A016069F50E55
:1003F800506F4069000E816F000E516F000E416F03
:10040800000E616F000E426F000E526F000E626F99
:10041800436953696369446954696469080E846F60
:10042800130E086F330E0A6F0B0EED6F090EE76F90
:1004380012009C0EF66E050EF76E000EF86E00EEBA
:100448003EF010EE10F009006F00D7FFEEFFE55008
:10045800E150F9E100EE64F011EE78F1EE6AE55052
:10046800E150FCE1E250FAE100EE2EF0100EEE6AE7
:10047800E806FDE1080ED56E000ED66E000ED76EAA
:10048800000EF86E000114EF01F06F00E8FF2CF089
:100498006F00ECFF2DF0390195A155EF02F057EFF1
:1004A80002F060EF02F0A5A15CEF02F05EEF02F04F
:1004B80060EF02F0A5EC02F06000B7F0FBFF60000F
:1004C800B3F0FAFF1100000E0001606F3901A3A913
:1004D80070EF02F072EF02F07DEF02F03D01F2AB37
:1004E80078EF02F07AEF02F07DEF02F0010E0001E2
:1004F800606F000160511200200E3901D96F000EA3
:10050800DB6F000EDD6F020EDF6F000EDE6FDCA109
:1005180090EF02F092EF02F08BEF02F01200000E63
:100528003901C06F000EC16F000EC26F000EC36F9D
:10053800000EC46F000EC56F000EC66F000EC76FA9
:10054800120002D8B2EF02F00500FA6E3450FD6EC8
:100558003550FE6EF850FF6EFA5012003901A59121
:1005680012000001606F3901A3A9BDEF02F0BFEFCF
:1005780002F0B7EF02F0600083F1EAFD1200EAEC46
:1005880002F093EC02F0EFEC01F080EC02F0B8EC32
:1005980001F01200863F873F883F893F8A3F8B3FA3
:1005A8008C3F8D3F60C038F061C039F0120060C0E8
:1005B8003AF061C03BF0120060C036F061C037F01D
:1005C800120060C034F061C035F01200D29A1200F7
:0205D80012000F
:020000040020DA
:10000000FF0FFF0FFF0FFF0FFF0FFF0FFF0FFF0F80
:020000040030CA
:0A000000AAFFF7FF9FFFFFFFFFFFBD
:00000001FF
