:040000000DEF00F010
:0400080046EF0CF0C3
:06001800FF00CAEF0DF02D
:10100000000000016F6B706B716B726B3701E0B7A2
:101010000CEF08F00EEF08F08FEF08F000016E51B2
:10102000D96EDA6A010ED9266F0078FF60F06F0082
:1010300078FF61F06F0078FF62F06F0078FF63F077
:101040006E51D96EDA6ADF50646F6F0E656F700E85
:10105000666F710E676F720E686FBEEC0AF060000B
:10106000BFF1E3F76000C3F1E4F76000C7F1E1F717
:101070006000CBF1E2F700016E51D96EDA6A050E1D
:10108000D926DF503701E56F00016E51D96EDA6A5B
:10109000060ED926DF503701E66F00016E51D96E7A
:1010A000DA6A070ED926DF503701E76F00016E516B
:1010B000D96EDA6A080ED926DF503701E86F0001D1
:1010C0006E51D96EDA6A090ED926DF503701E96F01
:1010D00000016E51D96EDA6A0A0ED926DF50370147
:1010E000EA6F00016E51D96EDA6A0B0ED926DF5015
:1010F0003701EB6F00016E51D96EDA6A0C0ED926FA
:10110000DF503701EC6F00016E51D96EDA6A0D0EB7
:10111000D926DF503701ED6FE0879FEF09F0D0B798
:1011200094EF08F096EF08F017EF09F000016E5108
:10113000D96EDA6A010ED9266F0078FF60F06F0071
:1011400078FF61F06F0078FF62F06F0078FF63F066
:101150006E51D96EDA6ADF50646F6F0E656F700E74
:10116000666F710E676F720E686FBEEC0AF06000FA
:10117000BFF1D3F76000C3F1D4F76000C7F1D1F736
:101180006000CBF1D2F700016E51D96EDA6A050E1C
:10119000D926DF503701D56F00016E51D96EDA6A5A
:1011A000060ED926DF503701D66F00016E51D96E79
:1011B000DA6A070ED926DF503701D76F00016E516A
:1011C000D96EDA6A080ED926DF503701D86F0001D0
:1011D0006E51D96EDA6A090ED926DF503701D96F00
:1011E00000016E51D96EDA6A0A0ED926DF50370136
:1011F000DA6F00016E51D96EDA6A0B0ED926DF5014
:101200003701DB6F00016E51D96EDA6A0C0ED926F8
:10121000DF503701DC6F00016E51D96EDA6A0D0EB6
:10122000D926DF503701DD6FD0878DEF08F0C0B7CA
:101230001CEF09F01EEF09F09FEF09F000016E515D
:10124000D96EDA6A010ED9266F0078FF60F06F0060
:1012500078FF61F06F0078FF62F06F0078FF63F055
:101260006E51D96EDA6ADF50646F6F0E656F700E63
:10127000666F710E676F720E686FBEEC0AF06000E9
:10128000BFF1C3F76000C3F1C4F76000C7F1C1F755
:101290006000CBF1C2F700016E51D96EDA6A050E1B
:1012A000D926DF503701C56F00016E51D96EDA6A59
:1012B000060ED926DF503701C66F00016E51D96E78
:1012C000DA6A070ED926DF503701C76F00016E5169
:1012D000D96EDA6A080ED926DF503701C86F0001CF
:1012E0006E51D96EDA6A090ED926DF503701C96FFF
:1012F00000016E51D96EDA6A0A0ED926DF50370125
:10130000CA6F00016E51D96EDA6A0B0ED926DF5012
:101310003701CB6F00016E51D96EDA6A0C0ED926F7
:10132000DF503701CC6F00016E51D96EDA6A0D0EB5
:10133000D926DF503701CD6FC0878DEF08F012003E
:101340002450D8A4A6EF09F0A8EF09F0BDEF09F0EA
:10135000236A2350820FD96EDA6ADF6A232A0D0EC0
:101360002364B5EF09F0B7EF09F0A9EF09F0010E1A
:101370000001826F236A010E246E2404D8A4C3EFF7
:1013800009F0C5EF09F0DBEF09F0D9EC0EF0000928
:10139000D8B4CDEF09F0CFEF09F0DBEF09F028EC7E
:1013A0000EF0550AD8A4D7EF09F0D9EF09F0DBEF1A
:1013B00009F0020E246E020E2418D8A4E2EF09F000
:1013C000E4EF09F0FEEF09F0D9EC0EF00009D8B413
:1013D000ECEF09F0EEEF09F0FEEF09F028EC0EF06B
:1013E000AA0AD8A4F6EF09F0F8EF09F0FCEF09F02B
:1013F000030E246EFEEF09F0010E246E030E241876
:10140000D8A405EF0AF007EF0AF02BEF0AF0D9ECA9
:101410000EF00009D8B40FEF0AF011EF0AF02BEF2D
:101420000AF028EC0EF00001736F73C074F0756B56
:10143000766B776B76C077F075C076F074C075F018
:10144000746B74C083F075C084F076C085F077C08B
:1014500086F0040E246E040E2418D8A432EF0AF08D
:1014600034EF0AF046EF0AF0D9EC0EF00009D8B4D8
:101470003CEF0AF03EEF0AF046EF0AF028EC0EF0DF
:101480000001736F73518313050E246E050E24182B
:10149000D8A44DEF0AF04FEF0AF06FEF0AF0D9EC45
:1014A0000EF00009D8B457EF0AF059EF0AF06FEFC9
:1014B0000AF028EC0EF00001876F060E246E6FEF25
:1014C0000AF028EC0EF00001736F2350880FD96EDC
:1014D000DA6A6000CFF1DFFF232A070E246E060EC2
:1014E0002418D8A476EF0AF078EF0AF090EF0AF00B
:1014F000D9EC0EF00009D8B480EF0AF082EF0AF0C0
:1015000090EF0AF087C073F0070E00017317735154
:10151000235CD8A08EEF0AF090EF0AF061EF0AF09A
:10152000070E2418D8A497EF0AF099EF0AF0BDEF40
:101530000AF0D9EC0EF00009D8B4A1EF0AF0A3EF3D
:101540000AF0BDEF0AF028EC0EF0820E00016E6F7B
:1015500001EC08F0BBB8AFEF0AF0B2EF0AF0010EF1
:10156000B3EF0AF0000EFF0A0001736F733BBB502C
:101570007319EF0B7319BB6E246A1200020E00017F
:101580006419D8A4C6EF0AF0C8EF0AF04AEF0BF0CE
:101590006651D96EDA6A600083F1DFFF60C069F0DE
:1015A00061C06AF062C06BF063C06CF06AC069F041
:1015B0006BC06AF06CC06BF06C6B69C060F06AC0A5
:1015C00061F06BC062F06CC063F06551D96EDA6A8D
:1015D000600083F1DFFF60C069F061C06AF062C043
:1015E0006BF063C06CF06AC069F06BC06AF06CC0ED
:1015F0006BF06C6B69C060F06AC061F06BC062F048
:101600006CC063F06051030B6D6F60C069F061C026
:101610006AF062C06BF063C06CF0030ED89069375B
:101620006A376B376C37E82E0EEF0BF069C060F04D
:101630006AC061F06BC062F06CC063F06051E00B97
:101640006D256D6F6D51080F6D6F6851D96EDA6A37
:101650006D51EB0BDF6E60C069F061C06AF062C073
:101660006BF063C06CF06AC069F06BC06AF06CC06C
:101670006BF06C6B69C060F06AC061F06BC062F0C7
:101680006CC063F06751D96EDA6A600083F1DFFFE6
:1016900073EF0BF06551D96EDA6ADF6A6651D96E65
:1016A000DA6ADF6A60C069F061C06AF062C06BF03C
:1016B00063C06CF0050ED89069376A376B376C37AA
:1016C000E82E5BEF0BF069C060F06AC061F06BC0A0
:1016D00062F06CC063F06851D96EDA6A600083F121
:1016E000DFFF2BEF0BF012006F0004FE54F0556A81
:1016F0006F0008FE32F0050E336ED8903232332E72
:101700007DEF0BF0325054C034F055C035F0D89016
:1017100034363536D89034363536D890343635367A
:101720003410546E3550556E20EE90F010EE36F0B9
:101730000F0E6F006FFFE3FFE806FBE2550E466EEB
:10174000AA0E476E5550486E54C049F06F0014FE03
:101750004AF0566ACAEF0BF05650020DF350360F9E
:10176000D96EDA6A6F0078FF32F06F0074FF33F0E1
:101770006000CBF0D9FF6000CFF0DAFF56C034F044
:10178000050E34263450460FE16EE26A6F007FFF8B
:10179000E7FF562A4AC032F0070E32163250565C26
:1017A000D8A0D5EF0BF0D7EF0BF0ACEF0BF056C095
:1017B00032F0050E32263250460FD96EDA6A6F00CB
:1017C00043FEDFFF906A809E3901A591460E2D6E83
:1017D0005650060F2E6E3CEC0DF01200CEEC0EF0C3
:1017E000F0EC0CF0D28E050E0001796F0F0E786FC1
:1017F000F10EE82EFED7782FFCD7792FFAD7A0EC80
:1018000009F0C3EC0EF00009D8B409EF0CF00BEFAF
:101810000CF001EF0CF039EF0CF0C3EC0EF0000906
:10182000D8B415EF0CF017EF0CF00DEF0CF0A00E84
:101830001324D96E000E1420DA6EDF50FCEC0DF08C
:101840001106D8A01206780E135C050E1458D8A005
:101850002CEF0CF02EEF0CF033EF0CF0146A000EAE
:10186000136E39EF0CF0010E1324136E000E1420CA
:10187000146E11501210D8A440EF0CF042EF0CF08F
:101880000DEF0CF0F3EF0BF00DEF00F06F00E8FF41
:1018900057F06F00ECFF58F0390195A152EF0CF0B2
:1018A00054EF0CF05FEF0CF0A5A159EF0CF05BEFDB
:1018B0000CF05FEF0CF0B4EC0EF095EF0CF093A988
:1018C00064EF0CF066EF0CF07BEF0CF0A3A96BEF6C
:1018D0000CF06DEF0CF07BEF0CF002D879EF0CF010
:1018E0000500FA6E1F50FD6E2050FE6EFF6AFA5022
:1018F000120095EF0CF093A780EF0CF082EF0CF044
:1019000095EF0CF0A3A787EF0CF089EF0CF095EFA3
:101910000CF002D895EF0CF00500FA6E2150FD6E28
:101920002250FE6EFF6AFA501200600063F1FBFF66
:1019300060005FF1FAFF11002950010FD96EDA6AD9
:10194000DF6A3D01F9A7A7EF0CF0A9EF0CF0BAEFA1
:101950000CF02950010FD96EDA6ADF8202D8BAEF93
:101960000CF00500FA6E1D50FD6E1E50FE6EFF6AF3
:10197000FA5012003D01F9A3C0EF0CF0C2EF0CF0D9
:10198000D3EF0CF02950010FD96EDA6ADF8402D848
:10199000D3EF0CF00500FA6E1B50FD6E1C50FE6E6E
:1019A000FF6AFA5012002950010FD96EDA6ADF502F
:1019B000D8B4DDEF0CF0DFEF0CF0EDEF0CF002D857
:1019C000EBEF0CF00500FA6E1950FD6E1A50FE6E2A
:1019D000FF6AFA501200EFEF0CF091EC0EF01200DB
:1019E000800E8F6E8E50E00B800AD8A4FAEF0CF0B8
:1019F000FCEF0CF0F2EF0CF0916A3701006BBA6B60
:101A0000BB6BB86BB96BBE6BBF6BBC6BBD6BA26BBA
:101A1000A36BA06BA16BA66BA76BA46BA56BAA6B4A
:101A2000AB6BA86BA96BAE6BAF6BAC6BAD6BB26BFA
:101A3000B36BB06BB16BB66BB76BB46BB56B270E9A
:101A4000036F980E046F810E056FE80E0001606F42
:101A5000160E616F0FEC0FF03901A5919581600EA4
:101A60008F6E8E50E00B600AD8A439EF0DF03BEF7B
:101A70000DF031EF0DF012002E5011242F6E000EDC
:101A80001220306E790E2F5C050E3058D8B04BEF17
:101A90000DF04DEF0DF083EF0DF02E501126000EDE
:101AA0001222316A78EF0DF02D503124D96EDA6AA6
:101AB000A00E1524E16E000E1620E26E6F007FFF6F
:101AC000E7FF780E155C050E1658D8A06AEF0DF0EA
:101AD0006CEF0DF071EF0DF0166A000E156E77EFDA
:101AE0000DF0010E1524156E000E1620166E312A0B
:101AF0002E50315CD8A07FEF0DF081EF0DF054EF48
:101B00000DF084EF0DF02580120039019397380E07
:101B10000001606F190E616FFBEC0EF039019399B3
:101B2000E40E0001606F1C0E616FF6EC0EF03D01DB
:101B3000EC6BED6BEE6BEF6BF06BF16BB00EF26F6D
:101B4000800EF36FF46B440EF56FF66BF76BF86B6A
:101B5000F96BFA6B340E0001606F1E0E616F05ECBD
:101B60000FF0320E0001606F1E0E616F00EC0FF07F
:101B7000280E0001606F1E0E616F0AEC0FF0266ADE
:101B80002C6A2B6A080E2A6E296A286A276A39018C
:101B900093871200DC0EF66E1D0EF76E000EF86EC7
:101BA00000EE90F010EE10F009006F00D7FFEEFF8E
:101BB000E550E150F9E100EEA0F011EE78F1EE6AA7
:101BC000E550E150FCE1E250FAE100EE7AF0160E49
:101BD000EE6AE806FDE100EE01F02C0EEE6AE80682
:101BE000FDE1080ED56E000ED66E000ED76E000E0B
:101BF000F86E0001EEEF0BF00001606F2A50D8B4D0
:101C000004EF0EF006EF0EF0FEEF0DF0390193B980
:101C10000CEF0EF00EEF0EF013EF0EF0600083F1FC
:101C2000EAFD26EF0EF093992C50090FD96EDA6A6F
:101C3000600083F1DFFF2C2A070E2C6422EF0EF0E8
:101C400024EF0EF025EF0EF02C6A2A06938912007D
:101C50002750D8B42EEF0EF030EF0EF028EF0EF034
:101C60002850010FD96EDA6ADF50266E28507A0F9D
:101C7000D96EDA6ADF500001606F282A070E2864E7
:101C800044EF0EF046EF0EF047EF0EF0286A3901F0
:101C9000939727069387000160511200BA6ABB6AC6
:101CA000BC6AC268EA0EC36EC4683A016069F50E88
:101CB000506F4069816B516B416B616B426B526B32
:101CC000626B436953696369446954696469080EC6
:101CD000846F130E086F330E0A6F0B0EED6F090E33
:101CE000E76F1200080E2A6078EF0EF07AEF0EF020
:101CF0008EEF0EF02B50090FD96EDA6ADF503D01DE
:101D0000EA6F2B2A070E2B6488EF0EF08AEF0EF095
:101D10008BEF0EF02B6A2A2A90EF0EF0390193997F
:101D2000120029507A0FD96EDA6A6F00A3F7DFFF2D
:101D3000292A070E29649FEF0EF0A1EF0EF0A2EF03
:101D40000EF0296A272A1200200E3901D96FDB6BA9
:101D5000DD6B020EDF6FDE6BDCA1B1EF0EF0B3EFD7
:101D60000EF0ACEF0EF0120002D8C0EF0EF005003E
:101D7000FA6E1750FD6E1850FE6EFF6AFA50120090
:101D80003901A59112002A50D8A4C9EF0EF0CCEF6A
:101D90000EF0010ECDEF0EF0000E120017EC0FF05A
:101DA000E4EC0EF04EEC0EF0A4EC0EF085EC0DF031
:101DB00012002750D8A4DFEF0EF0E2EF0EF0010E74
:101DC000E3EF0EF0000E12003901C06BC16BC26B65
:101DD000C36BC46BC56BC66BC76B1200863F873F76
:101DE000883F893F8A3F8B3F8C3F8D3F60C01FF00B
:101DF00061C020F0120060C021F061C022F012002A
:101E000060C01BF061C01CF0120060C01DF061C01A
:101E10001EF0120060C019F061C01AF0120060C01C
:101E200017F061C018F0120091EC0EF01200D29A77
:081E3000120012001200120062
:020000040020DA
:10000000FF0FFF0FFF0FFF0FFF0FFF0FFF0FFF0F80
:020000040030CA
:0A000000AAFFF7FF9FFFFFFFFFFFBD
:00000001FF
