:040000000DEF00F010
:04000800DEEF08F02F
:06001800FF0062EF0AF098
:1010000000006F0004FE28F0296A6F0008FE06F059
:10101000050E076ED8900632072E0AEF08F006502C
:1010200028C008F029C009F0D89008360936D890B1
:1010300008360936D890083609360810286E095047
:10104000296E20EE60F010EE0AF00F0E6F006FFFB9
:10105000E3FFE806FBE2BBB830EF08F033EF08F03F
:10106000010E34EF08F0000EFF0A066E063ABB5080
:101070000618EF0B0618BB6E550E1A6EAA0E1B6EE5
:1010800029501C6E28C01DF06F0014FE1EF02A6A45
:1010900068EF08F02A50020DF3500A0FD96EDA6A91
:1010A0006F0078FF06F06F0074FF07F060001BF020
:1010B000D9FF60001FF0DAFF2AC008F0050E0826ED
:1010C00008501A0FE16EE26A6F007FFFE7FF2A2ADD
:1010D0001E502A5CD8A06FEF08F071EF08F04AEFBD
:1010E00008F02AC006F0050E062606501A0FD96E23
:1010F000DA6A6F0043FEDFFF906A809E3901A59196
:101100001A0E016E2A50060F026ED4EC09F012007E
:1011100040EC0BF088EC09F0D28E050E00017B6FDD
:101120000F0E7A6FF10EE82EFED77A2FFCD77B2FA9
:10113000FAD735EC0BF00009D8B4A1EF08F0A3EF13
:1011400008F099EF08F0D1EF08F035EC0BF000094A
:10115000D8B4ADEF08F0AFEF08F0A5EF08F07C0EC3
:101160003F24D96E000E4020DA6EDF5094EC0AF076
:101170003D06D8A03E06780E3F5C050E4058D8A02C
:10118000C4EF08F0C6EF08F0CBEF08F0406A000E9D
:101190003F6ED1EF08F0010E3F243F6E000E40205D
:1011A000406E3D503E10D8A4D8EF08F0DAEF08F0BA
:1011B000A5EF08F08DEF08F00DEF00F06F00E8FFED
:1011C0002BF06F00ECFF2CF0390195A1EAEF08F04D
:1011D000ECEF08F0F7EF08F0A5A1F1EF08F0F3EF5E
:1011E00008F0F7EF08F026EC0BF02DEF09F093A9CB
:1011F000FCEF08F0FEEF08F013EF09F0A3A903EFEE
:1012000009F005EF09F013EF09F002D811EF09F02A
:101210000500FA6E4B50FD6E4C50FE6EFF6AFA50A0
:1012200012002DEF09F093A718EF09F01AEF09F05B
:101230002DEF09F0A3A71FEF09F021EF09F02DEF23
:1012400009F002D82DEF09F00500FA6E4D50FD6E41
:101250004E50FE6EFF6AFA5012006000B3F0FBFFC2
:101260006000AFF0FAFF110053502D0FD96EDA6A0B
:10127000DF6A3D01F9A73FEF09F041EF09F052EFB6
:1012800009F053502D0FD96EDA6ADF8202D852EF7F
:1012900009F00500FA6E4950FD6E4A50FE6EFF6A75
:1012A000FA5012003D01F9A358EF09F05AEF09F086
:1012B0006BEF09F053502D0FD96EDA6ADF8402D834
:1012C0006BEF09F00500FA6E4750FD6E4850FE6E58
:1012D000FF6AFA50120053502D0FD96EDA6ADF50B0
:1012E000D8B475EF09F077EF09F085EF09F002D86F
:1012F00083EF09F00500FA6E4550FD6E4650FE6E14
:10130000FF6AFA50120087EF09F003EC0BF01200AD
:10131000800E8F6E8E50E00B800AD8A492EF09F0F9
:1013200094EF09F08AEF09F0916A3701006BBA6B0C
:10133000BB6BB86BB96BBE6BBF6BBC6BBD6BA26B91
:10134000A36BA06BA16BA66BA76BA46BA56BAA6B21
:10135000AB6BA86BA96BAE6BAF6BAC6BAD6BB26BD1
:10136000B36BB06BB16BB66BB76BB46BB56B270E71
:10137000036F980E046F810E056F020E0001786FE7
:10138000100E796F76EC0BF03901A5919581600E06
:101390008F6E8E50E00B600AD8A4D1EF09F0D3EF26
:1013A00009F0C9EF09F0120002503D24036E000E4F
:1013B0003E20046E790E035C050E0458D8B0E3EFAE
:1013C00009F0E5EF09F01BEF0AF002503D26000E90
:1013D0003E22056A10EF0AF001500524D96EDA6A40
:1013E0007C0E4124E16E000E4220E26E6F007FFF12
:1013F000E7FF780E415C050E4258D8A002EF0AF0D4
:1014000004EF0AF009EF0AF0426A000E416E0FEF96
:101410000AF0010E4124416E000E4220426E052A60
:101420000250055CD8A017EF0AF019EF0AF0ECEFB4
:1014300009F01CEF0AF04F80120039019397680EF3
:101440000001786F120E796F62EC0BF039019399FD
:10145000C80E0001786F150E796F5DEC0BF03D0141
:10146000EC6BED6BEE6BEF6BF06BF16BB00EF26F44
:10147000800EF36FF46B440EF56FF66BF76BF86B41
:10148000F96BFA6B020E0001786F170E796F6CEC36
:101490000BF0000E0001786F170E796F67EC0BF000
:1014A000F60E0001786F160E796F71EC0BF0506A32
:1014B000566A556A080E546E536A526A516A390167
:1014C00093871200AA0EF66E160EF76E000EF86ED7
:1014D00000EE60F010EE10F009006F00D7FFEEFF95
:1014E000E550E150F9E100EE7CF011EE78F1EE6AA2
:1014F000E550E150FCE1E250FAE100EE70F0080E38
:10150000EE6AE806FDE100EE2DF02A0EEE6AE8062E
:10151000FDE1080ED56E000ED66E000ED76E000EE1
:10152000F86E000188EF08F00001786F5450D8B4CD
:101530009CEF0AF09EEF0AF096EF0AF0390193B99A
:10154000A4EF0AF0A6EF0AF0ABEF0AF06000E3F1B7
:10155000EAFDBEEF0AF093995650350FD96EDA6A5C
:101560006000E3F1DFFF562A070E5664BAEF0AF077
:10157000BCEF0AF0BDEF0AF0566A540693891200D8
:10158000BA6ABB6ABC6AC268EA0EC36EC4683A0132
:101590006069F50E506F4069816B516B416B616BF7
:1015A000426B526B626B4369536963694469546966
:1015B0006469080E846F130E086F330E0A6F0B0EEA
:1015C000ED6F090EE76F1200080E5460EAEF0AF0A3
:1015D000ECEF0AF000EF0BF05550350FD96EDA6AD8
:1015E000DF503D01EA6F552A070E5564FAEF0AF005
:1015F000FCEF0AF0FDEF0AF0556A542A02EF0BF0F7
:101600003901939912005350700FD96EDA6A6F0046
:10161000A3F7DFFF532A070E536411EF0BF013EF0C
:101620000BF014EF0BF0536A512A1200200E39010F
:10163000D96FDB6BDD6B020EDF6FDE6BDCA123EF9E
:101640000BF025EF0BF01EEF0BF0120002D832EF7B
:101650000BF00500FA6E4350FD6E4450FE6EFF6ABB
:10166000FA5012003901A59112005450D8A43BEF52
:101670000BF03EEF0BF0010E3FEF0BF0000E1200EF
:101680007EEC0BF04BEC0BF0C0EC0AF016EC0BF020
:101690001DEC0AF012003901C06BC16BC26BC36B49
:1016A000C46BC56BC66BC76B1200863F873F883F14
:1016B000893F8A3F8B3F8C3F8D3F78C04BF079C08C
:1016C0004CF0120078C04DF079C04EF0120078C096
:1016D00047F079C048F0120078C049F079C04AF06C
:1016E000120078C045F079C046F0120078C043F08F
:1016F00079C044F0120003EC0BF01200D29A1200F1
:06170000120012001200AD
:020000040020DA
:10000000FF0FFF0FFF0FFF0FFF0FFF0FFF0FFF0F80
:020000040030CA
:0A000000AAFFF7FF9FFFFFFFFFFFBD
:00000001FF
