:040000000DEF00F010
:04000800EAEF0BF020
:06001800FF0070EF0DF087
:1010000000003D6A3E6A3F6A406A3C6A3701E0B7C9
:101010000CEF08F00EEF08F07FEF08F03B50D96EB0
:10102000DA6A010ED9266F0078FF2DF06F0078FF85
:101030002EF06F0078FF2FF06F0078FF30F03B50FC
:10104000D96EDA6ADF50316E3D0E326E3E0E336E6F
:101050003F0E346E400E356E57EC0AF06000F7F02C
:10106000E3F76000FBF0E4F76000FFF0E1F76000F9
:1010700003F1E2F73B50D96EDA6A050ED926DF504C
:101080003701E56F3B50D96EDA6A060ED926DF507C
:10109000E66F3B50D96EDA6A070ED926DF50E76F4C
:1010A0003B50D96EDA6A080ED926DF50E86F3B5004
:1010B000D96EDA6A090ED926DF50E96F3B50D96E36
:1010C000DA6A0A0ED926DF50EA6F3B50D96EDA6A27
:1010D0000B0ED926DF50EB6F3B50D96EDA6A0C0E3F
:1010E000D926DF50EC6F3B50D96EDA6A0D0ED92647
:1010F000DF50ED6FE087010E3C6E6BEF09F0D0B76B
:1011000084EF08F086EF08F0F5EF08F03B50D96E59
:10111000DA6A010ED9266F0078FF2DF06F0078FF94
:101120002EF06F0078FF2FF06F0078FF30F03B500B
:10113000D96EDA6ADF50316E3D0E326E3E0E336E7E
:101140003F0E346E400E356E57EC0AF06000F7F03B
:10115000D3F76000FBF0D4F76000FFF0D1F7600038
:1011600003F1D2F73B50D96EDA6A050ED926DF506B
:101170003701D56F3B50D96EDA6A060ED926DF509B
:10118000D66F3B50D96EDA6A070ED926DF50D76F7B
:101190003B50D96EDA6A080ED926DF50D86F3B5023
:1011A000D96EDA6A090ED926DF50D96F3B50D96E55
:1011B000DA6A0A0ED926DF50DA6F3B50D96EDA6A46
:1011C0000B0ED926DF50DB6F3B50D96EDA6A0C0E5E
:1011D000D926DF50DC6F3B50D96EDA6A0D0ED92666
:1011E000DF50DD6FD0877BEF08F0C0B7FAEF08F073
:1011F000FCEF08F06BEF09F03B50D96EDA6A010E94
:10120000D9266F0078FF2DF06F0078FF2EF06F0069
:1012100078FF2FF06F0078FF30F03B50D96EDA6A1C
:10122000DF50316E3D0E326E3E0E336E3F0E346E29
:10123000400E356E57EC0AF06000F7F0C3F760001F
:10124000FBF0C4F76000FFF0C1F7600003F1C2F7E4
:101250003B50D96EDA6A050ED926DF503701C56FCB
:101260003B50D96EDA6A060ED926DF50C66F3B5066
:10127000D96EDA6A070ED926DF50C76F3B50D96E98
:10128000DA6A080ED926DF50C86F3B50D96EDA6A89
:10129000090ED926DF50C96F3B50D96EDA6A0A0EA3
:1012A000D926DF50CA6F3B50D96EDA6A0B0ED926A9
:1012B000DF50CB6F3B50D96EDA6A0C0ED926DF5067
:1012C000CC6F3B50D96EDA6A0D0ED926DF50CD6F48
:1012D000C0877BEF08F03C5012006F00A0F745F08C
:1012E0002450D8A476EF09F078EF09F091EF09F0D7
:1012F000236A0D0E23647FEF09F081EF09F083EF7D
:1013000009F08BEF09F02350680FD96EDA6ADF6AB3
:10131000232A79EF09F0010E0001686F236A010E9C
:10132000246E2404D8A497EF09F099EF09F0A6EFF2
:1013300009F0550E4518D8A4A0EF09F0A2EF09F066
:1013400056EF0AF0020E246E56EF0AF0020E241831
:10135000D8A4ADEF09F0AFEF09F0C0EF09F0AA0E85
:101360004518D8A4B6EF09F0B8EF09F0BCEF09F0C2
:10137000030E246E56EF0AF0010E246E56EF0AF0AB
:10138000030E2418D8A4C7EF09F0C9EF09F0E1EF64
:1013900009F045C041F0426A436A446A43C044F0E0
:1013A00042C043F041C042F0416A41C069F042C0CE
:1013B0006AF043C06BF044C06CF0040E246E56EF2C
:1013C0000AF0040E2418D8A4E8EF09F0EAEF09F0B7
:1013D000F1EF09F0455000016913050E246E56EF38
:1013E0000AF0050E2418D8A4F8EF09F0FAEF09F076
:1013F00019EF0AF045C06DF0060E246E56EF0AF0A4
:1014000023506E0FD96EDA6A600017F1DFFF232ACE
:101410006DC041F00F0E41164150235CD8A013EF70
:101420000AF015EF0AF056EF0AF0070E246E56EF99
:101430000AF0060E2418D8A420EF0AF022EF0AF0D2
:101440002FEF0AF06DC041F00F0E41164150235CA2
:10145000D8A02DEF0AF02FEF0AF000EF0AF0070EE8
:101460002418D8A436EF0AF038EF0AF056EF0AF045
:10147000680E3B6E01EC08F00009D8B442EF0AF0A8
:1014800044EF0AF055EF0AF0BBB849EF0AF04CEF11
:101490000AF0010E4DEF0AF0000EFF0A416E413ACC
:1014A000BB504118EF0B4118BB6E246A1200020EAC
:1014B0003118D8A45EEF0AF060EF0AF0E2EF0AF00C
:1014C0003350D96EDA6A6000B7F0DFFF2DC036F016
:1014D0002EC037F02FC038F030C039F037C036F0AA
:1014E00038C037F039C038F0396A36C02DF037C00F
:1014F0002EF038C02FF039C030F03250D96EDA6A91
:101500006000B7F0DFFF2DC036F02EC037F02FC0DF
:1015100038F030C039F037C036F038C037F039C055
:1015200038F0396A36C02DF037C02EF038C02FF0B1
:1015300039C030F02D50030B3A6E2DC036F02EC05E
:1015400037F02FC038F030C039F0030ED89036365F
:10155000373638363936E82EA6EF0AF036C02DF089
:1015600037C02EF038C02FF039C030F02D50E00BCE
:101570003A243A6E3A50080F3A6E3550D96EDA6A0C
:101580003A50EB0BDF6E2DC036F02EC037F02FC077
:1015900038F030C039F037C036F038C037F039C0D5
:1015A00038F0396A36C02DF037C02EF038C02FF031
:1015B00039C030F03450D96EDA6A6000B7F0DFFF1E
:1015C0000BEF0BF03250D96EDA6ADF6A3350D96E06
:1015D000DA6ADF6A2DC036F02EC037F02FC038F03F
:1015E00030C039F0050ED8903636373638363936B1
:1015F000E82EF3EF0AF036C02DF037C02EF038C0D9
:101600002FF039C030F03550D96EDA6A6000B7F08B
:10161000DFFFC3EF0AF012006F0004FE54F0556ABA
:101620006F0008FE32F0050E336ED8903232332E42
:1016300015EF0BF0325054C034F055C035F0D8904F
:1016400034363536D89034363536D890343635364B
:101650003410546E3550556E20EE76F010EE36F0A4
:101660000F0E6F006FFFE3FFE806FBE2550E466EBC
:10167000AA0E476E5550486E54C049F06F0014FED4
:101680004AF0566A62EF0BF05650020DF350360FD7
:10169000D96EDA6A6F0078FF32F06F0074FF33F0B2
:1016A0006000CBF0D9FF6000CFF0DAFF56C034F015
:1016B000050E34263450460FE16EE26A6F007FFF5C
:1016C000E7FF562A4AC032F00F0E32163250565CEF
:1016D000D8A06DEF0BF06FEF0BF044EF0BF056C09E
:1016E00032F0050E32263250460FD96EDA6A6F009C
:1016F00043FEDFFF906A809E3901A591460E2D6E54
:101700005650060F2E6EE2EC0CF012004EEC0EF06E
:1017100094EC0CF0DA0E0001866F120E876F70ECFD
:101720000EF0180E0001866F160E876F84EC0EF017
:10173000D28E050E00018A6F0F0E896FF10EE82E12
:10174000FED7892FFCD78A2FFAD743EC0EF0000979
:10175000D8B4ADEF0BF0AFEF0BF0A5EF0BF0DDEF72
:101760000BF043EC0EF00009D8B4B9EF0BF0BBEF6F
:101770000BF0B1EF0BF08B0E1324D96E000E14207A
:10178000DA6EDF50A2EC0DF01106D8A01206780E2A
:10179000135C050E1458D8A0D0EF0BF0D2EF0BF06D
:1017A000D7EF0BF0146A000E136EDDEF0BF0010E95
:1017B0001324136E000E1420146E11501210D8A4AE
:1017C000E4EF0BF0E6EF0BF0B1EF0BF099EF0BF05D
:1017D0000DEF00F06F00E8FF57F06F00ECFF58F0DE
:1017E000390195A1F6EF0BF0F8EF0BF003EF0CF0D9
:1017F000A5A1FDEF0BF0FFEF0BF003EF0CF034ECC5
:101800000EF039EF0CF093A908EF0CF00AEF0CF092
:101810001FEF0CF0A3A90FEF0CF011EF0CF01FEF6E
:101820000CF002D81DEF0CF00500FA6E1F50FD6E93
:101830002050FE6EFF6AFA50120039EF0CF093A7A9
:1018400024EF0CF026EF0CF039EF0CF0A3A72BEFF0
:101850000CF02DEF0CF039EF0CF002D839EF0CF052
:101860000500FA6E2150FD6E2250FE6EFF6AFA509E
:101870001200600063F1FBFF60005FF1FAFF1100EE
:101880002950010FD96EDA6ADF6A3D01F9A74BEFE3
:101890000CF04DEF0CF05EEF0CF02950010FD96EFB
:1018A000DA6ADF8202D85EEF0CF00500FA6E1D5096
:1018B000FD6E1E50FE6EFF6AFA5012003D01F9A344
:1018C00064EF0CF066EF0CF077EF0CF02950010F8D
:1018D000D96EDA6ADF8402D877EF0CF00500FA6E71
:1018E0001B50FD6E1C50FE6EFF6AFA50120029500C
:1018F000010FD96EDA6ADF50D8B481EF0CF083EFB4
:101900000CF091EF0CF002D88FEF0CF00500FA6E9E
:101910001950FD6E1A50FE6EFF6AFA50120093EFD6
:101920000CF011EC0EF01200800E8F6E8E50E00B5A
:10193000800AD8A49EEF0CF0A0EF0CF096EF0CF00C
:10194000916A3701006BBA6BBB6BB86BB96BBE6B3E
:10195000BF6BBC6BBD6BA26BA36BA06BA16BA66BCB
:10196000A76BA46BA56BAA6BAB6BA86BA96BAE6BDB
:10197000AF6BAC6BAD6BB26BB36BB06BB16BB66B8B
:10198000B76BB46BB56B270E036F980E046F810EA7
:10199000056F180E0001866F160E876F84EC0EF02F
:1019A0003901A59195818F6A6F0038FE88F0E00EAD
:1019B00000018817D8A4DFEF0CF0E1EF0CF0D4EFB2
:1019C0000CF012002E5011242F6E000E1220306EDB
:1019D000790E2F5C050E3058D8B0F1EF0CF0F3EF14
:1019E0000CF029EF0DF02E501126000E1222316A54
:1019F0001EEF0DF02D503124D96EDA6A8B0E1524AE
:101A0000E16E000E1620E26E6F007FFFE7FF780E9A
:101A1000155C050E1658D8A010EF0DF012EF0DF062
:101A200017EF0DF0166A000E156E1DEF0DF0010E8A
:101A30001524156E000E1620166E312A2E50315CBC
:101A4000D8A025EF0DF027EF0DF0FAEF0CF02AEFFC
:101A50000DF02580120039019397800E0001866FEA
:101A6000180E876F70EC0EF039019399E40E0001A7
:101A7000866F1B0E876F6BEC0EF03D01EC6BED6B10
:101A8000EE6BEF6BF06BF16BB00EF26F800EF36FDD
:101A9000F46B440EF56FF66BF76BF86BF96BFA6B42
:101AA0001E0E0001866F1D0E876F7AEC0EF01C0E65
:101AB0000001866F1D0E876F75EC0EF0120E00018F
:101AC000866F1D0E876F7FEC0EF0266A2C6A2B6ADC
:101AD000080E2A6E296A286A276A3901938712003C
:101AE000C60EF66E1C0EF76E000EF86E00EE76F067
:101AF00010EE10F009006F00D7FFEEFFE550E15047
:101B0000F9E100EE8BF011EE78F1EE6AE550E1506C
:101B1000FCE1E250FAE100EE60F0160EEE6AE80633
:101B2000FDE100EE01F02C0EEE6AE806FDE1080E84
:101B3000D56E000ED66E000ED76E000EF86E000148
:101B400086EF0BF00001866F2A50D8B4AAEF0DF093
:101B5000ACEF0DF0A4EF0DF0390193B9B2EF0DF039
:101B6000B4EF0DF0B9EF0DF060001BF2EAFDCCEF21
:101B70000DF093992C50090FD96EDA6A60001BF2B0
:101B8000DFFF2C2A070E2C64C8EF0DF0CAEF0DF012
:101B9000CBEF0DF02C6A2A0693891200BA6ABB6A51
:101BA000BC6AC268EA0EC36EC4683A016069F50E89
:101BB000506F4069816B516B416B616B426B526B33
:101BC000626B436953696369446954696469080EC7
:101BD000846F130E086F330E0A6F0B0EED6F090E34
:101BE000E76F1200080E2A60F8EF0DF0FAEF0DF023
:101BF0000EEF0EF02B50090FD96EDA6ADF503D015F
:101C0000EA6F2B2A070E2B6408EF0EF00AEF0EF096
:101C10000BEF0EF02B6A2A2A10EF0EF03901939980
:101C200012002950600FD96EDA6A6F00A3F7DFFF48
:101C3000292A070E29641FEF0EF021EF0EF022EF84
:101C40000EF0296A272A1200200E3901D96FDB6BAA
:101C5000DD6B020EDF6FDE6BDCA131EF0EF033EFD8
:101C60000EF02CEF0EF0120002D840EF0EF005003F
:101C7000FA6E1750FD6E1850FE6EFF6AFA50120091
:101C80003901A59112002A50D8A449EF0EF04CEF6B
:101C90000EF0010E4DEF0EF0000E12008CEC0EF067
:101CA00059EC0EF0CEEC0DF024EC0EF02BEC0DF018
:101CB00012003901C06BC16BC26BC36BC46BC56BC7
:101CC000C66BC76B1200863F873F883F893F8A3FBC
:101CD0008B3F8C3F8D3F86C01FF087C020F01200E5
:101CE00086C021F087C022F0120086C01BF087C09A
:101CF0001CF0120086C01DF087C01EF0120086C0C6
:101D000019F087C01AF0120086C017F087C018F0CB
:101D1000120011EC0EF01200D29A12001200120002
:021D20001200AF
:020000040020DA
:10000000FF0FFF0FFF0FFF0FFF0FFF0FFF0FFF0F80
:020000040030CA
:0A000000AAFFF7FF9FFFFFFFFFFFBD
:00000001FF
