:040000000DEF00F010
:04000800DEEF0BF02C
:06001800FF0062EF0DF095
:1010000000003C6A3D6A3E6A3F6A3701E0B70BEF79
:1010100008F00DEF08F07CEF08F03B50D96EDA6A6B
:10102000010ED9266F0078FF2DF06F0078FF2EF0AB
:101030006F0078FF2FF06F0078FF30F03B50D96ED3
:10104000DA6ADF50316E3C0E326E3D0E336E3E0E6C
:10105000346E3F0E356E4BEC0AF06000F3F0E3F7B0
:101060006000F7F0E4F76000FBF0E1F76000FFF0EC
:10107000E2F73B50D96EDA6A050ED926DF50370108
:10108000E56F3B50D96EDA6A060ED926DF50E66F5F
:101090003B50D96EDA6A070ED926DF50E76F3B5016
:1010A000D96EDA6A080ED926DF50E86F3B50D96E48
:1010B000DA6A090ED926DF50E96F3B50D96EDA6A39
:1010C0000A0ED926DF50EA6F3B50D96EDA6A0B0E52
:1010D000D926DF50EB6F3B50D96EDA6A0C0ED92659
:1010E000DF50EC6F3B50D96EDA6A0D0ED926DF5017
:1010F000ED6FE08768EF09F0D0B781EF08F083EF7C
:1011000008F0F2EF08F03B50D96EDA6A010ED926EA
:101110006F0078FF2DF06F0078FF2EF06F0078FFE2
:101120002FF06F0078FF30F03B50D96EDA6ADF5055
:10113000316E3C0E326E3D0E336E3E0E346E3F0EFF
:10114000356E4BEC0AF06000F3F0D3F76000F7F077
:10115000D4F76000FBF0D1F76000FFF0D2F73B500E
:10116000D96EDA6A050ED926DF503701D56F3B50AC
:10117000D96EDA6A060ED926DF50D66F3B50D96E8B
:10118000DA6A070ED926DF50D76F3B50D96EDA6A7C
:10119000080ED926DF50D86F3B50D96EDA6A090E97
:1011A000D926DF50D96F3B50D96EDA6A0A0ED9269C
:1011B000DF50DA6F3B50D96EDA6A0B0ED926DF505A
:1011C000DB6F3B50D96EDA6A0C0ED926DF50DC6F2C
:1011D0003B50D96EDA6A0D0ED926DF50DD6FD0870D
:1011E0007AEF08F0C0B7F7EF08F0F9EF08F068EF12
:1011F00009F03B50D96EDA6A010ED9266F0078FFEC
:101200002DF06F0078FF2EF06F0078FF2FF06F0049
:1012100078FF30F03B50D96EDA6ADF50316E3C0E09
:10122000326E3D0E336E3E0E346E3F0E356E4BEC1D
:101230000AF06000F3F0C3F76000F7F0C4F7600055
:10124000FBF0C1F76000FFF0C2F73B50D96EDA6ADD
:10125000050ED926DF503701C56F3B50D96EDA6ACB
:10126000060ED926DF50C66F3B50D96EDA6A070EDC
:10127000D926DF50C76F3B50D96EDA6A080ED926DF
:10128000DF50C86F3B50D96EDA6A090ED926DF509D
:10129000C96F3B50D96EDA6A0A0ED926DF50CA6F81
:1012A0003B50D96EDA6A0B0ED926DF50CB6F3B501C
:1012B000D96EDA6A0C0ED926DF50CC6F3B50D96E4E
:1012C000DA6A0D0ED926DF50CD6FC0877AEF08F0AD
:1012D00012006F00A0F744F02450D8A472EF09F078
:1012E00074EF09F08DEF09F0236A0D0E23647BEF94
:1012F00009F07DEF09F07FEF09F087EF09F0235047
:10130000680FD96EDA6ADF6A232A75EF09F0010ED9
:101310000001686F236A010E246E2404D8A493EFA1
:1013200009F095EF09F0A2EF09F0550E4418D8A482
:101330009CEF09F09EEF09F04AEF0AF0020E246ECE
:101340004AEF0AF0020E2418D8A4A9EF09F0ABEF77
:1013500009F0BCEF09F0AA0E4418D8A4B2EF09F0C6
:10136000B4EF09F0B8EF09F0030E246E4AEF0AF06B
:10137000010E246E4AEF0AF0030E2418D8A4C3EF1E
:1013800009F0C5EF09F0DDEF09F044C040F0416A13
:10139000426A436A42C043F041C042F040C041F05B
:1013A000406A40C069F041C06AF042C06BF043C07F
:1013B0006CF0040E246E4AEF0AF0040E2418D8A430
:1013C000E4EF09F0E6EF09F0EDEF09F04450000119
:1013D0006913050E246E4AEF0AF0050E2418D8A4EE
:1013E000F4EF09F0F6EF09F015EF0AF044C06DF0E4
:1013F000060E246E4AEF0AF023506E0FD96EDA6A99
:10140000600013F1DFFF232A6DC040F00F0E40167D
:101410004050235CD8A00FEF0AF011EF0AF04AEF1A
:101420000AF0070E246E4AEF0AF0060E2418D8A41C
:101430001CEF0AF01EEF0AF02BEF0AF06DC040F02F
:101440000F0E40164050235CD8A029EF0AF02BEF76
:101450000AF0FCEF09F0070E2418D8A432EF0AF0C6
:1014600034EF0AF04AEF0AF0680E3B6E01EC08F028
:10147000BBB83DEF0AF040EF0AF0010E41EF0AF071
:10148000000EFF0A406E403ABB504018EF0B401868
:10149000BB6E246A1200020E3118D8A452EF0AF073
:1014A00054EF0AF0D6EF0AF03350D96EDA6A6000D2
:1014B000B7F0DFFF2DC036F02EC037F02FC038F068
:1014C00030C039F037C036F038C037F039C038F0A6
:1014D000396A36C02DF037C02EF038C02FF039C031
:1014E00030F03250D96EDA6A6000B7F0DFFF2DC0FD
:1014F00036F02EC037F02FC038F030C039F037C08A
:1015000036F038C037F039C038F0396A36C02DF0BF
:1015100037C02EF038C02FF039C030F02D50030BFB
:101520003A6E2DC036F02EC037F02FC038F030C0E4
:1015300039F0030ED8903636373638363936E82E3D
:101540009AEF0AF036C02DF037C02EF038C02FF0D9
:1015500039C030F02D50E00B3A243A6E3A50080F63
:101560003A6E3550D96EDA6A3A50EB0BDF6E2DC009
:1015700036F02EC037F02FC038F030C039F037C009
:1015800036F038C037F039C038F0396A36C02DF03F
:1015900037C02EF038C02FF039C030F03450D96E3B
:1015A000DA6A6000B7F0DFFFFFEF0AF03250D96E61
:1015B000DA6ADF6A3350D96EDA6ADF6A2DC036F034
:1015C0002EC037F02FC038F030C039F0050ED8905B
:1015D0003636373638363936E82EE7EF0AF036C079
:1015E0002DF037C02EF038C02FF039C030F0355014
:1015F000D96EDA6A6000B7F0DFFFB7EF0AF01200C9
:101600006F0004FE54F0556A6F0008FE32F0050EBC
:10161000336ED8903232332E09EF0BF0325054C073
:1016200034F055C035F0D89034363536D89034364D
:101630003536D890343635363410546E3550556EB4
:1016400020EE76F010EE36F00F0E6F006FFFE3FF26
:10165000E806FBE2550E466EAA0E476E5550486EE0
:1016600054C049F06F0014FE4AF0566A56EF0BF072
:101670005650020DF350360FD96EDA6A6F0078FFBC
:1016800032F06F0074FF33F06000CBF0D9FF6000E0
:10169000CFF0DAFF56C034F0050E34263450460F32
:1016A000E16EE26A6F007FFFE7FF562A4AC032F020
:1016B0000F0E32163250565CD8A061EF0BF063EF7C
:1016C0000BF038EF0BF056C032F0050E32263250D8
:1016D000460FD96EDA6A6F0043FEDFFF906A809E84
:1016E0003901A591460E2D6E5650060F2E6ED4EC84
:1016F0000CF0120040EC0EF088EC0CF0D20E000161
:10170000866F120E876F62EC0EF0000E0001866F7E
:10171000160E876F76EC0EF0D28E050E0001896FE3
:101720000F0E886FF10EE82EFED7882FFCD7892F79
:10173000FAD735EC0EF00009D8B4A1EF0BF0A3EF07
:101740000BF099EF0BF0D1EF0BF035EC0EF0000938
:10175000D8B4ADEF0BF0AFEF0BF0A5EF0BF08A0EA6
:101760001324D96E000E1420DA6EDF5094EC0DF0C5
:101770001106D8A01206780E135C050E1458D8A0D6
:10178000C4EF0BF0C6EF0BF0CBEF0BF0146A000EBA
:10179000136ED1EF0BF0010E1324136E000E142004
:1017A000146E11501210D8A4D8EF0BF0DAEF0BF032
:1017B000A5EF0BF08DEF0BF00DEF00F06F00E8FFE1
:1017C00057F06F00ECFF58F0390195A1EAEF0BF0EC
:1017D000ECEF0BF0F7EF0BF0A5A1F1EF0BF0F3EF4F
:1017E0000BF0F7EF0BF026EC0EF02DEF0CF093A9B9
:1017F000FCEF0BF0FEEF0BF013EF0CF0A3A903EFDF
:101800000CF005EF0CF013EF0CF002D811EF0CF018
:101810000500FA6E1F50FD6E2050FE6EFF6AFA50F2
:1018200012002DEF0CF093A718EF0CF01AEF0CF04C
:101830002DEF0CF0A3A71FEF0CF021EF0CF02DEF14
:101840000CF002D82DEF0CF00500FA6E2150FD6E61
:101850002250FE6EFF6AFA501200600063F1FBFF37
:1018600060005FF1FAFF11002950010FD96EDA6AAA
:10187000DF6A3D01F9A73FEF0CF041EF0CF052EFAA
:101880000CF02950010FD96EDA6ADF8202D852EFCC
:101890000CF00500FA6E1D50FD6E1E50FE6EFF6AC4
:1018A000FA5012003D01F9A358EF0CF05AEF0CF07A
:1018B0006BEF0CF02950010FD96EDA6ADF8402D881
:1018C0006BEF0CF00500FA6E1B50FD6E1C50FE6EA7
:1018D000FF6AFA5012002950010FD96EDA6ADF5000
:1018E000D8B475EF0CF077EF0CF085EF0CF002D860
:1018F00083EF0CF00500FA6E1950FD6E1A50FE6E63
:10190000FF6AFA50120087EF0CF003EC0EF01200A1
:10191000800E8F6E8E50E00B800AD8A492EF0CF0F0
:1019200094EF0CF08AEF0CF0916A3701006BBA6B00
:10193000BB6BB86BB96BBE6BBF6BBC6BBD6BA26B8B
:10194000A36BA06BA16BA66BA76BA46BA56BAA6B1B
:10195000AB6BA86BA96BAE6BAF6BAC6BAD6BB26BCB
:10196000B36BB06BB16BB66BB76BB46BB56B270E6B
:10197000036F980E046F810E056F000E0001866FD5
:10198000160E876F76EC0EF03901A5919581600EE9
:101990008F6E8E50E00B600AD8A4D1EF0CF0D3EF1D
:1019A0000CF0C9EF0CF012002E5011242F6E000E17
:1019B0001220306E790E2F5C050E3058D8B0E3EF50
:1019C0000CF0E5EF0CF01BEF0DF02E501126000E81
:1019D0001222316A10EF0DF02D503124D96EDA6ADF
:1019E0008A0E1524E16E000E1620E26E6F007FFF56
:1019F000E7FF780E155C050E1658D8A002EF0DF023
:101A000004EF0DF009EF0DF0166A000E156E0FEFE2
:101A10000DF0010E1524156E000E1620166E312ADB
:101A20002E50315CD8A017EF0DF019EF0DF0ECEF50
:101A30000CF01CEF0DF02580120039019397680E11
:101A40000001866F180E876F62EC0EF039019399D2
:101A5000C80E0001866F1B0E876F5DEC0EF03D0116
:101A6000EC6BED6BEE6BEF6BF06BF16BB00EF26F3E
:101A7000800EF36FF46B440EF56FF66BF76BF86B3B
:101A8000F96BFA6B020E0001866F1D0E876F6CEC0E
:101A90000EF0000E0001866F1D0E876F67EC0EF0D2
:101AA000F60E0001866F1C0E876F71EC0EF0266A31
:101AB0002C6A2B6A080E2A6E296A286A276A39015D
:101AC00093871200AA0EF66E1C0EF76E000EF86ECB
:101AD00000EE76F010EE10F009006F00D7FFEEFF79
:101AE000E550E150F9E100EE8AF011EE78F1EE6A8E
:101AF000E550E150FCE1E250FAE100EE60F0160E34
:101B0000EE6AE806FDE100EE01F02C0EEE6AE80652
:101B1000FDE1080ED56E000ED66E000ED76E000EDB
:101B2000F86E00017AEF0BF00001866F2A50D8B4EE
:101B30009CEF0DF09EEF0DF096EF0DF0390193B98B
:101B4000A4EF0DF0A6EF0DF0ABEF0DF060001BF26F
:101B5000EAFDBEEF0DF093992C50090FD96EDA6AA9
:101B600060001BF2DFFF2C2A070E2C64BAEF0DF089
:101B7000BCEF0DF0BDEF0DF02C6A2A069389120020
:101B8000BA6ABB6ABC6AC268EA0EC36EC4683A012C
:101B90006069F50E506F4069816B516B416B616BF1
:101BA000426B526B626B4369536963694469546960
:101BB0006469080E846F130E086F330E0A6F0B0EE4
:101BC000ED6F090EE76F1200080E2A60EAEF0DF0C4
:101BD000ECEF0DF000EF0EF02B50090FD96EDA6A22
:101BE000DF503D01EA6F2B2A070E2B64FAEF0DF050
:101BF000FCEF0DF0FDEF0DF02B6A2A2A02EF0EF03C
:101C00003901939912002950600FD96EDA6A6F007A
:101C1000A3F7DFFF292A070E296411EF0EF013EF57
:101C20000EF014EF0EF0296A272A1200200E390157
:101C3000D96FDB6BDD6B020EDF6FDE6BDCA123EF98
:101C40000EF025EF0EF01EEF0EF0120002D832EF6C
:101C50000EF00500FA6E1750FD6E1850FE6EFF6A0A
:101C6000FA5012003901A59112002A50D8A43BEF76
:101C70000EF03EEF0EF0010E3FEF0EF0000E1200E0
:101C80007EEC0EF04BEC0EF0C0EC0DF016EC0EF00E
:101C90001DEC0DF012003901C06BC16BC26BC36B40
:101CA000C46BC56BC66BC76B1200863F873F883F0E
:101CB000893F8A3F8B3F8C3F8D3F86C01FF087C096
:101CC00020F0120086C021F087C022F0120086C0EA
:101CD0001BF087C01CF0120086C01DF087C01EF0EC
:101CE000120086C019F087C01AF0120086C017F0E3
:101CF00087C018F0120003EC0EF01200D29A120006
:061D0000120012001200A7
:020000040020DA
:10000000FF0FFF0FFF0FFF0FFF0FFF0FFF0FFF0F80
:020000040030CA
:0A000000AAFFF7FF9FFFFFFFFFFFBD
:00000001FF
